{
	"contracts/Distribution.sol": {
		"Distribution": {
			"abi": [
				{
					"inputs": [
						{
							"internalType": "uint64",
							"name": "subscriptionId",
							"type": "uint64"
						},
						{
							"internalType": "address",
							"name": "_tokenCA",
							"type": "address"
						}
					],
					"stateMutability": "nonpayable",
					"type": "constructor"
				},
				{
					"inputs": [
						{
							"internalType": "address",
							"name": "have",
							"type": "address"
						},
						{
							"internalType": "address",
							"name": "want",
							"type": "address"
						}
					],
					"name": "OnlyCoordinatorCanFulfill",
					"type": "error"
				},
				{
					"inputs": [],
					"name": "Airdrop",
					"outputs": [],
					"stateMutability": "nonpayable",
					"type": "function"
				},
				{
					"inputs": [],
					"name": "PerformTaskOne",
					"outputs": [],
					"stateMutability": "nonpayable",
					"type": "function"
				},
				{
					"inputs": [],
					"name": "PrepareAirdrop",
					"outputs": [],
					"stateMutability": "nonpayable",
					"type": "function"
				},
				{
					"inputs": [],
					"name": "RandomNumber",
					"outputs": [
						{
							"internalType": "uint256",
							"name": "",
							"type": "uint256"
						}
					],
					"stateMutability": "view",
					"type": "function"
				},
				{
					"inputs": [],
					"name": "Register",
					"outputs": [],
					"stateMutability": "nonpayable",
					"type": "function"
				},
				{
					"inputs": [
						{
							"internalType": "uint256",
							"name": "",
							"type": "uint256"
						}
					],
					"name": "participants",
					"outputs": [
						{
							"internalType": "address",
							"name": "Participant",
							"type": "address"
						},
						{
							"internalType": "uint256",
							"name": "Points",
							"type": "uint256"
						}
					],
					"stateMutability": "view",
					"type": "function"
				},
				{
					"inputs": [
						{
							"internalType": "uint256",
							"name": "requestId",
							"type": "uint256"
						},
						{
							"internalType": "uint256[]",
							"name": "randomWords",
							"type": "uint256[]"
						}
					],
					"name": "rawFulfillRandomWords",
					"outputs": [],
					"stateMutability": "nonpayable",
					"type": "function"
				},
				{
					"inputs": [
						{
							"internalType": "address",
							"name": "",
							"type": "address"
						}
					],
					"name": "taskPerformedIndex",
					"outputs": [
						{
							"internalType": "uint256",
							"name": "",
							"type": "uint256"
						}
					],
					"stateMutability": "view",
					"type": "function"
				},
				{
					"inputs": [],
					"name": "tokenContract",
					"outputs": [
						{
							"internalType": "contract IERC20",
							"name": "",
							"type": "address"
						}
					],
					"stateMutability": "view",
					"type": "function"
				}
			],
			"devdoc": {
				"kind": "dev",
				"methods": {},
				"version": 1
			},
			"evm": {
				"assembly": "    /* \"contracts/Distribution.sol\":340:6213  contract Distribution is VRFConsumerBaseV2 {... */\n  mstore(0x40, 0xa0)\n    /* \"contracts/Distribution.sol\":616:658  0x8103B0A8A00be2DDC778e6e7eaa21791Cd364625 */\n  0x8103b0a8a00be2ddc778e6e7eaa21791cd364625\n    /* \"contracts/Distribution.sol\":591:658  address vrfCoordinator = 0x8103B0A8A00be2DDC778e6e7eaa21791Cd364625 */\n  0x02\n  exp(0x0100, 0x00)\n  dup2\n  sload\n  dup2\n  0xffffffffffffffffffffffffffffffffffffffff\n  mul\n  not\n  and\n  swap1\n  dup4\n  0xffffffffffffffffffffffffffffffffffffffff\n  and\n  mul\n  or\n  swap1\n  sstore\n  pop\n    /* \"contracts/Distribution.sol\":771:837  0x474e34a077df58807dbe9c96d3c009b23b3c6d0cce433e59bbf5b34f823bc56c */\n  0x474e34a077df58807dbe9c96d3c009b23b3c6d0cce433e59bbf5b34f823bc56c\n    /* \"contracts/Distribution.sol\":743:837  bytes32 s_keyHash =... */\n  0x00\n  shl\n  0x03\n  sstore\n    /* \"contracts/Distribution.sol\":886:891  40000 */\n  0x9c40\n    /* \"contracts/Distribution.sol\":860:891  uint32 callbackGasLimit = 40000 */\n  0x04\n  exp(0x0100, 0x00)\n  dup2\n  sload\n  dup2\n  0xffffffff\n  mul\n  not\n  and\n  swap1\n  dup4\n  0xffffffff\n  and\n  mul\n  or\n  swap1\n  sstore\n  pop\n    /* \"contracts/Distribution.sol\":982:983  3 */\n  0x03\n    /* \"contracts/Distribution.sol\":952:983  uint16 requestConfirmations = 3 */\n  0x04\n  dup1\n  0x0100\n  exp\n  dup2\n  sload\n  dup2\n  0xffff\n  mul\n  not\n  and\n  swap1\n  dup4\n  0xffff\n  and\n  mul\n  or\n  swap1\n  sstore\n  pop\n    /* \"contracts/Distribution.sol\":1119:1120  1 */\n  0x01\n    /* \"contracts/Distribution.sol\":1101:1120  uint32 numWords = 1 */\n  0x04\n  exp(0x0100, 0x06)\n  dup2\n  sload\n  dup2\n  0xffffffff\n  mul\n  not\n  and\n  swap1\n  dup4\n  0xffffffff\n  and\n  mul\n  or\n  swap1\n  sstore\n  pop\n    /* \"contracts/Distribution.sol\":1209:1505  constructor(... */\n  callvalue\n  dup1\n  iszero\n  tag_1\n  jumpi\n  0x00\n  dup1\n  revert\ntag_1:\n  pop\n  mload(0x40)\n  sub(codesize, bytecodeSize)\n  dup1\n  bytecodeSize\n  dup4\n  codecopy\n  dup2\n  dup2\n  add\n  0x40\n  mstore\n  dup2\n  add\n  swap1\n  tag_2\n  swap2\n  swap1\n  tag_3\n  jump\t// in\ntag_2:\n    /* \"contracts/Distribution.sol\":1302:1316  vrfCoordinator */\n  0x02\n  0x00\n  swap1\n  sload\n  swap1\n  0x0100\n  exp\n  swap1\n  div\n  0xffffffffffffffffffffffffffffffffffffffff\n  and\n    /* \"@chainlink/contracts/src/v0.8/vrf/VRFConsumerBaseV2.sol\":5616:5631  _vrfCoordinator */\n  dup1\n    /* \"@chainlink/contracts/src/v0.8/vrf/VRFConsumerBaseV2.sol\":5599:5631  vrfCoordinator = _vrfCoordinator */\n  0xffffffffffffffffffffffffffffffffffffffff\n  and\n  0x80\n  dup2\n  0xffffffffffffffffffffffffffffffffffffffff\n  and\n  dup2\n  mstore\n  pop\n  pop\n    /* \"@chainlink/contracts/src/v0.8/vrf/VRFConsumerBaseV2.sol\":5556:5636  constructor(address _vrfCoordinator) {... */\n  pop\n    /* \"contracts/Distribution.sol\":1368:1382  vrfCoordinator */\n  0x02\n  0x00\n  swap1\n  sload\n  swap1\n  0x0100\n  exp\n  swap1\n  div\n  0xffffffffffffffffffffffffffffffffffffffff\n  and\n    /* \"contracts/Distribution.sol\":1328:1339  COORDINATOR */\n  0x01\n  0x00\n    /* \"contracts/Distribution.sol\":1328:1383  COORDINATOR = VRFCoordinatorV2Interface(vrfCoordinator) */\n  0x0100\n  exp\n  dup2\n  sload\n  dup2\n  0xffffffffffffffffffffffffffffffffffffffff\n  mul\n  not\n  and\n  swap1\n  dup4\n  0xffffffffffffffffffffffffffffffffffffffff\n  and\n  mul\n  or\n  swap1\n  sstore\n  pop\n    /* \"contracts/Distribution.sol\":1403:1413  msg.sender */\n  caller\n    /* \"contracts/Distribution.sol\":1393:1400  s_owner */\n  0x04\n  0x0a\n    /* \"contracts/Distribution.sol\":1393:1413  s_owner = msg.sender */\n  0x0100\n  exp\n  dup2\n  sload\n  dup2\n  0xffffffffffffffffffffffffffffffffffffffff\n  mul\n  not\n  and\n  swap1\n  dup4\n  0xffffffffffffffffffffffffffffffffffffffff\n  and\n  mul\n  or\n  swap1\n  sstore\n  pop\n    /* \"contracts/Distribution.sol\":1442:1456  subscriptionId */\n  dup2\n    /* \"contracts/Distribution.sol\":1423:1439  s_subscriptionId */\n  0x01\n  0x14\n    /* \"contracts/Distribution.sol\":1423:1456  s_subscriptionId = subscriptionId */\n  0x0100\n  exp\n  dup2\n  sload\n  dup2\n  0xffffffffffffffff\n  mul\n  not\n  and\n  swap1\n  dup4\n  0xffffffffffffffff\n  and\n  mul\n  or\n  swap1\n  sstore\n  pop\n    /* \"contracts/Distribution.sol\":1489:1497  _tokenCA */\n  dup1\n    /* \"contracts/Distribution.sol\":1466:1479  tokenContract */\n  0x00\n  dup1\n    /* \"contracts/Distribution.sol\":1466:1498  tokenContract = IERC20(_tokenCA) */\n  0x0100\n  exp\n  dup2\n  sload\n  dup2\n  0xffffffffffffffffffffffffffffffffffffffff\n  mul\n  not\n  and\n  swap1\n  dup4\n  0xffffffffffffffffffffffffffffffffffffffff\n  and\n  mul\n  or\n  swap1\n  sstore\n  pop\n    /* \"contracts/Distribution.sol\":1209:1505  constructor(... */\n  pop\n  pop\n    /* \"contracts/Distribution.sol\":340:6213  contract Distribution is VRFConsumerBaseV2 {... */\n  jump(tag_8)\n    /* \"#utility.yul\":88:205   */\ntag_10:\n    /* \"#utility.yul\":197:198   */\n  0x00\n    /* \"#utility.yul\":194:195   */\n  dup1\n    /* \"#utility.yul\":187:199   */\n  revert\n    /* \"#utility.yul\":334:435   */\ntag_12:\n    /* \"#utility.yul\":370:377   */\n  0x00\n    /* \"#utility.yul\":410:428   */\n  0xffffffffffffffff\n    /* \"#utility.yul\":403:408   */\n  dup3\n    /* \"#utility.yul\":399:429   */\n  and\n    /* \"#utility.yul\":388:429   */\n  swap1\n  pop\n    /* \"#utility.yul\":334:435   */\n  swap2\n  swap1\n  pop\n  jump\t// out\n    /* \"#utility.yul\":441:561   */\ntag_13:\n    /* \"#utility.yul\":513:536   */\n  tag_25\n    /* \"#utility.yul\":530:535   */\n  dup2\n    /* \"#utility.yul\":513:536   */\n  tag_12\n  jump\t// in\ntag_25:\n    /* \"#utility.yul\":506:511   */\n  dup2\n    /* \"#utility.yul\":503:537   */\n  eq\n    /* \"#utility.yul\":493:555   */\n  tag_26\n  jumpi\n    /* \"#utility.yul\":551:552   */\n  0x00\n    /* \"#utility.yul\":548:549   */\n  dup1\n    /* \"#utility.yul\":541:553   */\n  revert\n    /* \"#utility.yul\":493:555   */\ntag_26:\n    /* \"#utility.yul\":441:561   */\n  pop\n  jump\t// out\n    /* \"#utility.yul\":567:708   */\ntag_14:\n    /* \"#utility.yul\":623:628   */\n  0x00\n    /* \"#utility.yul\":654:660   */\n  dup2\n    /* \"#utility.yul\":648:661   */\n  mload\n    /* \"#utility.yul\":639:661   */\n  swap1\n  pop\n    /* \"#utility.yul\":670:702   */\n  tag_28\n    /* \"#utility.yul\":696:701   */\n  dup2\n    /* \"#utility.yul\":670:702   */\n  tag_13\n  jump\t// in\ntag_28:\n    /* \"#utility.yul\":567:708   */\n  swap3\n  swap2\n  pop\n  pop\n  jump\t// out\n    /* \"#utility.yul\":714:840   */\ntag_15:\n    /* \"#utility.yul\":751:758   */\n  0x00\n    /* \"#utility.yul\":791:833   */\n  0xffffffffffffffffffffffffffffffffffffffff\n    /* \"#utility.yul\":784:789   */\n  dup3\n    /* \"#utility.yul\":780:834   */\n  and\n    /* \"#utility.yul\":769:834   */\n  swap1\n  pop\n    /* \"#utility.yul\":714:840   */\n  swap2\n  swap1\n  pop\n  jump\t// out\n    /* \"#utility.yul\":846:942   */\ntag_16:\n    /* \"#utility.yul\":883:890   */\n  0x00\n    /* \"#utility.yul\":912:936   */\n  tag_31\n    /* \"#utility.yul\":930:935   */\n  dup3\n    /* \"#utility.yul\":912:936   */\n  tag_15\n  jump\t// in\ntag_31:\n    /* \"#utility.yul\":901:936   */\n  swap1\n  pop\n    /* \"#utility.yul\":846:942   */\n  swap2\n  swap1\n  pop\n  jump\t// out\n    /* \"#utility.yul\":948:1070   */\ntag_17:\n    /* \"#utility.yul\":1021:1045   */\n  tag_33\n    /* \"#utility.yul\":1039:1044   */\n  dup2\n    /* \"#utility.yul\":1021:1045   */\n  tag_16\n  jump\t// in\ntag_33:\n    /* \"#utility.yul\":1014:1019   */\n  dup2\n    /* \"#utility.yul\":1011:1046   */\n  eq\n    /* \"#utility.yul\":1001:1064   */\n  tag_34\n  jumpi\n    /* \"#utility.yul\":1060:1061   */\n  0x00\n    /* \"#utility.yul\":1057:1058   */\n  dup1\n    /* \"#utility.yul\":1050:1062   */\n  revert\n    /* \"#utility.yul\":1001:1064   */\ntag_34:\n    /* \"#utility.yul\":948:1070   */\n  pop\n  jump\t// out\n    /* \"#utility.yul\":1076:1219   */\ntag_18:\n    /* \"#utility.yul\":1133:1138   */\n  0x00\n    /* \"#utility.yul\":1164:1170   */\n  dup2\n    /* \"#utility.yul\":1158:1171   */\n  mload\n    /* \"#utility.yul\":1149:1171   */\n  swap1\n  pop\n    /* \"#utility.yul\":1180:1213   */\n  tag_36\n    /* \"#utility.yul\":1207:1212   */\n  dup2\n    /* \"#utility.yul\":1180:1213   */\n  tag_17\n  jump\t// in\ntag_36:\n    /* \"#utility.yul\":1076:1219   */\n  swap3\n  swap2\n  pop\n  pop\n  jump\t// out\n    /* \"#utility.yul\":1225:1730   */\ntag_3:\n    /* \"#utility.yul\":1303:1309   */\n  0x00\n    /* \"#utility.yul\":1311:1317   */\n  dup1\n    /* \"#utility.yul\":1360:1362   */\n  0x40\n    /* \"#utility.yul\":1348:1357   */\n  dup4\n    /* \"#utility.yul\":1339:1346   */\n  dup6\n    /* \"#utility.yul\":1335:1358   */\n  sub\n    /* \"#utility.yul\":1331:1363   */\n  slt\n    /* \"#utility.yul\":1328:1447   */\n  iszero\n  tag_38\n  jumpi\n    /* \"#utility.yul\":1366:1445   */\n  tag_39\n  tag_10\n  jump\t// in\ntag_39:\n    /* \"#utility.yul\":1328:1447   */\ntag_38:\n    /* \"#utility.yul\":1486:1487   */\n  0x00\n    /* \"#utility.yul\":1511:1574   */\n  tag_40\n    /* \"#utility.yul\":1566:1573   */\n  dup6\n    /* \"#utility.yul\":1557:1563   */\n  dup3\n    /* \"#utility.yul\":1546:1555   */\n  dup7\n    /* \"#utility.yul\":1542:1564   */\n  add\n    /* \"#utility.yul\":1511:1574   */\n  tag_14\n  jump\t// in\ntag_40:\n    /* \"#utility.yul\":1501:1574   */\n  swap3\n  pop\n    /* \"#utility.yul\":1457:1584   */\n  pop\n    /* \"#utility.yul\":1623:1625   */\n  0x20\n    /* \"#utility.yul\":1649:1713   */\n  tag_41\n    /* \"#utility.yul\":1705:1712   */\n  dup6\n    /* \"#utility.yul\":1696:1702   */\n  dup3\n    /* \"#utility.yul\":1685:1694   */\n  dup7\n    /* \"#utility.yul\":1681:1703   */\n  add\n    /* \"#utility.yul\":1649:1713   */\n  tag_18\n  jump\t// in\ntag_41:\n    /* \"#utility.yul\":1639:1713   */\n  swap2\n  pop\n    /* \"#utility.yul\":1594:1723   */\n  pop\n    /* \"#utility.yul\":1225:1730   */\n  swap3\n  pop\n  swap3\n  swap1\n  pop\n  jump\t// out\n    /* \"contracts/Distribution.sol\":340:6213  contract Distribution is VRFConsumerBaseV2 {... */\ntag_8:\n  mload(0x80)\n  codecopy(0x00, dataOffset(sub_0), dataSize(sub_0))\n  0x00\n  assignImmutable(\"0xecb3d63bca2dac2f15cfd948f18f200abecc477e6036fc1499f13da50bed1ba1\")\n  return(0x00, dataSize(sub_0))\nstop\n\nsub_0: assembly {\n        /* \"contracts/Distribution.sol\":340:6213  contract Distribution is VRFConsumerBaseV2 {... */\n      mstore(0x40, 0x80)\n      callvalue\n      dup1\n      iszero\n      tag_1\n      jumpi\n      0x00\n      dup1\n      revert\n    tag_1:\n      pop\n      jumpi(tag_2, lt(calldatasize, 0x04))\n      shr(0xe0, calldataload(0x00))\n      dup1\n      0x55a373d6\n      gt\n      tag_12\n      jumpi\n      dup1\n      0x55a373d6\n      eq\n      tag_7\n      jumpi\n      dup1\n      0x8e3957d9\n      eq\n      tag_8\n      jumpi\n      dup1\n      0xb47a1cd4\n      eq\n      tag_9\n      jumpi\n      dup1\n      0xebe50d6f\n      eq\n      tag_10\n      jumpi\n      dup1\n      0xfbf4a367\n      eq\n      tag_11\n      jumpi\n      jump(tag_2)\n    tag_12:\n      dup1\n      0x19e5bf3a\n      eq\n      tag_3\n      jumpi\n      dup1\n      0x1fe543e3\n      eq\n      tag_4\n      jumpi\n      dup1\n      0x35c1d349\n      eq\n      tag_5\n      jumpi\n      dup1\n      0x3f6b6f2e\n      eq\n      tag_6\n      jumpi\n    tag_2:\n      0x00\n      dup1\n      revert\n        /* \"contracts/Distribution.sol\":2117:2509  function Register() external {... */\n    tag_3:\n      tag_13\n      tag_14\n      jump\t// in\n    tag_13:\n      stop\n        /* \"@chainlink/contracts/src/v0.8/vrf/VRFConsumerBaseV2.sol\":6618:6874  function rawFulfillRandomWords(uint256 requestId, uint256[] memory randomWords) external {... */\n    tag_4:\n      tag_15\n      0x04\n      dup1\n      calldatasize\n      sub\n      dup2\n      add\n      swap1\n      tag_16\n      swap2\n      swap1\n      tag_17\n      jump\t// in\n    tag_16:\n      tag_18\n      jump\t// in\n    tag_15:\n      stop\n        /* \"contracts/Distribution.sol\":1926:1965  ParticipantStruct[] public participants */\n    tag_5:\n      tag_19\n      0x04\n      dup1\n      calldatasize\n      sub\n      dup2\n      add\n      swap1\n      tag_20\n      swap2\n      swap1\n      tag_21\n      jump\t// in\n    tag_20:\n      tag_22\n      jump\t// in\n    tag_19:\n      mload(0x40)\n      tag_23\n      swap3\n      swap2\n      swap1\n      tag_24\n      jump\t// in\n    tag_23:\n      mload(0x40)\n      dup1\n      swap2\n      sub\n      swap1\n      return\n        /* \"contracts/Distribution.sol\":6134:6211  function Airdrop() external onlyOwner {... */\n    tag_6:\n      tag_25\n      tag_26\n      jump\t// in\n    tag_25:\n      stop\n        /* \"contracts/Distribution.sol\":389:416  IERC20 public tokenContract */\n    tag_7:\n      tag_27\n      tag_28\n      jump\t// in\n    tag_27:\n      mload(0x40)\n      tag_29\n      swap2\n      swap1\n      tag_30\n      jump\t// in\n    tag_29:\n      mload(0x40)\n      dup1\n      swap2\n      sub\n      swap1\n      return\n        /* \"contracts/Distribution.sol\":1635:1662  uint256 public RandomNumber */\n    tag_8:\n      tag_31\n      tag_32\n      jump\t// in\n    tag_31:\n      mload(0x40)\n      tag_33\n      swap2\n      swap1\n      tag_34\n      jump\t// in\n    tag_33:\n      mload(0x40)\n      dup1\n      swap2\n      sub\n      swap1\n      return\n        /* \"contracts/Distribution.sol\":2515:3172  function PerformTaskOne() external {... */\n    tag_9:\n      tag_35\n      tag_36\n      jump\t// in\n    tag_35:\n      stop\n        /* \"contracts/Distribution.sol\":6050:6128  function PrepareAirdrop() external onlyOwner {... */\n    tag_10:\n      tag_37\n      tag_38\n      jump\t// in\n    tag_37:\n      stop\n        /* \"contracts/Distribution.sol\":1972:2025  mapping(address => uint256) public taskPerformedIndex */\n    tag_11:\n      tag_39\n      0x04\n      dup1\n      calldatasize\n      sub\n      dup2\n      add\n      swap1\n      tag_40\n      swap2\n      swap1\n      tag_41\n      jump\t// in\n    tag_40:\n      tag_42\n      jump\t// in\n    tag_39:\n      mload(0x40)\n      tag_43\n      swap2\n      swap1\n      tag_34\n      jump\t// in\n    tag_43:\n      mload(0x40)\n      dup1\n      swap2\n      sub\n      swap1\n      return\n        /* \"contracts/Distribution.sol\":2117:2509  function Register() external {... */\n    tag_14:\n        /* \"contracts/Distribution.sol\":2198:2199  0 */\n      0x00\n        /* \"contracts/Distribution.sol\":2164:2182  taskPerformedIndex */\n      0x07\n        /* \"contracts/Distribution.sol\":2164:2194  taskPerformedIndex[msg.sender] */\n      0x00\n        /* \"contracts/Distribution.sol\":2183:2193  msg.sender */\n      caller\n        /* \"contracts/Distribution.sol\":2164:2194  taskPerformedIndex[msg.sender] */\n      0xffffffffffffffffffffffffffffffffffffffff\n      and\n      0xffffffffffffffffffffffffffffffffffffffff\n      and\n      dup2\n      mstore\n      0x20\n      add\n      swap1\n      dup2\n      mstore\n      0x20\n      add\n      0x00\n      keccak256\n      sload\n        /* \"contracts/Distribution.sol\":2164:2199  taskPerformedIndex[msg.sender] == 0 */\n      eq\n        /* \"contracts/Distribution.sol\":2156:2221  require(taskPerformedIndex[msg.sender] == 0, \"Already registerd\") */\n      tag_45\n      jumpi\n      mload(0x40)\n      0x08c379a000000000000000000000000000000000000000000000000000000000\n      dup2\n      mstore\n      0x04\n      add\n      tag_46\n      swap1\n      tag_47\n      jump\t// in\n    tag_46:\n      mload(0x40)\n      dup1\n      swap2\n      sub\n      swap1\n      revert\n    tag_45:\n        /* \"contracts/Distribution.sol\":2232:2244  participants */\n      0x06\n        /* \"contracts/Distribution.sol\":2250:2282  ParticipantStruct(msg.sender, 0) */\n      mload(0x40)\n      dup1\n      0x40\n      add\n      0x40\n      mstore\n      dup1\n        /* \"contracts/Distribution.sol\":2268:2278  msg.sender */\n      caller\n        /* \"contracts/Distribution.sol\":2250:2282  ParticipantStruct(msg.sender, 0) */\n      0xffffffffffffffffffffffffffffffffffffffff\n      and\n      dup2\n      mstore\n      0x20\n      add\n        /* \"contracts/Distribution.sol\":2280:2281  0 */\n      0x00\n        /* \"contracts/Distribution.sol\":2250:2282  ParticipantStruct(msg.sender, 0) */\n      dup2\n      mstore\n      pop\n        /* \"contracts/Distribution.sol\":2232:2283  participants.push(ParticipantStruct(msg.sender, 0)) */\n      swap1\n      dup1\n      0x01\n      dup2\n      sload\n      add\n      dup1\n      dup3\n      sstore\n      dup1\n      swap2\n      pop\n      pop\n      0x01\n      swap1\n      sub\n      swap1\n      0x00\n      mstore\n      keccak256(0x00, 0x20)\n      swap1\n      0x02\n      mul\n      add\n      0x00\n      swap1\n      swap2\n      swap1\n      swap2\n      swap1\n      swap2\n      pop\n      0x00\n      dup3\n      add\n      mload\n      dup2\n      0x00\n      add\n      exp(0x0100, 0x00)\n      dup2\n      sload\n      dup2\n      0xffffffffffffffffffffffffffffffffffffffff\n      mul\n      not\n      and\n      swap1\n      dup4\n      0xffffffffffffffffffffffffffffffffffffffff\n      and\n      mul\n      or\n      swap1\n      sstore\n      pop\n      0x20\n      dup3\n      add\n      mload\n      dup2\n      0x01\n      add\n      sstore\n      pop\n      pop\n        /* \"contracts/Distribution.sol\":2327:2339  participants */\n      0x06\n        /* \"contracts/Distribution.sol\":2327:2346  participants.length */\n      dup1\n      sload\n      swap1\n      pop\n        /* \"contracts/Distribution.sol\":2294:2312  taskPerformedIndex */\n      0x07\n        /* \"contracts/Distribution.sol\":2294:2324  taskPerformedIndex[msg.sender] */\n      0x00\n        /* \"contracts/Distribution.sol\":2313:2323  msg.sender */\n      caller\n        /* \"contracts/Distribution.sol\":2294:2324  taskPerformedIndex[msg.sender] */\n      0xffffffffffffffffffffffffffffffffffffffff\n      and\n      0xffffffffffffffffffffffffffffffffffffffff\n      and\n      dup2\n      mstore\n      0x20\n      add\n      swap1\n      dup2\n      mstore\n      0x20\n      add\n      0x00\n      keccak256\n        /* \"contracts/Distribution.sol\":2294:2346  taskPerformedIndex[msg.sender] = participants.length */\n      dup2\n      swap1\n      sstore\n      pop\n        /* \"contracts/Distribution.sol\":2117:2509  function Register() external {... */\n      jump\t// out\n        /* \"@chainlink/contracts/src/v0.8/vrf/VRFConsumerBaseV2.sol\":6618:6874  function rawFulfillRandomWords(uint256 requestId, uint256[] memory randomWords) external {... */\n    tag_18:\n        /* \"@chainlink/contracts/src/v0.8/vrf/VRFConsumerBaseV2.sol\":6731:6745  vrfCoordinator */\n      immutable(\"0xecb3d63bca2dac2f15cfd948f18f200abecc477e6036fc1499f13da50bed1ba1\")\n        /* \"@chainlink/contracts/src/v0.8/vrf/VRFConsumerBaseV2.sol\":6717:6745  msg.sender != vrfCoordinator */\n      0xffffffffffffffffffffffffffffffffffffffff\n      and\n        /* \"@chainlink/contracts/src/v0.8/vrf/VRFConsumerBaseV2.sol\":6717:6727  msg.sender */\n      caller\n        /* \"@chainlink/contracts/src/v0.8/vrf/VRFConsumerBaseV2.sol\":6717:6745  msg.sender != vrfCoordinator */\n      0xffffffffffffffffffffffffffffffffffffffff\n      and\n      eq\n        /* \"@chainlink/contracts/src/v0.8/vrf/VRFConsumerBaseV2.sol\":6713:6822  if (msg.sender != vrfCoordinator) {... */\n      tag_50\n      jumpi\n        /* \"@chainlink/contracts/src/v0.8/vrf/VRFConsumerBaseV2.sol\":6788:6798  msg.sender */\n      caller\n        /* \"@chainlink/contracts/src/v0.8/vrf/VRFConsumerBaseV2.sol\":6800:6814  vrfCoordinator */\n      immutable(\"0xecb3d63bca2dac2f15cfd948f18f200abecc477e6036fc1499f13da50bed1ba1\")\n        /* \"@chainlink/contracts/src/v0.8/vrf/VRFConsumerBaseV2.sol\":6762:6815  OnlyCoordinatorCanFulfill(msg.sender, vrfCoordinator) */\n      mload(0x40)\n      0x1cf993f400000000000000000000000000000000000000000000000000000000\n      dup2\n      mstore\n      0x04\n      add\n      tag_51\n      swap3\n      swap2\n      swap1\n      tag_52\n      jump\t// in\n    tag_51:\n      mload(0x40)\n      dup1\n      swap2\n      sub\n      swap1\n      revert\n        /* \"@chainlink/contracts/src/v0.8/vrf/VRFConsumerBaseV2.sol\":6713:6822  if (msg.sender != vrfCoordinator) {... */\n    tag_50:\n        /* \"@chainlink/contracts/src/v0.8/vrf/VRFConsumerBaseV2.sol\":6827:6869  fulfillRandomWords(requestId, randomWords) */\n      tag_53\n        /* \"@chainlink/contracts/src/v0.8/vrf/VRFConsumerBaseV2.sol\":6846:6855  requestId */\n      dup3\n        /* \"@chainlink/contracts/src/v0.8/vrf/VRFConsumerBaseV2.sol\":6857:6868  randomWords */\n      dup3\n        /* \"@chainlink/contracts/src/v0.8/vrf/VRFConsumerBaseV2.sol\":6827:6845  fulfillRandomWords */\n      tag_54\n        /* \"@chainlink/contracts/src/v0.8/vrf/VRFConsumerBaseV2.sol\":6827:6869  fulfillRandomWords(requestId, randomWords) */\n      jump\t// in\n    tag_53:\n        /* \"@chainlink/contracts/src/v0.8/vrf/VRFConsumerBaseV2.sol\":6618:6874  function rawFulfillRandomWords(uint256 requestId, uint256[] memory randomWords) external {... */\n      pop\n      pop\n      jump\t// out\n        /* \"contracts/Distribution.sol\":1926:1965  ParticipantStruct[] public participants */\n    tag_22:\n      0x06\n      dup2\n      dup2\n      sload\n      dup2\n      lt\n      tag_55\n      jumpi\n      0x00\n      dup1\n      revert\n    tag_55:\n      swap1\n      0x00\n      mstore\n      keccak256(0x00, 0x20)\n      swap1\n      0x02\n      mul\n      add\n      0x00\n      swap2\n      pop\n      swap1\n      pop\n      dup1\n      0x00\n      add\n      0x00\n      swap1\n      sload\n      swap1\n      0x0100\n      exp\n      swap1\n      div\n      0xffffffffffffffffffffffffffffffffffffffff\n      and\n      swap1\n      dup1\n      0x01\n      add\n      sload\n      swap1\n      pop\n      dup3\n      jump\t// out\n        /* \"contracts/Distribution.sol\":6134:6211  function Airdrop() external onlyOwner {... */\n    tag_26:\n        /* \"contracts/Distribution.sol\":2085:2092  s_owner */\n      0x04\n      0x0a\n      swap1\n      sload\n      swap1\n      0x0100\n      exp\n      swap1\n      div\n      0xffffffffffffffffffffffffffffffffffffffff\n      and\n        /* \"contracts/Distribution.sol\":2071:2092  msg.sender == s_owner */\n      0xffffffffffffffffffffffffffffffffffffffff\n      and\n        /* \"contracts/Distribution.sol\":2071:2081  msg.sender */\n      caller\n        /* \"contracts/Distribution.sol\":2071:2092  msg.sender == s_owner */\n      0xffffffffffffffffffffffffffffffffffffffff\n      and\n      eq\n        /* \"contracts/Distribution.sol\":2063:2093  require(msg.sender == s_owner) */\n      tag_58\n      jumpi\n      0x00\n      dup1\n      revert\n    tag_58:\n        /* \"contracts/Distribution.sol\":6182:6204  _performDistribution() */\n      tag_60\n        /* \"contracts/Distribution.sol\":6182:6202  _performDistribution */\n      tag_61\n        /* \"contracts/Distribution.sol\":6182:6204  _performDistribution() */\n      jump\t// in\n    tag_60:\n        /* \"contracts/Distribution.sol\":6134:6211  function Airdrop() external onlyOwner {... */\n      jump\t// out\n        /* \"contracts/Distribution.sol\":389:416  IERC20 public tokenContract */\n    tag_28:\n      0x00\n      dup1\n      sload\n      swap1\n      0x0100\n      exp\n      swap1\n      div\n      0xffffffffffffffffffffffffffffffffffffffff\n      and\n      dup2\n      jump\t// out\n        /* \"contracts/Distribution.sol\":1635:1662  uint256 public RandomNumber */\n    tag_32:\n      sload(0x05)\n      dup2\n      jump\t// out\n        /* \"contracts/Distribution.sol\":2515:3172  function PerformTaskOne() external {... */\n    tag_36:\n        /* \"contracts/Distribution.sol\":2560:2588  _performTask(msg.sender, 10) */\n      tag_63\n        /* \"contracts/Distribution.sol\":2573:2583  msg.sender */\n      caller\n        /* \"contracts/Distribution.sol\":2585:2587  10 */\n      0x0a\n        /* \"contracts/Distribution.sol\":2560:2572  _performTask */\n      tag_64\n        /* \"contracts/Distribution.sol\":2560:2588  _performTask(msg.sender, 10) */\n      jump\t// in\n    tag_63:\n        /* \"contracts/Distribution.sol\":2515:3172  function PerformTaskOne() external {... */\n      jump\t// out\n        /* \"contracts/Distribution.sol\":6050:6128  function PrepareAirdrop() external onlyOwner {... */\n    tag_38:\n        /* \"contracts/Distribution.sol\":2085:2092  s_owner */\n      0x04\n      0x0a\n      swap1\n      sload\n      swap1\n      0x0100\n      exp\n      swap1\n      div\n      0xffffffffffffffffffffffffffffffffffffffff\n      and\n        /* \"contracts/Distribution.sol\":2071:2092  msg.sender == s_owner */\n      0xffffffffffffffffffffffffffffffffffffffff\n      and\n        /* \"contracts/Distribution.sol\":2071:2081  msg.sender */\n      caller\n        /* \"contracts/Distribution.sol\":2071:2092  msg.sender == s_owner */\n      0xffffffffffffffffffffffffffffffffffffffff\n      and\n      eq\n        /* \"contracts/Distribution.sol\":2063:2093  require(msg.sender == s_owner) */\n      tag_66\n      jumpi\n      0x00\n      dup1\n      revert\n    tag_66:\n        /* \"contracts/Distribution.sol\":6105:6121  _randomWinners() */\n      tag_68\n        /* \"contracts/Distribution.sol\":6105:6119  _randomWinners */\n      tag_69\n        /* \"contracts/Distribution.sol\":6105:6121  _randomWinners() */\n      jump\t// in\n    tag_68:\n      pop\n        /* \"contracts/Distribution.sol\":6050:6128  function PrepareAirdrop() external onlyOwner {... */\n      jump\t// out\n        /* \"contracts/Distribution.sol\":1972:2025  mapping(address => uint256) public taskPerformedIndex */\n    tag_42:\n      mstore(0x20, 0x07)\n      dup1\n      0x00\n      mstore\n      keccak256(0x00, 0x40)\n      0x00\n      swap2\n      pop\n      swap1\n      pop\n      sload\n      dup2\n      jump\t// out\n        /* \"contracts/Distribution.sol\":5749:6044  function fulfillRandomWords(... */\n    tag_54:\n        /* \"contracts/Distribution.sol\":5913:5925  participants */\n      0x06\n        /* \"contracts/Distribution.sol\":5913:5932  participants.length */\n      dup1\n      sload\n      swap1\n      pop\n        /* \"contracts/Distribution.sol\":5896:5907  randomWords */\n      dup2\n        /* \"contracts/Distribution.sol\":5908:5909  0 */\n      0x00\n        /* \"contracts/Distribution.sol\":5896:5910  randomWords[0] */\n      dup2\n      mload\n      dup2\n      lt\n      tag_71\n      jumpi\n      tag_72\n      tag_73\n      jump\t// in\n    tag_72:\n    tag_71:\n      0x20\n      mul\n      0x20\n      add\n      add\n      mload\n        /* \"contracts/Distribution.sol\":5896:5932  randomWords[0] % participants.length */\n      tag_74\n      swap2\n      swap1\n      tag_75\n      jump\t// in\n    tag_74:\n        /* \"contracts/Distribution.sol\":5880:5892  RandomNumber */\n      0x05\n        /* \"contracts/Distribution.sol\":5880:5933  RandomNumber = (randomWords[0] % participants.length) */\n      dup2\n      swap1\n      sstore\n      pop\n        /* \"contracts/Distribution.sol\":5749:6044  function fulfillRandomWords(... */\n      pop\n      pop\n      jump\t// out\n        /* \"contracts/Distribution.sol\":4106:5146  function _performDistribution() internal {... */\n    tag_61:\n        /* \"contracts/Distribution.sol\":4377:4408  uint256 totalTokensToDistribute */\n      0x00\n        /* \"contracts/Distribution.sol\":4411:4420  1000 * 10 */\n      0x2710\n        /* \"contracts/Distribution.sol\":4377:4420  uint256 totalTokensToDistribute = 1000 * 10 */\n      swap1\n      pop\n        /* \"contracts/Distribution.sol\":4460:4488  uint256 numberOfTopAddresses */\n      0x00\n        /* \"contracts/Distribution.sol\":4491:4503  RandomNumber */\n      sload(0x05)\n        /* \"contracts/Distribution.sol\":4460:4503  uint256 numberOfTopAddresses = RandomNumber */\n      swap1\n      pop\n        /* \"contracts/Distribution.sol\":4564:4577  tokenContract */\n      0x00\n      dup1\n      sload\n      swap1\n      0x0100\n      exp\n      swap1\n      div\n      0xffffffffffffffffffffffffffffffffffffffff\n      and\n        /* \"contracts/Distribution.sol\":4564:4585  tokenContract.approve */\n      0xffffffffffffffffffffffffffffffffffffffff\n      and\n      0x095ea7b3\n        /* \"contracts/Distribution.sol\":4594:4598  this */\n      address\n        /* \"contracts/Distribution.sol\":4601:4624  totalTokensToDistribute */\n      dup5\n        /* \"contracts/Distribution.sol\":4564:4625  tokenContract.approve(address(this), totalTokensToDistribute) */\n      mload(0x40)\n      dup4\n      0xffffffff\n      and\n      0xe0\n      shl\n      dup2\n      mstore\n      0x04\n      add\n      tag_77\n      swap3\n      swap2\n      swap1\n      tag_24\n      jump\t// in\n    tag_77:\n      0x20\n      mload(0x40)\n      dup1\n      dup4\n      sub\n      dup2\n      0x00\n      dup8\n      gas\n      call\n      iszero\n      dup1\n      iszero\n      tag_79\n      jumpi\n      returndatasize\n      0x00\n      dup1\n      returndatacopy\n      revert(0x00, returndatasize)\n    tag_79:\n      pop\n      pop\n      pop\n      pop\n      mload(0x40)\n      returndatasize\n      not(0x1f)\n      0x1f\n      dup3\n      add\n      and\n      dup3\n      add\n      dup1\n      0x40\n      mstore\n      pop\n      dup2\n      add\n      swap1\n      tag_80\n      swap2\n      swap1\n      tag_81\n      jump\t// in\n    tag_80:\n      pop\n        /* \"contracts/Distribution.sol\":4680:4708  uint256 tokensPerParticipant */\n      0x00\n        /* \"contracts/Distribution.sol\":4749:4769  numberOfTopAddresses */\n      dup2\n        /* \"contracts/Distribution.sol\":4711:4734  totalTokensToDistribute */\n      dup4\n        /* \"contracts/Distribution.sol\":4711:4769  totalTokensToDistribute /... */\n      tag_82\n      swap2\n      swap1\n      tag_83\n      jump\t// in\n    tag_82:\n        /* \"contracts/Distribution.sol\":4680:4769  uint256 tokensPerParticipant = totalTokensToDistribute /... */\n      swap1\n      pop\n        /* \"contracts/Distribution.sol\":4831:4840  uint256 i */\n      0x00\n        /* \"contracts/Distribution.sol\":4826:5140  for (uint256 i = 0; i < numberOfTopAddresses; i++) {... */\n    tag_84:\n        /* \"contracts/Distribution.sol\":4850:4870  numberOfTopAddresses */\n      dup3\n        /* \"contracts/Distribution.sol\":4846:4847  i */\n      dup2\n        /* \"contracts/Distribution.sol\":4846:4870  i < numberOfTopAddresses */\n      lt\n        /* \"contracts/Distribution.sol\":4826:5140  for (uint256 i = 0; i < numberOfTopAddresses; i++) {... */\n      iszero\n      tag_85\n      jumpi\n        /* \"contracts/Distribution.sol\":4891:4913  uint256 adjustedTokens */\n      0x00\n        /* \"contracts/Distribution.sol\":4916:5014  calculateAdjustedTokens(... */\n      tag_87\n        /* \"contracts/Distribution.sol\":4961:4962  1 */\n      0x01\n        /* \"contracts/Distribution.sol\":4957:4958  i */\n      dup4\n        /* \"contracts/Distribution.sol\":4957:4962  i + 1 */\n      tag_88\n      swap2\n      swap1\n      tag_89\n      jump\t// in\n    tag_88:\n        /* \"contracts/Distribution.sol\":4980:5000  tokensPerParticipant */\n      dup5\n        /* \"contracts/Distribution.sol\":4916:4939  calculateAdjustedTokens */\n      tag_90\n        /* \"contracts/Distribution.sol\":4916:5014  calculateAdjustedTokens(... */\n      jump\t// in\n    tag_87:\n        /* \"contracts/Distribution.sol\":4891:5014  uint256 adjustedTokens = calculateAdjustedTokens(... */\n      swap1\n      pop\n        /* \"contracts/Distribution.sol\":5062:5075  tokenContract */\n      0x00\n      dup1\n      sload\n      swap1\n      0x0100\n      exp\n      swap1\n      div\n      0xffffffffffffffffffffffffffffffffffffffff\n      and\n        /* \"contracts/Distribution.sol\":5062:5084  tokenContract.transfer */\n      0xffffffffffffffffffffffffffffffffffffffff\n      and\n      0xa9059cbb\n        /* \"contracts/Distribution.sol\":5085:5097  participants */\n      0x06\n        /* \"contracts/Distribution.sol\":5098:5099  i */\n      dup5\n        /* \"contracts/Distribution.sol\":5085:5100  participants[i] */\n      dup2\n      sload\n      dup2\n      lt\n      tag_91\n      jumpi\n      tag_92\n      tag_73\n      jump\t// in\n    tag_92:\n    tag_91:\n      swap1\n      0x00\n      mstore\n      keccak256(0x00, 0x20)\n      swap1\n      0x02\n      mul\n      add\n        /* \"contracts/Distribution.sol\":5085:5112  participants[i].Participant */\n      0x00\n      add\n      0x00\n      swap1\n      sload\n      swap1\n      0x0100\n      exp\n      swap1\n      div\n      0xffffffffffffffffffffffffffffffffffffffff\n      and\n        /* \"contracts/Distribution.sol\":5114:5128  adjustedTokens */\n      dup4\n        /* \"contracts/Distribution.sol\":5062:5129  tokenContract.transfer(participants[i].Participant, adjustedTokens) */\n      mload(0x40)\n      dup4\n      0xffffffff\n      and\n      0xe0\n      shl\n      dup2\n      mstore\n      0x04\n      add\n      tag_94\n      swap3\n      swap2\n      swap1\n      tag_24\n      jump\t// in\n    tag_94:\n      0x20\n      mload(0x40)\n      dup1\n      dup4\n      sub\n      dup2\n      0x00\n      dup8\n      gas\n      call\n      iszero\n      dup1\n      iszero\n      tag_96\n      jumpi\n      returndatasize\n      0x00\n      dup1\n      returndatacopy\n      revert(0x00, returndatasize)\n    tag_96:\n      pop\n      pop\n      pop\n      pop\n      mload(0x40)\n      returndatasize\n      not(0x1f)\n      0x1f\n      dup3\n      add\n      and\n      dup3\n      add\n      dup1\n      0x40\n      mstore\n      pop\n      dup2\n      add\n      swap1\n      tag_97\n      swap2\n      swap1\n      tag_81\n      jump\t// in\n    tag_97:\n      pop\n        /* \"contracts/Distribution.sol\":4877:5140  {... */\n      pop\n        /* \"contracts/Distribution.sol\":4872:4875  i++ */\n      dup1\n      dup1\n      0x01\n      add\n      swap2\n      pop\n      pop\n        /* \"contracts/Distribution.sol\":4826:5140  for (uint256 i = 0; i < numberOfTopAddresses; i++) {... */\n      jump(tag_84)\n    tag_85:\n      pop\n        /* \"contracts/Distribution.sol\":4147:5146  {... */\n      pop\n      pop\n      pop\n        /* \"contracts/Distribution.sol\":4106:5146  function _performDistribution() internal {... */\n      jump\t// out\n        /* \"contracts/Distribution.sol\":3270:3579  function _performTask(address _user, uint256 _point) internal {... */\n    tag_64:\n        /* \"contracts/Distribution.sol\":3342:3355  uint256 index */\n      0x00\n        /* \"contracts/Distribution.sol\":3358:3376  taskPerformedIndex */\n      0x07\n        /* \"contracts/Distribution.sol\":3358:3383  taskPerformedIndex[_user] */\n      0x00\n        /* \"contracts/Distribution.sol\":3377:3382  _user */\n      dup5\n        /* \"contracts/Distribution.sol\":3358:3383  taskPerformedIndex[_user] */\n      0xffffffffffffffffffffffffffffffffffffffff\n      and\n      0xffffffffffffffffffffffffffffffffffffffff\n      and\n      dup2\n      mstore\n      0x20\n      add\n      swap1\n      dup2\n      mstore\n      0x20\n      add\n      0x00\n      keccak256\n      sload\n        /* \"contracts/Distribution.sol\":3342:3383  uint256 index = taskPerformedIndex[_user] */\n      swap1\n      pop\n        /* \"contracts/Distribution.sol\":3409:3410  0 */\n      0x00\n        /* \"contracts/Distribution.sol\":3401:3406  index */\n      dup2\n        /* \"contracts/Distribution.sol\":3401:3410  index > 0 */\n      gt\n        /* \"contracts/Distribution.sol\":3393:3437  require(index > 0, \"Participant not found.\") */\n      tag_99\n      jumpi\n      mload(0x40)\n      0x08c379a000000000000000000000000000000000000000000000000000000000\n      dup2\n      mstore\n      0x04\n      add\n      tag_100\n      swap1\n      tag_101\n      jump\t// in\n    tag_100:\n      mload(0x40)\n      dup1\n      swap2\n      sub\n      swap1\n      revert\n    tag_99:\n        /* \"contracts/Distribution.sol\":3537:3543  _point */\n      dup2\n        /* \"contracts/Distribution.sol\":3492:3504  participants */\n      0x06\n        /* \"contracts/Distribution.sol\":3513:3514  1 */\n      0x01\n        /* \"contracts/Distribution.sol\":3505:3510  index */\n      dup4\n        /* \"contracts/Distribution.sol\":3505:3514  index - 1 */\n      tag_102\n      swap2\n      swap1\n      tag_103\n      jump\t// in\n    tag_102:\n        /* \"contracts/Distribution.sol\":3492:3515  participants[index - 1] */\n      dup2\n      sload\n      dup2\n      lt\n      tag_104\n      jumpi\n      tag_105\n      tag_73\n      jump\t// in\n    tag_105:\n    tag_104:\n      swap1\n      0x00\n      mstore\n      keccak256(0x00, 0x20)\n      swap1\n      0x02\n      mul\n      add\n        /* \"contracts/Distribution.sol\":3492:3522  participants[index - 1].Points */\n      0x01\n      add\n      sload\n        /* \"contracts/Distribution.sol\":3492:3543  participants[index - 1].Points +... */\n      tag_107\n      swap2\n      swap1\n      tag_89\n      jump\t// in\n    tag_107:\n        /* \"contracts/Distribution.sol\":3447:3459  participants */\n      0x06\n        /* \"contracts/Distribution.sol\":3468:3469  1 */\n      0x01\n        /* \"contracts/Distribution.sol\":3460:3465  index */\n      dup4\n        /* \"contracts/Distribution.sol\":3460:3469  index - 1 */\n      tag_108\n      swap2\n      swap1\n      tag_103\n      jump\t// in\n    tag_108:\n        /* \"contracts/Distribution.sol\":3447:3470  participants[index - 1] */\n      dup2\n      sload\n      dup2\n      lt\n      tag_109\n      jumpi\n      tag_110\n      tag_73\n      jump\t// in\n    tag_110:\n    tag_109:\n      swap1\n      0x00\n      mstore\n      keccak256(0x00, 0x20)\n      swap1\n      0x02\n      mul\n      add\n        /* \"contracts/Distribution.sol\":3447:3477  participants[index - 1].Points */\n      0x01\n      add\n        /* \"contracts/Distribution.sol\":3447:3543  participants[index - 1].Points =... */\n      dup2\n      swap1\n      sstore\n      pop\n        /* \"contracts/Distribution.sol\":3553:3572  _sortParticipants() */\n      tag_112\n        /* \"contracts/Distribution.sol\":3553:3570  _sortParticipants */\n      tag_113\n        /* \"contracts/Distribution.sol\":3553:3572  _sortParticipants() */\n      jump\t// in\n    tag_112:\n        /* \"contracts/Distribution.sol\":3332:3579  {... */\n      pop\n        /* \"contracts/Distribution.sol\":3270:3579  function _performTask(address _user, uint256 _point) internal {... */\n      pop\n      pop\n      jump\t// out\n        /* \"contracts/Distribution.sol\":5436:5743  function _randomWinners() internal returns (uint256 requestId) {... */\n    tag_69:\n        /* \"contracts/Distribution.sol\":5480:5497  uint256 requestId */\n      0x00\n        /* \"contracts/Distribution.sol\":5557:5568  COORDINATOR */\n      0x01\n      0x00\n      swap1\n      sload\n      swap1\n      0x0100\n      exp\n      swap1\n      div\n      0xffffffffffffffffffffffffffffffffffffffff\n      and\n        /* \"contracts/Distribution.sol\":5557:5587  COORDINATOR.requestRandomWords */\n      0xffffffffffffffffffffffffffffffffffffffff\n      and\n      0x5d3b1d30\n        /* \"contracts/Distribution.sol\":5601:5610  s_keyHash */\n      sload(0x03)\n        /* \"contracts/Distribution.sol\":5624:5640  s_subscriptionId */\n      0x01\n      0x14\n      swap1\n      sload\n      swap1\n      0x0100\n      exp\n      swap1\n      div\n      0xffffffffffffffff\n      and\n        /* \"contracts/Distribution.sol\":5654:5674  requestConfirmations */\n      0x04\n      dup1\n      sload\n      swap1\n      0x0100\n      exp\n      swap1\n      div\n      0xffff\n      and\n        /* \"contracts/Distribution.sol\":5688:5704  callbackGasLimit */\n      0x04\n      0x00\n      swap1\n      sload\n      swap1\n      0x0100\n      exp\n      swap1\n      div\n      0xffffffff\n      and\n        /* \"contracts/Distribution.sol\":5718:5726  numWords */\n      0x04\n      0x06\n      swap1\n      sload\n      swap1\n      0x0100\n      exp\n      swap1\n      div\n      0xffffffff\n      and\n        /* \"contracts/Distribution.sol\":5557:5736  COORDINATOR.requestRandomWords(... */\n      mload(0x40)\n      dup7\n      0xffffffff\n      and\n      0xe0\n      shl\n      dup2\n      mstore\n      0x04\n      add\n      tag_115\n      swap6\n      swap5\n      swap4\n      swap3\n      swap2\n      swap1\n      tag_116\n      jump\t// in\n    tag_115:\n      0x20\n      mload(0x40)\n      dup1\n      dup4\n      sub\n      dup2\n      0x00\n      dup8\n      gas\n      call\n      iszero\n      dup1\n      iszero\n      tag_118\n      jumpi\n      returndatasize\n      0x00\n      dup1\n      returndatacopy\n      revert(0x00, returndatasize)\n    tag_118:\n      pop\n      pop\n      pop\n      pop\n      mload(0x40)\n      returndatasize\n      not(0x1f)\n      0x1f\n      dup3\n      add\n      and\n      dup3\n      add\n      dup1\n      0x40\n      mstore\n      pop\n      dup2\n      add\n      swap1\n      tag_119\n      swap2\n      swap1\n      tag_120\n      jump\t// in\n    tag_119:\n        /* \"contracts/Distribution.sol\":5545:5736  requestId = COORDINATOR.requestRandomWords(... */\n      swap1\n      pop\n        /* \"contracts/Distribution.sol\":5436:5743  function _randomWinners() internal returns (uint256 requestId) {... */\n      swap1\n      jump\t// out\n        /* \"contracts/Distribution.sol\":5152:5430  function calculateAdjustedTokens(... */\n    tag_90:\n        /* \"contracts/Distribution.sol\":5279:5286  uint256 */\n      0x00\n        /* \"contracts/Distribution.sol\":5414:5422  _ranking */\n      dup3\n        /* \"contracts/Distribution.sol\":5399:5411  RandomNumber */\n      sload(0x05)\n        /* \"contracts/Distribution.sol\":5399:5422  RandomNumber - _ranking */\n      tag_122\n      swap2\n      swap1\n      tag_103\n      jump\t// in\n    tag_122:\n        /* \"contracts/Distribution.sol\":5374:5395  _tokensPerParticipant */\n      dup3\n        /* \"contracts/Distribution.sol\":5374:5423  _tokensPerParticipant * (RandomNumber - _ranking) */\n      tag_123\n      swap2\n      swap1\n      tag_124\n      jump\t// in\n    tag_123:\n        /* \"contracts/Distribution.sol\":5367:5423  return _tokensPerParticipant * (RandomNumber - _ranking) */\n      swap1\n      pop\n        /* \"contracts/Distribution.sol\":5152:5430  function calculateAdjustedTokens(... */\n      swap3\n      swap2\n      pop\n      pop\n      jump\t// out\n        /* \"contracts/Distribution.sol\":3585:4100  function _sortParticipants() internal {... */\n    tag_113:\n        /* \"contracts/Distribution.sol\":3638:3647  uint256 i */\n      0x00\n        /* \"contracts/Distribution.sol\":3633:4094  for (uint256 i = 0; i < participants.length - 1; i++) {... */\n    tag_126:\n        /* \"contracts/Distribution.sol\":3679:3680  1 */\n      0x01\n        /* \"contracts/Distribution.sol\":3657:3669  participants */\n      0x06\n        /* \"contracts/Distribution.sol\":3657:3676  participants.length */\n      dup1\n      sload\n      swap1\n      pop\n        /* \"contracts/Distribution.sol\":3657:3680  participants.length - 1 */\n      tag_129\n      swap2\n      swap1\n      tag_103\n      jump\t// in\n    tag_129:\n        /* \"contracts/Distribution.sol\":3653:3654  i */\n      dup2\n        /* \"contracts/Distribution.sol\":3653:3680  i < participants.length - 1 */\n      lt\n        /* \"contracts/Distribution.sol\":3633:4094  for (uint256 i = 0; i < participants.length - 1; i++) {... */\n      iszero\n      tag_127\n      jumpi\n        /* \"contracts/Distribution.sol\":3706:3715  uint256 j */\n      0x00\n        /* \"contracts/Distribution.sol\":3701:4084  for (uint256 j = 0; j < participants.length - i - 1; j++) {... */\n    tag_130:\n        /* \"contracts/Distribution.sol\":3751:3752  1 */\n      0x01\n        /* \"contracts/Distribution.sol\":3747:3748  i */\n      dup3\n        /* \"contracts/Distribution.sol\":3725:3737  participants */\n      0x06\n        /* \"contracts/Distribution.sol\":3725:3744  participants.length */\n      dup1\n      sload\n      swap1\n      pop\n        /* \"contracts/Distribution.sol\":3725:3748  participants.length - i */\n      tag_133\n      swap2\n      swap1\n      tag_103\n      jump\t// in\n    tag_133:\n        /* \"contracts/Distribution.sol\":3725:3752  participants.length - i - 1 */\n      tag_134\n      swap2\n      swap1\n      tag_103\n      jump\t// in\n    tag_134:\n        /* \"contracts/Distribution.sol\":3721:3722  j */\n      dup2\n        /* \"contracts/Distribution.sol\":3721:3752  j < participants.length - i - 1 */\n      lt\n        /* \"contracts/Distribution.sol\":3701:4084  for (uint256 j = 0; j < participants.length - i - 1; j++) {... */\n      iszero\n      tag_131\n      jumpi\n        /* \"contracts/Distribution.sol\":3806:3818  participants */\n      0x06\n        /* \"contracts/Distribution.sol\":3823:3824  1 */\n      0x01\n        /* \"contracts/Distribution.sol\":3819:3820  j */\n      dup3\n        /* \"contracts/Distribution.sol\":3819:3824  j + 1 */\n      tag_135\n      swap2\n      swap1\n      tag_89\n      jump\t// in\n    tag_135:\n        /* \"contracts/Distribution.sol\":3806:3825  participants[j + 1] */\n      dup2\n      sload\n      dup2\n      lt\n      tag_136\n      jumpi\n      tag_137\n      tag_73\n      jump\t// in\n    tag_137:\n    tag_136:\n      swap1\n      0x00\n      mstore\n      keccak256(0x00, 0x20)\n      swap1\n      0x02\n      mul\n      add\n        /* \"contracts/Distribution.sol\":3806:3832  participants[j + 1].Points */\n      0x01\n      add\n      sload\n        /* \"contracts/Distribution.sol\":3781:3793  participants */\n      0x06\n        /* \"contracts/Distribution.sol\":3794:3795  j */\n      dup3\n        /* \"contracts/Distribution.sol\":3781:3796  participants[j] */\n      dup2\n      sload\n      dup2\n      lt\n      tag_139\n      jumpi\n      tag_140\n      tag_73\n      jump\t// in\n    tag_140:\n    tag_139:\n      swap1\n      0x00\n      mstore\n      keccak256(0x00, 0x20)\n      swap1\n      0x02\n      mul\n      add\n        /* \"contracts/Distribution.sol\":3781:3803  participants[j].Points */\n      0x01\n      add\n      sload\n        /* \"contracts/Distribution.sol\":3781:3832  participants[j].Points < participants[j + 1].Points */\n      lt\n        /* \"contracts/Distribution.sol\":3777:4070  if (participants[j].Points < participants[j + 1].Points) {... */\n      iszero\n      tag_142\n      jumpi\n        /* \"contracts/Distribution.sol\":3897:3926  ParticipantStruct memory temp */\n      0x00\n        /* \"contracts/Distribution.sol\":3929:3941  participants */\n      0x06\n        /* \"contracts/Distribution.sol\":3942:3943  j */\n      dup3\n        /* \"contracts/Distribution.sol\":3929:3944  participants[j] */\n      dup2\n      sload\n      dup2\n      lt\n      tag_143\n      jumpi\n      tag_144\n      tag_73\n      jump\t// in\n    tag_144:\n    tag_143:\n      swap1\n      0x00\n      mstore\n      keccak256(0x00, 0x20)\n      swap1\n      0x02\n      mul\n      add\n        /* \"contracts/Distribution.sol\":3897:3944  ParticipantStruct memory temp = participants[j] */\n      mload(0x40)\n      dup1\n      0x40\n      add\n      0x40\n      mstore\n      swap1\n      dup2\n      0x00\n      dup3\n      add\n      0x00\n      swap1\n      sload\n      swap1\n      0x0100\n      exp\n      swap1\n      div\n      0xffffffffffffffffffffffffffffffffffffffff\n      and\n      0xffffffffffffffffffffffffffffffffffffffff\n      and\n      0xffffffffffffffffffffffffffffffffffffffff\n      and\n      dup2\n      mstore\n      0x20\n      add\n      0x01\n      dup3\n      add\n      sload\n      dup2\n      mstore\n      pop\n      pop\n      swap1\n      pop\n        /* \"contracts/Distribution.sol\":3984:3996  participants */\n      0x06\n        /* \"contracts/Distribution.sol\":4001:4002  1 */\n      0x01\n        /* \"contracts/Distribution.sol\":3997:3998  j */\n      dup4\n        /* \"contracts/Distribution.sol\":3997:4002  j + 1 */\n      tag_146\n      swap2\n      swap1\n      tag_89\n      jump\t// in\n    tag_146:\n        /* \"contracts/Distribution.sol\":3984:4003  participants[j + 1] */\n      dup2\n      sload\n      dup2\n      lt\n      tag_147\n      jumpi\n      tag_148\n      tag_73\n      jump\t// in\n    tag_148:\n    tag_147:\n      swap1\n      0x00\n      mstore\n      keccak256(0x00, 0x20)\n      swap1\n      0x02\n      mul\n      add\n        /* \"contracts/Distribution.sol\":3966:3978  participants */\n      0x06\n        /* \"contracts/Distribution.sol\":3979:3980  j */\n      dup4\n        /* \"contracts/Distribution.sol\":3966:3981  participants[j] */\n      dup2\n      sload\n      dup2\n      lt\n      tag_150\n      jumpi\n      tag_151\n      tag_73\n      jump\t// in\n    tag_151:\n    tag_150:\n      swap1\n      0x00\n      mstore\n      keccak256(0x00, 0x20)\n      swap1\n      0x02\n      mul\n      add\n        /* \"contracts/Distribution.sol\":3966:4003  participants[j] = participants[j + 1] */\n      0x00\n      dup3\n      add\n      0x00\n      swap1\n      sload\n      swap1\n      0x0100\n      exp\n      swap1\n      div\n      0xffffffffffffffffffffffffffffffffffffffff\n      and\n      dup2\n      0x00\n      add\n      exp(0x0100, 0x00)\n      dup2\n      sload\n      dup2\n      0xffffffffffffffffffffffffffffffffffffffff\n      mul\n      not\n      and\n      swap1\n      dup4\n      0xffffffffffffffffffffffffffffffffffffffff\n      and\n      mul\n      or\n      swap1\n      sstore\n      pop\n      0x01\n      dup3\n      add\n      sload\n      dup2\n      0x01\n      add\n      sstore\n      swap1\n      pop\n      pop\n        /* \"contracts/Distribution.sol\":4047:4051  temp */\n      dup1\n        /* \"contracts/Distribution.sol\":4025:4037  participants */\n      0x06\n        /* \"contracts/Distribution.sol\":4042:4043  1 */\n      0x01\n        /* \"contracts/Distribution.sol\":4038:4039  j */\n      dup5\n        /* \"contracts/Distribution.sol\":4038:4043  j + 1 */\n      tag_153\n      swap2\n      swap1\n      tag_89\n      jump\t// in\n    tag_153:\n        /* \"contracts/Distribution.sol\":4025:4044  participants[j + 1] */\n      dup2\n      sload\n      dup2\n      lt\n      tag_154\n      jumpi\n      tag_155\n      tag_73\n      jump\t// in\n    tag_155:\n    tag_154:\n      swap1\n      0x00\n      mstore\n      keccak256(0x00, 0x20)\n      swap1\n      0x02\n      mul\n      add\n        /* \"contracts/Distribution.sol\":4025:4051  participants[j + 1] = temp */\n      0x00\n      dup3\n      add\n      mload\n      dup2\n      0x00\n      add\n      exp(0x0100, 0x00)\n      dup2\n      sload\n      dup2\n      0xffffffffffffffffffffffffffffffffffffffff\n      mul\n      not\n      and\n      swap1\n      dup4\n      0xffffffffffffffffffffffffffffffffffffffff\n      and\n      mul\n      or\n      swap1\n      sstore\n      pop\n      0x20\n      dup3\n      add\n      mload\n      dup2\n      0x01\n      add\n      sstore\n      swap1\n      pop\n      pop\n        /* \"contracts/Distribution.sol\":3834:4070  {... */\n      pop\n        /* \"contracts/Distribution.sol\":3777:4070  if (participants[j].Points < participants[j + 1].Points) {... */\n    tag_142:\n        /* \"contracts/Distribution.sol\":3754:3757  j++ */\n      dup1\n      dup1\n      0x01\n      add\n      swap2\n      pop\n      pop\n        /* \"contracts/Distribution.sol\":3701:4084  for (uint256 j = 0; j < participants.length - i - 1; j++) {... */\n      jump(tag_130)\n    tag_131:\n      pop\n        /* \"contracts/Distribution.sol\":3682:3685  i++ */\n      dup1\n      dup1\n      0x01\n      add\n      swap2\n      pop\n      pop\n        /* \"contracts/Distribution.sol\":3633:4094  for (uint256 i = 0; i < participants.length - 1; i++) {... */\n      jump(tag_126)\n    tag_127:\n      pop\n        /* \"contracts/Distribution.sol\":3585:4100  function _sortParticipants() internal {... */\n      jump\t// out\n        /* \"#utility.yul\":7:82   */\n    tag_157:\n        /* \"#utility.yul\":40:46   */\n      0x00\n        /* \"#utility.yul\":73:75   */\n      0x40\n        /* \"#utility.yul\":67:76   */\n      mload\n        /* \"#utility.yul\":57:76   */\n      swap1\n      pop\n        /* \"#utility.yul\":7:82   */\n      swap1\n      jump\t// out\n        /* \"#utility.yul\":88:205   */\n    tag_158:\n        /* \"#utility.yul\":197:198   */\n      0x00\n        /* \"#utility.yul\":194:195   */\n      dup1\n        /* \"#utility.yul\":187:199   */\n      revert\n        /* \"#utility.yul\":211:328   */\n    tag_159:\n        /* \"#utility.yul\":320:321   */\n      0x00\n        /* \"#utility.yul\":317:318   */\n      dup1\n        /* \"#utility.yul\":310:322   */\n      revert\n        /* \"#utility.yul\":334:411   */\n    tag_160:\n        /* \"#utility.yul\":371:378   */\n      0x00\n        /* \"#utility.yul\":400:405   */\n      dup2\n        /* \"#utility.yul\":389:405   */\n      swap1\n      pop\n        /* \"#utility.yul\":334:411   */\n      swap2\n      swap1\n      pop\n      jump\t// out\n        /* \"#utility.yul\":417:539   */\n    tag_161:\n        /* \"#utility.yul\":490:514   */\n      tag_208\n        /* \"#utility.yul\":508:513   */\n      dup2\n        /* \"#utility.yul\":490:514   */\n      tag_160\n      jump\t// in\n    tag_208:\n        /* \"#utility.yul\":483:488   */\n      dup2\n        /* \"#utility.yul\":480:515   */\n      eq\n        /* \"#utility.yul\":470:533   */\n      tag_209\n      jumpi\n        /* \"#utility.yul\":529:530   */\n      0x00\n        /* \"#utility.yul\":526:527   */\n      dup1\n        /* \"#utility.yul\":519:531   */\n      revert\n        /* \"#utility.yul\":470:533   */\n    tag_209:\n        /* \"#utility.yul\":417:539   */\n      pop\n      jump\t// out\n        /* \"#utility.yul\":545:684   */\n    tag_162:\n        /* \"#utility.yul\":591:596   */\n      0x00\n        /* \"#utility.yul\":629:635   */\n      dup2\n        /* \"#utility.yul\":616:636   */\n      calldataload\n        /* \"#utility.yul\":607:636   */\n      swap1\n      pop\n        /* \"#utility.yul\":645:678   */\n      tag_211\n        /* \"#utility.yul\":672:677   */\n      dup2\n        /* \"#utility.yul\":645:678   */\n      tag_161\n      jump\t// in\n    tag_211:\n        /* \"#utility.yul\":545:684   */\n      swap3\n      swap2\n      pop\n      pop\n      jump\t// out\n        /* \"#utility.yul\":690:807   */\n    tag_163:\n        /* \"#utility.yul\":799:800   */\n      0x00\n        /* \"#utility.yul\":796:797   */\n      dup1\n        /* \"#utility.yul\":789:801   */\n      revert\n        /* \"#utility.yul\":813:915   */\n    tag_164:\n        /* \"#utility.yul\":854:860   */\n      0x00\n        /* \"#utility.yul\":905:907   */\n      0x1f\n        /* \"#utility.yul\":901:908   */\n      not\n        /* \"#utility.yul\":896:898   */\n      0x1f\n        /* \"#utility.yul\":889:894   */\n      dup4\n        /* \"#utility.yul\":885:899   */\n      add\n        /* \"#utility.yul\":881:909   */\n      and\n        /* \"#utility.yul\":871:909   */\n      swap1\n      pop\n        /* \"#utility.yul\":813:915   */\n      swap2\n      swap1\n      pop\n      jump\t// out\n        /* \"#utility.yul\":921:1101   */\n    tag_165:\n        /* \"#utility.yul\":969:1046   */\n      0x4e487b7100000000000000000000000000000000000000000000000000000000\n        /* \"#utility.yul\":966:967   */\n      0x00\n        /* \"#utility.yul\":959:1047   */\n      mstore\n        /* \"#utility.yul\":1066:1070   */\n      0x41\n        /* \"#utility.yul\":1063:1064   */\n      0x04\n        /* \"#utility.yul\":1056:1071   */\n      mstore\n        /* \"#utility.yul\":1090:1094   */\n      0x24\n        /* \"#utility.yul\":1087:1088   */\n      0x00\n        /* \"#utility.yul\":1080:1095   */\n      revert\n        /* \"#utility.yul\":1107:1388   */\n    tag_166:\n        /* \"#utility.yul\":1190:1217   */\n      tag_216\n        /* \"#utility.yul\":1212:1216   */\n      dup3\n        /* \"#utility.yul\":1190:1217   */\n      tag_164\n      jump\t// in\n    tag_216:\n        /* \"#utility.yul\":1182:1188   */\n      dup2\n        /* \"#utility.yul\":1178:1218   */\n      add\n        /* \"#utility.yul\":1320:1326   */\n      dup2\n        /* \"#utility.yul\":1308:1318   */\n      dup2\n        /* \"#utility.yul\":1305:1327   */\n      lt\n        /* \"#utility.yul\":1284:1302   */\n      0xffffffffffffffff\n        /* \"#utility.yul\":1272:1282   */\n      dup3\n        /* \"#utility.yul\":1269:1303   */\n      gt\n        /* \"#utility.yul\":1266:1328   */\n      or\n        /* \"#utility.yul\":1263:1351   */\n      iszero\n      tag_217\n      jumpi\n        /* \"#utility.yul\":1331:1349   */\n      tag_218\n      tag_165\n      jump\t// in\n    tag_218:\n        /* \"#utility.yul\":1263:1351   */\n    tag_217:\n        /* \"#utility.yul\":1371:1381   */\n      dup1\n        /* \"#utility.yul\":1367:1369   */\n      0x40\n        /* \"#utility.yul\":1360:1382   */\n      mstore\n        /* \"#utility.yul\":1150:1388   */\n      pop\n        /* \"#utility.yul\":1107:1388   */\n      pop\n      pop\n      jump\t// out\n        /* \"#utility.yul\":1394:1523   */\n    tag_167:\n        /* \"#utility.yul\":1428:1434   */\n      0x00\n        /* \"#utility.yul\":1455:1475   */\n      tag_220\n      tag_157\n      jump\t// in\n    tag_220:\n        /* \"#utility.yul\":1445:1475   */\n      swap1\n      pop\n        /* \"#utility.yul\":1484:1517   */\n      tag_221\n        /* \"#utility.yul\":1512:1516   */\n      dup3\n        /* \"#utility.yul\":1504:1510   */\n      dup3\n        /* \"#utility.yul\":1484:1517   */\n      tag_166\n      jump\t// in\n    tag_221:\n        /* \"#utility.yul\":1394:1523   */\n      swap2\n      swap1\n      pop\n      jump\t// out\n        /* \"#utility.yul\":1529:1840   */\n    tag_168:\n        /* \"#utility.yul\":1606:1610   */\n      0x00\n        /* \"#utility.yul\":1696:1714   */\n      0xffffffffffffffff\n        /* \"#utility.yul\":1688:1694   */\n      dup3\n        /* \"#utility.yul\":1685:1715   */\n      gt\n        /* \"#utility.yul\":1682:1738   */\n      iszero\n      tag_223\n      jumpi\n        /* \"#utility.yul\":1718:1736   */\n      tag_224\n      tag_165\n      jump\t// in\n    tag_224:\n        /* \"#utility.yul\":1682:1738   */\n    tag_223:\n        /* \"#utility.yul\":1768:1772   */\n      0x20\n        /* \"#utility.yul\":1760:1766   */\n      dup3\n        /* \"#utility.yul\":1756:1773   */\n      mul\n        /* \"#utility.yul\":1748:1773   */\n      swap1\n      pop\n        /* \"#utility.yul\":1828:1832   */\n      0x20\n        /* \"#utility.yul\":1822:1826   */\n      dup2\n        /* \"#utility.yul\":1818:1833   */\n      add\n        /* \"#utility.yul\":1810:1833   */\n      swap1\n      pop\n        /* \"#utility.yul\":1529:1840   */\n      swap2\n      swap1\n      pop\n      jump\t// out\n        /* \"#utility.yul\":1846:1963   */\n    tag_169:\n        /* \"#utility.yul\":1955:1956   */\n      0x00\n        /* \"#utility.yul\":1952:1953   */\n      dup1\n        /* \"#utility.yul\":1945:1957   */\n      revert\n        /* \"#utility.yul\":1986:2696   */\n    tag_170:\n        /* \"#utility.yul\":2082:2087   */\n      0x00\n        /* \"#utility.yul\":2107:2188   */\n      tag_227\n        /* \"#utility.yul\":2123:2187   */\n      tag_228\n        /* \"#utility.yul\":2180:2186   */\n      dup5\n        /* \"#utility.yul\":2123:2187   */\n      tag_168\n      jump\t// in\n    tag_228:\n        /* \"#utility.yul\":2107:2188   */\n      tag_167\n      jump\t// in\n    tag_227:\n        /* \"#utility.yul\":2098:2188   */\n      swap1\n      pop\n        /* \"#utility.yul\":2208:2213   */\n      dup1\n        /* \"#utility.yul\":2237:2243   */\n      dup4\n        /* \"#utility.yul\":2230:2235   */\n      dup3\n        /* \"#utility.yul\":2223:2244   */\n      mstore\n        /* \"#utility.yul\":2271:2275   */\n      0x20\n        /* \"#utility.yul\":2264:2269   */\n      dup3\n        /* \"#utility.yul\":2260:2276   */\n      add\n        /* \"#utility.yul\":2253:2276   */\n      swap1\n      pop\n        /* \"#utility.yul\":2324:2328   */\n      0x20\n        /* \"#utility.yul\":2316:2322   */\n      dup5\n        /* \"#utility.yul\":2312:2329   */\n      mul\n        /* \"#utility.yul\":2304:2310   */\n      dup4\n        /* \"#utility.yul\":2300:2330   */\n      add\n        /* \"#utility.yul\":2353:2356   */\n      dup6\n        /* \"#utility.yul\":2345:2351   */\n      dup2\n        /* \"#utility.yul\":2342:2357   */\n      gt\n        /* \"#utility.yul\":2339:2461   */\n      iszero\n      tag_229\n      jumpi\n        /* \"#utility.yul\":2372:2451   */\n      tag_230\n      tag_169\n      jump\t// in\n    tag_230:\n        /* \"#utility.yul\":2339:2461   */\n    tag_229:\n        /* \"#utility.yul\":2487:2493   */\n      dup4\n        /* \"#utility.yul\":2470:2690   */\n    tag_231:\n        /* \"#utility.yul\":2504:2510   */\n      dup2\n        /* \"#utility.yul\":2499:2502   */\n      dup2\n        /* \"#utility.yul\":2496:2511   */\n      lt\n        /* \"#utility.yul\":2470:2690   */\n      iszero\n      tag_233\n      jumpi\n        /* \"#utility.yul\":2579:2582   */\n      dup1\n        /* \"#utility.yul\":2608:2645   */\n      tag_234\n        /* \"#utility.yul\":2641:2644   */\n      dup9\n        /* \"#utility.yul\":2629:2639   */\n      dup3\n        /* \"#utility.yul\":2608:2645   */\n      tag_162\n      jump\t// in\n    tag_234:\n        /* \"#utility.yul\":2603:2606   */\n      dup5\n        /* \"#utility.yul\":2596:2646   */\n      mstore\n        /* \"#utility.yul\":2675:2679   */\n      0x20\n        /* \"#utility.yul\":2670:2673   */\n      dup5\n        /* \"#utility.yul\":2666:2680   */\n      add\n        /* \"#utility.yul\":2659:2680   */\n      swap4\n      pop\n        /* \"#utility.yul\":2546:2690   */\n      pop\n        /* \"#utility.yul\":2530:2534   */\n      0x20\n        /* \"#utility.yul\":2525:2528   */\n      dup2\n        /* \"#utility.yul\":2521:2535   */\n      add\n        /* \"#utility.yul\":2514:2535   */\n      swap1\n      pop\n        /* \"#utility.yul\":2470:2690   */\n      jump(tag_231)\n    tag_233:\n        /* \"#utility.yul\":2474:2495   */\n      pop\n        /* \"#utility.yul\":2088:2696   */\n      pop\n      pop\n        /* \"#utility.yul\":1986:2696   */\n      swap4\n      swap3\n      pop\n      pop\n      pop\n      jump\t// out\n        /* \"#utility.yul\":2719:3089   */\n    tag_171:\n        /* \"#utility.yul\":2790:2795   */\n      0x00\n        /* \"#utility.yul\":2839:2842   */\n      dup3\n        /* \"#utility.yul\":2832:2836   */\n      0x1f\n        /* \"#utility.yul\":2824:2830   */\n      dup4\n        /* \"#utility.yul\":2820:2837   */\n      add\n        /* \"#utility.yul\":2816:2843   */\n      slt\n        /* \"#utility.yul\":2806:2928   */\n      tag_236\n      jumpi\n        /* \"#utility.yul\":2847:2926   */\n      tag_237\n      tag_163\n      jump\t// in\n    tag_237:\n        /* \"#utility.yul\":2806:2928   */\n    tag_236:\n        /* \"#utility.yul\":2964:2970   */\n      dup2\n        /* \"#utility.yul\":2951:2971   */\n      calldataload\n        /* \"#utility.yul\":2989:3083   */\n      tag_238\n        /* \"#utility.yul\":3079:3082   */\n      dup5\n        /* \"#utility.yul\":3071:3077   */\n      dup3\n        /* \"#utility.yul\":3064:3068   */\n      0x20\n        /* \"#utility.yul\":3056:3062   */\n      dup7\n        /* \"#utility.yul\":3052:3069   */\n      add\n        /* \"#utility.yul\":2989:3083   */\n      tag_170\n      jump\t// in\n    tag_238:\n        /* \"#utility.yul\":2980:3083   */\n      swap2\n      pop\n        /* \"#utility.yul\":2796:3089   */\n      pop\n        /* \"#utility.yul\":2719:3089   */\n      swap3\n      swap2\n      pop\n      pop\n      jump\t// out\n        /* \"#utility.yul\":3095:3779   */\n    tag_17:\n        /* \"#utility.yul\":3188:3194   */\n      0x00\n        /* \"#utility.yul\":3196:3202   */\n      dup1\n        /* \"#utility.yul\":3245:3247   */\n      0x40\n        /* \"#utility.yul\":3233:3242   */\n      dup4\n        /* \"#utility.yul\":3224:3231   */\n      dup6\n        /* \"#utility.yul\":3220:3243   */\n      sub\n        /* \"#utility.yul\":3216:3248   */\n      slt\n        /* \"#utility.yul\":3213:3332   */\n      iszero\n      tag_240\n      jumpi\n        /* \"#utility.yul\":3251:3330   */\n      tag_241\n      tag_158\n      jump\t// in\n    tag_241:\n        /* \"#utility.yul\":3213:3332   */\n    tag_240:\n        /* \"#utility.yul\":3371:3372   */\n      0x00\n        /* \"#utility.yul\":3396:3449   */\n      tag_242\n        /* \"#utility.yul\":3441:3448   */\n      dup6\n        /* \"#utility.yul\":3432:3438   */\n      dup3\n        /* \"#utility.yul\":3421:3430   */\n      dup7\n        /* \"#utility.yul\":3417:3439   */\n      add\n        /* \"#utility.yul\":3396:3449   */\n      tag_162\n      jump\t// in\n    tag_242:\n        /* \"#utility.yul\":3386:3449   */\n      swap3\n      pop\n        /* \"#utility.yul\":3342:3459   */\n      pop\n        /* \"#utility.yul\":3526:3528   */\n      0x20\n        /* \"#utility.yul\":3515:3524   */\n      dup4\n        /* \"#utility.yul\":3511:3529   */\n      add\n        /* \"#utility.yul\":3498:3530   */\n      calldataload\n        /* \"#utility.yul\":3557:3575   */\n      0xffffffffffffffff\n        /* \"#utility.yul\":3549:3555   */\n      dup2\n        /* \"#utility.yul\":3546:3576   */\n      gt\n        /* \"#utility.yul\":3543:3660   */\n      iszero\n      tag_243\n      jumpi\n        /* \"#utility.yul\":3579:3658   */\n      tag_244\n      tag_159\n      jump\t// in\n    tag_244:\n        /* \"#utility.yul\":3543:3660   */\n    tag_243:\n        /* \"#utility.yul\":3684:3762   */\n      tag_245\n        /* \"#utility.yul\":3754:3761   */\n      dup6\n        /* \"#utility.yul\":3745:3751   */\n      dup3\n        /* \"#utility.yul\":3734:3743   */\n      dup7\n        /* \"#utility.yul\":3730:3752   */\n      add\n        /* \"#utility.yul\":3684:3762   */\n      tag_171\n      jump\t// in\n    tag_245:\n        /* \"#utility.yul\":3674:3762   */\n      swap2\n      pop\n        /* \"#utility.yul\":3469:3772   */\n      pop\n        /* \"#utility.yul\":3095:3779   */\n      swap3\n      pop\n      swap3\n      swap1\n      pop\n      jump\t// out\n        /* \"#utility.yul\":3785:4114   */\n    tag_21:\n        /* \"#utility.yul\":3844:3850   */\n      0x00\n        /* \"#utility.yul\":3893:3895   */\n      0x20\n        /* \"#utility.yul\":3881:3890   */\n      dup3\n        /* \"#utility.yul\":3872:3879   */\n      dup5\n        /* \"#utility.yul\":3868:3891   */\n      sub\n        /* \"#utility.yul\":3864:3896   */\n      slt\n        /* \"#utility.yul\":3861:3980   */\n      iszero\n      tag_247\n      jumpi\n        /* \"#utility.yul\":3899:3978   */\n      tag_248\n      tag_158\n      jump\t// in\n    tag_248:\n        /* \"#utility.yul\":3861:3980   */\n    tag_247:\n        /* \"#utility.yul\":4019:4020   */\n      0x00\n        /* \"#utility.yul\":4044:4097   */\n      tag_249\n        /* \"#utility.yul\":4089:4096   */\n      dup5\n        /* \"#utility.yul\":4080:4086   */\n      dup3\n        /* \"#utility.yul\":4069:4078   */\n      dup6\n        /* \"#utility.yul\":4065:4087   */\n      add\n        /* \"#utility.yul\":4044:4097   */\n      tag_162\n      jump\t// in\n    tag_249:\n        /* \"#utility.yul\":4034:4097   */\n      swap2\n      pop\n        /* \"#utility.yul\":3990:4107   */\n      pop\n        /* \"#utility.yul\":3785:4114   */\n      swap3\n      swap2\n      pop\n      pop\n      jump\t// out\n        /* \"#utility.yul\":4120:4246   */\n    tag_172:\n        /* \"#utility.yul\":4157:4164   */\n      0x00\n        /* \"#utility.yul\":4197:4239   */\n      0xffffffffffffffffffffffffffffffffffffffff\n        /* \"#utility.yul\":4190:4195   */\n      dup3\n        /* \"#utility.yul\":4186:4240   */\n      and\n        /* \"#utility.yul\":4175:4240   */\n      swap1\n      pop\n        /* \"#utility.yul\":4120:4246   */\n      swap2\n      swap1\n      pop\n      jump\t// out\n        /* \"#utility.yul\":4252:4348   */\n    tag_173:\n        /* \"#utility.yul\":4289:4296   */\n      0x00\n        /* \"#utility.yul\":4318:4342   */\n      tag_252\n        /* \"#utility.yul\":4336:4341   */\n      dup3\n        /* \"#utility.yul\":4318:4342   */\n      tag_172\n      jump\t// in\n    tag_252:\n        /* \"#utility.yul\":4307:4342   */\n      swap1\n      pop\n        /* \"#utility.yul\":4252:4348   */\n      swap2\n      swap1\n      pop\n      jump\t// out\n        /* \"#utility.yul\":4354:4472   */\n    tag_174:\n        /* \"#utility.yul\":4441:4465   */\n      tag_254\n        /* \"#utility.yul\":4459:4464   */\n      dup2\n        /* \"#utility.yul\":4441:4465   */\n      tag_173\n      jump\t// in\n    tag_254:\n        /* \"#utility.yul\":4436:4439   */\n      dup3\n        /* \"#utility.yul\":4429:4466   */\n      mstore\n        /* \"#utility.yul\":4354:4472   */\n      pop\n      pop\n      jump\t// out\n        /* \"#utility.yul\":4478:4596   */\n    tag_175:\n        /* \"#utility.yul\":4565:4589   */\n      tag_256\n        /* \"#utility.yul\":4583:4588   */\n      dup2\n        /* \"#utility.yul\":4565:4589   */\n      tag_160\n      jump\t// in\n    tag_256:\n        /* \"#utility.yul\":4560:4563   */\n      dup3\n        /* \"#utility.yul\":4553:4590   */\n      mstore\n        /* \"#utility.yul\":4478:4596   */\n      pop\n      pop\n      jump\t// out\n        /* \"#utility.yul\":4602:4934   */\n    tag_24:\n        /* \"#utility.yul\":4723:4727   */\n      0x00\n        /* \"#utility.yul\":4761:4763   */\n      0x40\n        /* \"#utility.yul\":4750:4759   */\n      dup3\n        /* \"#utility.yul\":4746:4764   */\n      add\n        /* \"#utility.yul\":4738:4764   */\n      swap1\n      pop\n        /* \"#utility.yul\":4774:4845   */\n      tag_258\n        /* \"#utility.yul\":4842:4843   */\n      0x00\n        /* \"#utility.yul\":4831:4840   */\n      dup4\n        /* \"#utility.yul\":4827:4844   */\n      add\n        /* \"#utility.yul\":4818:4824   */\n      dup6\n        /* \"#utility.yul\":4774:4845   */\n      tag_174\n      jump\t// in\n    tag_258:\n        /* \"#utility.yul\":4855:4927   */\n      tag_259\n        /* \"#utility.yul\":4923:4925   */\n      0x20\n        /* \"#utility.yul\":4912:4921   */\n      dup4\n        /* \"#utility.yul\":4908:4926   */\n      add\n        /* \"#utility.yul\":4899:4905   */\n      dup5\n        /* \"#utility.yul\":4855:4927   */\n      tag_175\n      jump\t// in\n    tag_259:\n        /* \"#utility.yul\":4602:4934   */\n      swap4\n      swap3\n      pop\n      pop\n      pop\n      jump\t// out\n        /* \"#utility.yul\":4940:5000   */\n    tag_176:\n        /* \"#utility.yul\":4968:4971   */\n      0x00\n        /* \"#utility.yul\":4989:4994   */\n      dup2\n        /* \"#utility.yul\":4982:4994   */\n      swap1\n      pop\n        /* \"#utility.yul\":4940:5000   */\n      swap2\n      swap1\n      pop\n      jump\t// out\n        /* \"#utility.yul\":5006:5148   */\n    tag_177:\n        /* \"#utility.yul\":5056:5065   */\n      0x00\n        /* \"#utility.yul\":5089:5142   */\n      tag_262\n        /* \"#utility.yul\":5107:5141   */\n      tag_263\n        /* \"#utility.yul\":5116:5140   */\n      tag_264\n        /* \"#utility.yul\":5134:5139   */\n      dup5\n        /* \"#utility.yul\":5116:5140   */\n      tag_172\n      jump\t// in\n    tag_264:\n        /* \"#utility.yul\":5107:5141   */\n      tag_176\n      jump\t// in\n    tag_263:\n        /* \"#utility.yul\":5089:5142   */\n      tag_172\n      jump\t// in\n    tag_262:\n        /* \"#utility.yul\":5076:5142   */\n      swap1\n      pop\n        /* \"#utility.yul\":5006:5148   */\n      swap2\n      swap1\n      pop\n      jump\t// out\n        /* \"#utility.yul\":5154:5280   */\n    tag_178:\n        /* \"#utility.yul\":5204:5213   */\n      0x00\n        /* \"#utility.yul\":5237:5274   */\n      tag_266\n        /* \"#utility.yul\":5268:5273   */\n      dup3\n        /* \"#utility.yul\":5237:5274   */\n      tag_177\n      jump\t// in\n    tag_266:\n        /* \"#utility.yul\":5224:5274   */\n      swap1\n      pop\n        /* \"#utility.yul\":5154:5280   */\n      swap2\n      swap1\n      pop\n      jump\t// out\n        /* \"#utility.yul\":5286:5426   */\n    tag_179:\n        /* \"#utility.yul\":5350:5359   */\n      0x00\n        /* \"#utility.yul\":5383:5420   */\n      tag_268\n        /* \"#utility.yul\":5414:5419   */\n      dup3\n        /* \"#utility.yul\":5383:5420   */\n      tag_178\n      jump\t// in\n    tag_268:\n        /* \"#utility.yul\":5370:5420   */\n      swap1\n      pop\n        /* \"#utility.yul\":5286:5426   */\n      swap2\n      swap1\n      pop\n      jump\t// out\n        /* \"#utility.yul\":5432:5591   */\n    tag_180:\n        /* \"#utility.yul\":5533:5584   */\n      tag_270\n        /* \"#utility.yul\":5578:5583   */\n      dup2\n        /* \"#utility.yul\":5533:5584   */\n      tag_179\n      jump\t// in\n    tag_270:\n        /* \"#utility.yul\":5528:5531   */\n      dup3\n        /* \"#utility.yul\":5521:5585   */\n      mstore\n        /* \"#utility.yul\":5432:5591   */\n      pop\n      pop\n      jump\t// out\n        /* \"#utility.yul\":5597:5847   */\n    tag_30:\n        /* \"#utility.yul\":5704:5708   */\n      0x00\n        /* \"#utility.yul\":5742:5744   */\n      0x20\n        /* \"#utility.yul\":5731:5740   */\n      dup3\n        /* \"#utility.yul\":5727:5745   */\n      add\n        /* \"#utility.yul\":5719:5745   */\n      swap1\n      pop\n        /* \"#utility.yul\":5755:5840   */\n      tag_272\n        /* \"#utility.yul\":5837:5838   */\n      0x00\n        /* \"#utility.yul\":5826:5835   */\n      dup4\n        /* \"#utility.yul\":5822:5839   */\n      add\n        /* \"#utility.yul\":5813:5819   */\n      dup5\n        /* \"#utility.yul\":5755:5840   */\n      tag_180\n      jump\t// in\n    tag_272:\n        /* \"#utility.yul\":5597:5847   */\n      swap3\n      swap2\n      pop\n      pop\n      jump\t// out\n        /* \"#utility.yul\":5853:6075   */\n    tag_34:\n        /* \"#utility.yul\":5946:5950   */\n      0x00\n        /* \"#utility.yul\":5984:5986   */\n      0x20\n        /* \"#utility.yul\":5973:5982   */\n      dup3\n        /* \"#utility.yul\":5969:5987   */\n      add\n        /* \"#utility.yul\":5961:5987   */\n      swap1\n      pop\n        /* \"#utility.yul\":5997:6068   */\n      tag_274\n        /* \"#utility.yul\":6065:6066   */\n      0x00\n        /* \"#utility.yul\":6054:6063   */\n      dup4\n        /* \"#utility.yul\":6050:6067   */\n      add\n        /* \"#utility.yul\":6041:6047   */\n      dup5\n        /* \"#utility.yul\":5997:6068   */\n      tag_175\n      jump\t// in\n    tag_274:\n        /* \"#utility.yul\":5853:6075   */\n      swap3\n      swap2\n      pop\n      pop\n      jump\t// out\n        /* \"#utility.yul\":6081:6203   */\n    tag_181:\n        /* \"#utility.yul\":6154:6178   */\n      tag_276\n        /* \"#utility.yul\":6172:6177   */\n      dup2\n        /* \"#utility.yul\":6154:6178   */\n      tag_173\n      jump\t// in\n    tag_276:\n        /* \"#utility.yul\":6147:6152   */\n      dup2\n        /* \"#utility.yul\":6144:6179   */\n      eq\n        /* \"#utility.yul\":6134:6197   */\n      tag_277\n      jumpi\n        /* \"#utility.yul\":6193:6194   */\n      0x00\n        /* \"#utility.yul\":6190:6191   */\n      dup1\n        /* \"#utility.yul\":6183:6195   */\n      revert\n        /* \"#utility.yul\":6134:6197   */\n    tag_277:\n        /* \"#utility.yul\":6081:6203   */\n      pop\n      jump\t// out\n        /* \"#utility.yul\":6209:6348   */\n    tag_182:\n        /* \"#utility.yul\":6255:6260   */\n      0x00\n        /* \"#utility.yul\":6293:6299   */\n      dup2\n        /* \"#utility.yul\":6280:6300   */\n      calldataload\n        /* \"#utility.yul\":6271:6300   */\n      swap1\n      pop\n        /* \"#utility.yul\":6309:6342   */\n      tag_279\n        /* \"#utility.yul\":6336:6341   */\n      dup2\n        /* \"#utility.yul\":6309:6342   */\n      tag_181\n      jump\t// in\n    tag_279:\n        /* \"#utility.yul\":6209:6348   */\n      swap3\n      swap2\n      pop\n      pop\n      jump\t// out\n        /* \"#utility.yul\":6354:6683   */\n    tag_41:\n        /* \"#utility.yul\":6413:6419   */\n      0x00\n        /* \"#utility.yul\":6462:6464   */\n      0x20\n        /* \"#utility.yul\":6450:6459   */\n      dup3\n        /* \"#utility.yul\":6441:6448   */\n      dup5\n        /* \"#utility.yul\":6437:6460   */\n      sub\n        /* \"#utility.yul\":6433:6465   */\n      slt\n        /* \"#utility.yul\":6430:6549   */\n      iszero\n      tag_281\n      jumpi\n        /* \"#utility.yul\":6468:6547   */\n      tag_282\n      tag_158\n      jump\t// in\n    tag_282:\n        /* \"#utility.yul\":6430:6549   */\n    tag_281:\n        /* \"#utility.yul\":6588:6589   */\n      0x00\n        /* \"#utility.yul\":6613:6666   */\n      tag_283\n        /* \"#utility.yul\":6658:6665   */\n      dup5\n        /* \"#utility.yul\":6649:6655   */\n      dup3\n        /* \"#utility.yul\":6638:6647   */\n      dup6\n        /* \"#utility.yul\":6634:6656   */\n      add\n        /* \"#utility.yul\":6613:6666   */\n      tag_182\n      jump\t// in\n    tag_283:\n        /* \"#utility.yul\":6603:6666   */\n      swap2\n      pop\n        /* \"#utility.yul\":6559:6676   */\n      pop\n        /* \"#utility.yul\":6354:6683   */\n      swap3\n      swap2\n      pop\n      pop\n      jump\t// out\n        /* \"#utility.yul\":6689:6858   */\n    tag_183:\n        /* \"#utility.yul\":6773:6784   */\n      0x00\n        /* \"#utility.yul\":6807:6813   */\n      dup3\n        /* \"#utility.yul\":6802:6805   */\n      dup3\n        /* \"#utility.yul\":6795:6814   */\n      mstore\n        /* \"#utility.yul\":6847:6851   */\n      0x20\n        /* \"#utility.yul\":6842:6845   */\n      dup3\n        /* \"#utility.yul\":6838:6852   */\n      add\n        /* \"#utility.yul\":6823:6852   */\n      swap1\n      pop\n        /* \"#utility.yul\":6689:6858   */\n      swap3\n      swap2\n      pop\n      pop\n      jump\t// out\n        /* \"#utility.yul\":6864:7031   */\n    tag_184:\n        /* \"#utility.yul\":7004:7023   */\n      0x416c726561647920726567697374657264000000000000000000000000000000\n        /* \"#utility.yul\":7000:7001   */\n      0x00\n        /* \"#utility.yul\":6992:6998   */\n      dup3\n        /* \"#utility.yul\":6988:7002   */\n      add\n        /* \"#utility.yul\":6981:7024   */\n      mstore\n        /* \"#utility.yul\":6864:7031   */\n      pop\n      jump\t// out\n        /* \"#utility.yul\":7037:7403   */\n    tag_185:\n        /* \"#utility.yul\":7179:7182   */\n      0x00\n        /* \"#utility.yul\":7200:7267   */\n      tag_287\n        /* \"#utility.yul\":7264:7266   */\n      0x11\n        /* \"#utility.yul\":7259:7262   */\n      dup4\n        /* \"#utility.yul\":7200:7267   */\n      tag_183\n      jump\t// in\n    tag_287:\n        /* \"#utility.yul\":7193:7267   */\n      swap2\n      pop\n        /* \"#utility.yul\":7276:7369   */\n      tag_288\n        /* \"#utility.yul\":7365:7368   */\n      dup3\n        /* \"#utility.yul\":7276:7369   */\n      tag_184\n      jump\t// in\n    tag_288:\n        /* \"#utility.yul\":7394:7396   */\n      0x20\n        /* \"#utility.yul\":7389:7392   */\n      dup3\n        /* \"#utility.yul\":7385:7397   */\n      add\n        /* \"#utility.yul\":7378:7397   */\n      swap1\n      pop\n        /* \"#utility.yul\":7037:7403   */\n      swap2\n      swap1\n      pop\n      jump\t// out\n        /* \"#utility.yul\":7409:7828   */\n    tag_47:\n        /* \"#utility.yul\":7575:7579   */\n      0x00\n        /* \"#utility.yul\":7613:7615   */\n      0x20\n        /* \"#utility.yul\":7602:7611   */\n      dup3\n        /* \"#utility.yul\":7598:7616   */\n      add\n        /* \"#utility.yul\":7590:7616   */\n      swap1\n      pop\n        /* \"#utility.yul\":7662:7671   */\n      dup2\n        /* \"#utility.yul\":7656:7660   */\n      dup2\n        /* \"#utility.yul\":7652:7672   */\n      sub\n        /* \"#utility.yul\":7648:7649   */\n      0x00\n        /* \"#utility.yul\":7637:7646   */\n      dup4\n        /* \"#utility.yul\":7633:7650   */\n      add\n        /* \"#utility.yul\":7626:7673   */\n      mstore\n        /* \"#utility.yul\":7690:7821   */\n      tag_290\n        /* \"#utility.yul\":7816:7820   */\n      dup2\n        /* \"#utility.yul\":7690:7821   */\n      tag_185\n      jump\t// in\n    tag_290:\n        /* \"#utility.yul\":7682:7821   */\n      swap1\n      pop\n        /* \"#utility.yul\":7409:7828   */\n      swap2\n      swap1\n      pop\n      jump\t// out\n        /* \"#utility.yul\":7834:8166   */\n    tag_52:\n        /* \"#utility.yul\":7955:7959   */\n      0x00\n        /* \"#utility.yul\":7993:7995   */\n      0x40\n        /* \"#utility.yul\":7982:7991   */\n      dup3\n        /* \"#utility.yul\":7978:7996   */\n      add\n        /* \"#utility.yul\":7970:7996   */\n      swap1\n      pop\n        /* \"#utility.yul\":8006:8077   */\n      tag_292\n        /* \"#utility.yul\":8074:8075   */\n      0x00\n        /* \"#utility.yul\":8063:8072   */\n      dup4\n        /* \"#utility.yul\":8059:8076   */\n      add\n        /* \"#utility.yul\":8050:8056   */\n      dup6\n        /* \"#utility.yul\":8006:8077   */\n      tag_174\n      jump\t// in\n    tag_292:\n        /* \"#utility.yul\":8087:8159   */\n      tag_293\n        /* \"#utility.yul\":8155:8157   */\n      0x20\n        /* \"#utility.yul\":8144:8153   */\n      dup4\n        /* \"#utility.yul\":8140:8158   */\n      add\n        /* \"#utility.yul\":8131:8137   */\n      dup5\n        /* \"#utility.yul\":8087:8159   */\n      tag_174\n      jump\t// in\n    tag_293:\n        /* \"#utility.yul\":7834:8166   */\n      swap4\n      swap3\n      pop\n      pop\n      pop\n      jump\t// out\n        /* \"#utility.yul\":8172:8352   */\n    tag_73:\n        /* \"#utility.yul\":8220:8297   */\n      0x4e487b7100000000000000000000000000000000000000000000000000000000\n        /* \"#utility.yul\":8217:8218   */\n      0x00\n        /* \"#utility.yul\":8210:8298   */\n      mstore\n        /* \"#utility.yul\":8317:8321   */\n      0x32\n        /* \"#utility.yul\":8314:8315   */\n      0x04\n        /* \"#utility.yul\":8307:8322   */\n      mstore\n        /* \"#utility.yul\":8341:8345   */\n      0x24\n        /* \"#utility.yul\":8338:8339   */\n      0x00\n        /* \"#utility.yul\":8331:8346   */\n      revert\n        /* \"#utility.yul\":8358:8538   */\n    tag_186:\n        /* \"#utility.yul\":8406:8483   */\n      0x4e487b7100000000000000000000000000000000000000000000000000000000\n        /* \"#utility.yul\":8403:8404   */\n      0x00\n        /* \"#utility.yul\":8396:8484   */\n      mstore\n        /* \"#utility.yul\":8503:8507   */\n      0x12\n        /* \"#utility.yul\":8500:8501   */\n      0x04\n        /* \"#utility.yul\":8493:8508   */\n      mstore\n        /* \"#utility.yul\":8527:8531   */\n      0x24\n        /* \"#utility.yul\":8524:8525   */\n      0x00\n        /* \"#utility.yul\":8517:8532   */\n      revert\n        /* \"#utility.yul\":8544:8720   */\n    tag_75:\n        /* \"#utility.yul\":8576:8577   */\n      0x00\n        /* \"#utility.yul\":8593:8613   */\n      tag_297\n        /* \"#utility.yul\":8611:8612   */\n      dup3\n        /* \"#utility.yul\":8593:8613   */\n      tag_160\n      jump\t// in\n    tag_297:\n        /* \"#utility.yul\":8588:8613   */\n      swap2\n      pop\n        /* \"#utility.yul\":8627:8647   */\n      tag_298\n        /* \"#utility.yul\":8645:8646   */\n      dup4\n        /* \"#utility.yul\":8627:8647   */\n      tag_160\n      jump\t// in\n    tag_298:\n        /* \"#utility.yul\":8622:8647   */\n      swap3\n      pop\n        /* \"#utility.yul\":8666:8667   */\n      dup3\n        /* \"#utility.yul\":8656:8691   */\n      tag_299\n      jumpi\n        /* \"#utility.yul\":8671:8689   */\n      tag_300\n      tag_186\n      jump\t// in\n    tag_300:\n        /* \"#utility.yul\":8656:8691   */\n    tag_299:\n        /* \"#utility.yul\":8712:8713   */\n      dup3\n        /* \"#utility.yul\":8709:8710   */\n      dup3\n        /* \"#utility.yul\":8705:8714   */\n      mod\n        /* \"#utility.yul\":8700:8714   */\n      swap1\n      pop\n        /* \"#utility.yul\":8544:8720   */\n      swap3\n      swap2\n      pop\n      pop\n      jump\t// out\n        /* \"#utility.yul\":8726:8816   */\n    tag_187:\n        /* \"#utility.yul\":8760:8767   */\n      0x00\n        /* \"#utility.yul\":8803:8808   */\n      dup2\n        /* \"#utility.yul\":8796:8809   */\n      iszero\n        /* \"#utility.yul\":8789:8810   */\n      iszero\n        /* \"#utility.yul\":8778:8810   */\n      swap1\n      pop\n        /* \"#utility.yul\":8726:8816   */\n      swap2\n      swap1\n      pop\n      jump\t// out\n        /* \"#utility.yul\":8822:8938   */\n    tag_188:\n        /* \"#utility.yul\":8892:8913   */\n      tag_303\n        /* \"#utility.yul\":8907:8912   */\n      dup2\n        /* \"#utility.yul\":8892:8913   */\n      tag_187\n      jump\t// in\n    tag_303:\n        /* \"#utility.yul\":8885:8890   */\n      dup2\n        /* \"#utility.yul\":8882:8914   */\n      eq\n        /* \"#utility.yul\":8872:8932   */\n      tag_304\n      jumpi\n        /* \"#utility.yul\":8928:8929   */\n      0x00\n        /* \"#utility.yul\":8925:8926   */\n      dup1\n        /* \"#utility.yul\":8918:8930   */\n      revert\n        /* \"#utility.yul\":8872:8932   */\n    tag_304:\n        /* \"#utility.yul\":8822:8938   */\n      pop\n      jump\t// out\n        /* \"#utility.yul\":8944:9081   */\n    tag_189:\n        /* \"#utility.yul\":8998:9003   */\n      0x00\n        /* \"#utility.yul\":9029:9035   */\n      dup2\n        /* \"#utility.yul\":9023:9036   */\n      mload\n        /* \"#utility.yul\":9014:9036   */\n      swap1\n      pop\n        /* \"#utility.yul\":9045:9075   */\n      tag_306\n        /* \"#utility.yul\":9069:9074   */\n      dup2\n        /* \"#utility.yul\":9045:9075   */\n      tag_188\n      jump\t// in\n    tag_306:\n        /* \"#utility.yul\":8944:9081   */\n      swap3\n      swap2\n      pop\n      pop\n      jump\t// out\n        /* \"#utility.yul\":9087:9432   */\n    tag_81:\n        /* \"#utility.yul\":9154:9160   */\n      0x00\n        /* \"#utility.yul\":9203:9205   */\n      0x20\n        /* \"#utility.yul\":9191:9200   */\n      dup3\n        /* \"#utility.yul\":9182:9189   */\n      dup5\n        /* \"#utility.yul\":9178:9201   */\n      sub\n        /* \"#utility.yul\":9174:9206   */\n      slt\n        /* \"#utility.yul\":9171:9290   */\n      iszero\n      tag_308\n      jumpi\n        /* \"#utility.yul\":9209:9288   */\n      tag_309\n      tag_158\n      jump\t// in\n    tag_309:\n        /* \"#utility.yul\":9171:9290   */\n    tag_308:\n        /* \"#utility.yul\":9329:9330   */\n      0x00\n        /* \"#utility.yul\":9354:9415   */\n      tag_310\n        /* \"#utility.yul\":9407:9414   */\n      dup5\n        /* \"#utility.yul\":9398:9404   */\n      dup3\n        /* \"#utility.yul\":9387:9396   */\n      dup6\n        /* \"#utility.yul\":9383:9405   */\n      add\n        /* \"#utility.yul\":9354:9415   */\n      tag_189\n      jump\t// in\n    tag_310:\n        /* \"#utility.yul\":9344:9415   */\n      swap2\n      pop\n        /* \"#utility.yul\":9300:9425   */\n      pop\n        /* \"#utility.yul\":9087:9432   */\n      swap3\n      swap2\n      pop\n      pop\n      jump\t// out\n        /* \"#utility.yul\":9438:9618   */\n    tag_190:\n        /* \"#utility.yul\":9486:9563   */\n      0x4e487b7100000000000000000000000000000000000000000000000000000000\n        /* \"#utility.yul\":9483:9484   */\n      0x00\n        /* \"#utility.yul\":9476:9564   */\n      mstore\n        /* \"#utility.yul\":9583:9587   */\n      0x11\n        /* \"#utility.yul\":9580:9581   */\n      0x04\n        /* \"#utility.yul\":9573:9588   */\n      mstore\n        /* \"#utility.yul\":9607:9611   */\n      0x24\n        /* \"#utility.yul\":9604:9605   */\n      0x00\n        /* \"#utility.yul\":9597:9612   */\n      revert\n        /* \"#utility.yul\":9624:9809   */\n    tag_83:\n        /* \"#utility.yul\":9664:9665   */\n      0x00\n        /* \"#utility.yul\":9681:9701   */\n      tag_313\n        /* \"#utility.yul\":9699:9700   */\n      dup3\n        /* \"#utility.yul\":9681:9701   */\n      tag_160\n      jump\t// in\n    tag_313:\n        /* \"#utility.yul\":9676:9701   */\n      swap2\n      pop\n        /* \"#utility.yul\":9715:9735   */\n      tag_314\n        /* \"#utility.yul\":9733:9734   */\n      dup4\n        /* \"#utility.yul\":9715:9735   */\n      tag_160\n      jump\t// in\n    tag_314:\n        /* \"#utility.yul\":9710:9735   */\n      swap3\n      pop\n        /* \"#utility.yul\":9754:9755   */\n      dup3\n        /* \"#utility.yul\":9744:9779   */\n      tag_315\n      jumpi\n        /* \"#utility.yul\":9759:9777   */\n      tag_316\n      tag_186\n      jump\t// in\n    tag_316:\n        /* \"#utility.yul\":9744:9779   */\n    tag_315:\n        /* \"#utility.yul\":9801:9802   */\n      dup3\n        /* \"#utility.yul\":9798:9799   */\n      dup3\n        /* \"#utility.yul\":9794:9803   */\n      div\n        /* \"#utility.yul\":9789:9803   */\n      swap1\n      pop\n        /* \"#utility.yul\":9624:9809   */\n      swap3\n      swap2\n      pop\n      pop\n      jump\t// out\n        /* \"#utility.yul\":9815:10006   */\n    tag_89:\n        /* \"#utility.yul\":9855:9858   */\n      0x00\n        /* \"#utility.yul\":9874:9894   */\n      tag_318\n        /* \"#utility.yul\":9892:9893   */\n      dup3\n        /* \"#utility.yul\":9874:9894   */\n      tag_160\n      jump\t// in\n    tag_318:\n        /* \"#utility.yul\":9869:9894   */\n      swap2\n      pop\n        /* \"#utility.yul\":9908:9928   */\n      tag_319\n        /* \"#utility.yul\":9926:9927   */\n      dup4\n        /* \"#utility.yul\":9908:9928   */\n      tag_160\n      jump\t// in\n    tag_319:\n        /* \"#utility.yul\":9903:9928   */\n      swap3\n      pop\n        /* \"#utility.yul\":9951:9952   */\n      dup3\n        /* \"#utility.yul\":9948:9949   */\n      dup3\n        /* \"#utility.yul\":9944:9953   */\n      add\n        /* \"#utility.yul\":9937:9953   */\n      swap1\n      pop\n        /* \"#utility.yul\":9972:9975   */\n      dup1\n        /* \"#utility.yul\":9969:9970   */\n      dup3\n        /* \"#utility.yul\":9966:9976   */\n      gt\n        /* \"#utility.yul\":9963:9999   */\n      iszero\n      tag_320\n      jumpi\n        /* \"#utility.yul\":9979:9997   */\n      tag_321\n      tag_190\n      jump\t// in\n    tag_321:\n        /* \"#utility.yul\":9963:9999   */\n    tag_320:\n        /* \"#utility.yul\":9815:10006   */\n      swap3\n      swap2\n      pop\n      pop\n      jump\t// out\n        /* \"#utility.yul\":10012:10184   */\n    tag_191:\n        /* \"#utility.yul\":10152:10176   */\n      0x5061727469636970616e74206e6f7420666f756e642e00000000000000000000\n        /* \"#utility.yul\":10148:10149   */\n      0x00\n        /* \"#utility.yul\":10140:10146   */\n      dup3\n        /* \"#utility.yul\":10136:10150   */\n      add\n        /* \"#utility.yul\":10129:10177   */\n      mstore\n        /* \"#utility.yul\":10012:10184   */\n      pop\n      jump\t// out\n        /* \"#utility.yul\":10190:10556   */\n    tag_192:\n        /* \"#utility.yul\":10332:10335   */\n      0x00\n        /* \"#utility.yul\":10353:10420   */\n      tag_324\n        /* \"#utility.yul\":10417:10419   */\n      0x16\n        /* \"#utility.yul\":10412:10415   */\n      dup4\n        /* \"#utility.yul\":10353:10420   */\n      tag_183\n      jump\t// in\n    tag_324:\n        /* \"#utility.yul\":10346:10420   */\n      swap2\n      pop\n        /* \"#utility.yul\":10429:10522   */\n      tag_325\n        /* \"#utility.yul\":10518:10521   */\n      dup3\n        /* \"#utility.yul\":10429:10522   */\n      tag_191\n      jump\t// in\n    tag_325:\n        /* \"#utility.yul\":10547:10549   */\n      0x20\n        /* \"#utility.yul\":10542:10545   */\n      dup3\n        /* \"#utility.yul\":10538:10550   */\n      add\n        /* \"#utility.yul\":10531:10550   */\n      swap1\n      pop\n        /* \"#utility.yul\":10190:10556   */\n      swap2\n      swap1\n      pop\n      jump\t// out\n        /* \"#utility.yul\":10562:10981   */\n    tag_101:\n        /* \"#utility.yul\":10728:10732   */\n      0x00\n        /* \"#utility.yul\":10766:10768   */\n      0x20\n        /* \"#utility.yul\":10755:10764   */\n      dup3\n        /* \"#utility.yul\":10751:10769   */\n      add\n        /* \"#utility.yul\":10743:10769   */\n      swap1\n      pop\n        /* \"#utility.yul\":10815:10824   */\n      dup2\n        /* \"#utility.yul\":10809:10813   */\n      dup2\n        /* \"#utility.yul\":10805:10825   */\n      sub\n        /* \"#utility.yul\":10801:10802   */\n      0x00\n        /* \"#utility.yul\":10790:10799   */\n      dup4\n        /* \"#utility.yul\":10786:10803   */\n      add\n        /* \"#utility.yul\":10779:10826   */\n      mstore\n        /* \"#utility.yul\":10843:10974   */\n      tag_327\n        /* \"#utility.yul\":10969:10973   */\n      dup2\n        /* \"#utility.yul\":10843:10974   */\n      tag_192\n      jump\t// in\n    tag_327:\n        /* \"#utility.yul\":10835:10974   */\n      swap1\n      pop\n        /* \"#utility.yul\":10562:10981   */\n      swap2\n      swap1\n      pop\n      jump\t// out\n        /* \"#utility.yul\":10987:11181   */\n    tag_103:\n        /* \"#utility.yul\":11027:11031   */\n      0x00\n        /* \"#utility.yul\":11047:11067   */\n      tag_329\n        /* \"#utility.yul\":11065:11066   */\n      dup3\n        /* \"#utility.yul\":11047:11067   */\n      tag_160\n      jump\t// in\n    tag_329:\n        /* \"#utility.yul\":11042:11067   */\n      swap2\n      pop\n        /* \"#utility.yul\":11081:11101   */\n      tag_330\n        /* \"#utility.yul\":11099:11100   */\n      dup4\n        /* \"#utility.yul\":11081:11101   */\n      tag_160\n      jump\t// in\n    tag_330:\n        /* \"#utility.yul\":11076:11101   */\n      swap3\n      pop\n        /* \"#utility.yul\":11125:11126   */\n      dup3\n        /* \"#utility.yul\":11122:11123   */\n      dup3\n        /* \"#utility.yul\":11118:11127   */\n      sub\n        /* \"#utility.yul\":11110:11127   */\n      swap1\n      pop\n        /* \"#utility.yul\":11149:11150   */\n      dup2\n        /* \"#utility.yul\":11143:11147   */\n      dup2\n        /* \"#utility.yul\":11140:11151   */\n      gt\n        /* \"#utility.yul\":11137:11174   */\n      iszero\n      tag_331\n      jumpi\n        /* \"#utility.yul\":11154:11172   */\n      tag_332\n      tag_190\n      jump\t// in\n    tag_332:\n        /* \"#utility.yul\":11137:11174   */\n    tag_331:\n        /* \"#utility.yul\":10987:11181   */\n      swap3\n      swap2\n      pop\n      pop\n      jump\t// out\n        /* \"#utility.yul\":11187:11264   */\n    tag_193:\n        /* \"#utility.yul\":11224:11231   */\n      0x00\n        /* \"#utility.yul\":11253:11258   */\n      dup2\n        /* \"#utility.yul\":11242:11258   */\n      swap1\n      pop\n        /* \"#utility.yul\":11187:11264   */\n      swap2\n      swap1\n      pop\n      jump\t// out\n        /* \"#utility.yul\":11270:11388   */\n    tag_194:\n        /* \"#utility.yul\":11357:11381   */\n      tag_335\n        /* \"#utility.yul\":11375:11380   */\n      dup2\n        /* \"#utility.yul\":11357:11381   */\n      tag_193\n      jump\t// in\n    tag_335:\n        /* \"#utility.yul\":11352:11355   */\n      dup3\n        /* \"#utility.yul\":11345:11382   */\n      mstore\n        /* \"#utility.yul\":11270:11388   */\n      pop\n      pop\n      jump\t// out\n        /* \"#utility.yul\":11394:11495   */\n    tag_195:\n        /* \"#utility.yul\":11430:11437   */\n      0x00\n        /* \"#utility.yul\":11470:11488   */\n      0xffffffffffffffff\n        /* \"#utility.yul\":11463:11468   */\n      dup3\n        /* \"#utility.yul\":11459:11489   */\n      and\n        /* \"#utility.yul\":11448:11489   */\n      swap1\n      pop\n        /* \"#utility.yul\":11394:11495   */\n      swap2\n      swap1\n      pop\n      jump\t// out\n        /* \"#utility.yul\":11501:11616   */\n    tag_196:\n        /* \"#utility.yul\":11586:11609   */\n      tag_338\n        /* \"#utility.yul\":11603:11608   */\n      dup2\n        /* \"#utility.yul\":11586:11609   */\n      tag_195\n      jump\t// in\n    tag_338:\n        /* \"#utility.yul\":11581:11584   */\n      dup3\n        /* \"#utility.yul\":11574:11610   */\n      mstore\n        /* \"#utility.yul\":11501:11616   */\n      pop\n      pop\n      jump\t// out\n        /* \"#utility.yul\":11622:11711   */\n    tag_197:\n        /* \"#utility.yul\":11658:11665   */\n      0x00\n        /* \"#utility.yul\":11698:11704   */\n      0xffff\n        /* \"#utility.yul\":11691:11696   */\n      dup3\n        /* \"#utility.yul\":11687:11705   */\n      and\n        /* \"#utility.yul\":11676:11705   */\n      swap1\n      pop\n        /* \"#utility.yul\":11622:11711   */\n      swap2\n      swap1\n      pop\n      jump\t// out\n        /* \"#utility.yul\":11717:11832   */\n    tag_198:\n        /* \"#utility.yul\":11802:11825   */\n      tag_341\n        /* \"#utility.yul\":11819:11824   */\n      dup2\n        /* \"#utility.yul\":11802:11825   */\n      tag_197\n      jump\t// in\n    tag_341:\n        /* \"#utility.yul\":11797:11800   */\n      dup3\n        /* \"#utility.yul\":11790:11826   */\n      mstore\n        /* \"#utility.yul\":11717:11832   */\n      pop\n      pop\n      jump\t// out\n        /* \"#utility.yul\":11838:11931   */\n    tag_199:\n        /* \"#utility.yul\":11874:11881   */\n      0x00\n        /* \"#utility.yul\":11914:11924   */\n      0xffffffff\n        /* \"#utility.yul\":11907:11912   */\n      dup3\n        /* \"#utility.yul\":11903:11925   */\n      and\n        /* \"#utility.yul\":11892:11925   */\n      swap1\n      pop\n        /* \"#utility.yul\":11838:11931   */\n      swap2\n      swap1\n      pop\n      jump\t// out\n        /* \"#utility.yul\":11937:12052   */\n    tag_200:\n        /* \"#utility.yul\":12022:12045   */\n      tag_344\n        /* \"#utility.yul\":12039:12044   */\n      dup2\n        /* \"#utility.yul\":12022:12045   */\n      tag_199\n      jump\t// in\n    tag_344:\n        /* \"#utility.yul\":12017:12020   */\n      dup3\n        /* \"#utility.yul\":12010:12046   */\n      mstore\n        /* \"#utility.yul\":11937:12052   */\n      pop\n      pop\n      jump\t// out\n        /* \"#utility.yul\":12058:12706   */\n    tag_116:\n        /* \"#utility.yul\":12255:12259   */\n      0x00\n        /* \"#utility.yul\":12293:12296   */\n      0xa0\n        /* \"#utility.yul\":12282:12291   */\n      dup3\n        /* \"#utility.yul\":12278:12297   */\n      add\n        /* \"#utility.yul\":12270:12297   */\n      swap1\n      pop\n        /* \"#utility.yul\":12307:12378   */\n      tag_346\n        /* \"#utility.yul\":12375:12376   */\n      0x00\n        /* \"#utility.yul\":12364:12373   */\n      dup4\n        /* \"#utility.yul\":12360:12377   */\n      add\n        /* \"#utility.yul\":12351:12357   */\n      dup9\n        /* \"#utility.yul\":12307:12378   */\n      tag_194\n      jump\t// in\n    tag_346:\n        /* \"#utility.yul\":12388:12458   */\n      tag_347\n        /* \"#utility.yul\":12454:12456   */\n      0x20\n        /* \"#utility.yul\":12443:12452   */\n      dup4\n        /* \"#utility.yul\":12439:12457   */\n      add\n        /* \"#utility.yul\":12430:12436   */\n      dup8\n        /* \"#utility.yul\":12388:12458   */\n      tag_196\n      jump\t// in\n    tag_347:\n        /* \"#utility.yul\":12468:12538   */\n      tag_348\n        /* \"#utility.yul\":12534:12536   */\n      0x40\n        /* \"#utility.yul\":12523:12532   */\n      dup4\n        /* \"#utility.yul\":12519:12537   */\n      add\n        /* \"#utility.yul\":12510:12516   */\n      dup7\n        /* \"#utility.yul\":12468:12538   */\n      tag_198\n      jump\t// in\n    tag_348:\n        /* \"#utility.yul\":12548:12618   */\n      tag_349\n        /* \"#utility.yul\":12614:12616   */\n      0x60\n        /* \"#utility.yul\":12603:12612   */\n      dup4\n        /* \"#utility.yul\":12599:12617   */\n      add\n        /* \"#utility.yul\":12590:12596   */\n      dup6\n        /* \"#utility.yul\":12548:12618   */\n      tag_200\n      jump\t// in\n    tag_349:\n        /* \"#utility.yul\":12628:12699   */\n      tag_350\n        /* \"#utility.yul\":12694:12697   */\n      0x80\n        /* \"#utility.yul\":12683:12692   */\n      dup4\n        /* \"#utility.yul\":12679:12698   */\n      add\n        /* \"#utility.yul\":12670:12676   */\n      dup5\n        /* \"#utility.yul\":12628:12699   */\n      tag_200\n      jump\t// in\n    tag_350:\n        /* \"#utility.yul\":12058:12706   */\n      swap7\n      swap6\n      pop\n      pop\n      pop\n      pop\n      pop\n      pop\n      jump\t// out\n        /* \"#utility.yul\":12712:12855   */\n    tag_201:\n        /* \"#utility.yul\":12769:12774   */\n      0x00\n        /* \"#utility.yul\":12800:12806   */\n      dup2\n        /* \"#utility.yul\":12794:12807   */\n      mload\n        /* \"#utility.yul\":12785:12807   */\n      swap1\n      pop\n        /* \"#utility.yul\":12816:12849   */\n      tag_352\n        /* \"#utility.yul\":12843:12848   */\n      dup2\n        /* \"#utility.yul\":12816:12849   */\n      tag_161\n      jump\t// in\n    tag_352:\n        /* \"#utility.yul\":12712:12855   */\n      swap3\n      swap2\n      pop\n      pop\n      jump\t// out\n        /* \"#utility.yul\":12861:13212   */\n    tag_120:\n        /* \"#utility.yul\":12931:12937   */\n      0x00\n        /* \"#utility.yul\":12980:12982   */\n      0x20\n        /* \"#utility.yul\":12968:12977   */\n      dup3\n        /* \"#utility.yul\":12959:12966   */\n      dup5\n        /* \"#utility.yul\":12955:12978   */\n      sub\n        /* \"#utility.yul\":12951:12983   */\n      slt\n        /* \"#utility.yul\":12948:13067   */\n      iszero\n      tag_354\n      jumpi\n        /* \"#utility.yul\":12986:13065   */\n      tag_355\n      tag_158\n      jump\t// in\n    tag_355:\n        /* \"#utility.yul\":12948:13067   */\n    tag_354:\n        /* \"#utility.yul\":13106:13107   */\n      0x00\n        /* \"#utility.yul\":13131:13195   */\n      tag_356\n        /* \"#utility.yul\":13187:13194   */\n      dup5\n        /* \"#utility.yul\":13178:13184   */\n      dup3\n        /* \"#utility.yul\":13167:13176   */\n      dup6\n        /* \"#utility.yul\":13163:13185   */\n      add\n        /* \"#utility.yul\":13131:13195   */\n      tag_201\n      jump\t// in\n    tag_356:\n        /* \"#utility.yul\":13121:13195   */\n      swap2\n      pop\n        /* \"#utility.yul\":13077:13205   */\n      pop\n        /* \"#utility.yul\":12861:13212   */\n      swap3\n      swap2\n      pop\n      pop\n      jump\t// out\n        /* \"#utility.yul\":13218:13628   */\n    tag_124:\n        /* \"#utility.yul\":13258:13265   */\n      0x00\n        /* \"#utility.yul\":13281:13301   */\n      tag_358\n        /* \"#utility.yul\":13299:13300   */\n      dup3\n        /* \"#utility.yul\":13281:13301   */\n      tag_160\n      jump\t// in\n    tag_358:\n        /* \"#utility.yul\":13276:13301   */\n      swap2\n      pop\n        /* \"#utility.yul\":13315:13335   */\n      tag_359\n        /* \"#utility.yul\":13333:13334   */\n      dup4\n        /* \"#utility.yul\":13315:13335   */\n      tag_160\n      jump\t// in\n    tag_359:\n        /* \"#utility.yul\":13310:13335   */\n      swap3\n      pop\n        /* \"#utility.yul\":13370:13371   */\n      dup3\n        /* \"#utility.yul\":13367:13368   */\n      dup3\n        /* \"#utility.yul\":13363:13372   */\n      mul\n        /* \"#utility.yul\":13392:13422   */\n      tag_360\n        /* \"#utility.yul\":13410:13421   */\n      dup2\n        /* \"#utility.yul\":13392:13422   */\n      tag_160\n      jump\t// in\n    tag_360:\n        /* \"#utility.yul\":13381:13422   */\n      swap2\n      pop\n        /* \"#utility.yul\":13571:13572   */\n      dup3\n        /* \"#utility.yul\":13562:13569   */\n      dup3\n        /* \"#utility.yul\":13558:13573   */\n      div\n        /* \"#utility.yul\":13555:13556   */\n      dup5\n        /* \"#utility.yul\":13552:13574   */\n      eq\n        /* \"#utility.yul\":13532:13533   */\n      dup4\n        /* \"#utility.yul\":13525:13534   */\n      iszero\n        /* \"#utility.yul\":13505:13588   */\n      or\n        /* \"#utility.yul\":13482:13621   */\n      tag_361\n      jumpi\n        /* \"#utility.yul\":13601:13619   */\n      tag_362\n      tag_190\n      jump\t// in\n    tag_362:\n        /* \"#utility.yul\":13482:13621   */\n    tag_361:\n        /* \"#utility.yul\":13266:13628   */\n      pop\n        /* \"#utility.yul\":13218:13628   */\n      swap3\n      swap2\n      pop\n      pop\n      jump\t// out\n\n    auxdata: 0xa26469706673582212204be9ea397d18465984313fa58179e42650a20a232413cab984bbd207a5d4540064736f6c63430008180033\n}\n",
				"bytecode": {
					"linkReferences": {},
					"object": "60a0604052738103b0a8a00be2ddc778e6e7eaa21791cd36462560025f6101000a81548173ffffffffffffffffffffffffffffffffffffffff021916908373ffffffffffffffffffffffffffffffffffffffff1602179055507f474e34a077df58807dbe9c96d3c009b23b3c6d0cce433e59bbf5b34f823bc56c5f1b600355619c4060045f6101000a81548163ffffffff021916908363ffffffff16021790555060036004806101000a81548161ffff021916908361ffff1602179055506001600460066101000a81548163ffffffff021916908363ffffffff160217905550348015620000eb575f80fd5b50604051620016b6380380620016b6833981810160405281019062000111919062000321565b60025f9054906101000a900473ffffffffffffffffffffffffffffffffffffffff168073ffffffffffffffffffffffffffffffffffffffff1660808173ffffffffffffffffffffffffffffffffffffffff16815250505060025f9054906101000a900473ffffffffffffffffffffffffffffffffffffffff1660015f6101000a81548173ffffffffffffffffffffffffffffffffffffffff021916908373ffffffffffffffffffffffffffffffffffffffff160217905550336004600a6101000a81548173ffffffffffffffffffffffffffffffffffffffff021916908373ffffffffffffffffffffffffffffffffffffffff16021790555081600160146101000a81548167ffffffffffffffff021916908367ffffffffffffffff160217905550805f806101000a81548173ffffffffffffffffffffffffffffffffffffffff021916908373ffffffffffffffffffffffffffffffffffffffff160217905550505062000366565b5f80fd5b5f67ffffffffffffffff82169050919050565b6200029c816200027e565b8114620002a7575f80fd5b50565b5f81519050620002ba8162000291565b92915050565b5f73ffffffffffffffffffffffffffffffffffffffff82169050919050565b5f620002eb82620002c0565b9050919050565b620002fd81620002df565b811462000308575f80fd5b50565b5f815190506200031b81620002f2565b92915050565b5f80604083850312156200033a57620003396200027a565b5b5f6200034985828601620002aa565b92505060206200035c858286016200030b565b9150509250929050565b608051611330620003865f395f81816102e3015261033701526113305ff3fe608060405234801561000f575f80fd5b5060043610610091575f3560e01c806355a373d61161006457806355a373d6146100f65780638e3957d914610114578063b47a1cd414610132578063ebe50d6f1461013c578063fbf4a3671461014657610091565b806319e5bf3a146100955780631fe543e31461009f57806335c1d349146100bb5780633f6b6f2e146100ec575b5f80fd5b61009d610176565b005b6100b960048036038101906100b49190610d25565b6102e1565b005b6100d560048036038101906100d09190610d7f565b6103a1565b6040516100e3929190610df8565b60405180910390f35b6100f46103ef565b005b6100fe610452565b60405161010b9190610e7a565b60405180910390f35b61011c610475565b6040516101299190610e93565b60405180910390f35b61013a61047b565b005b610144610488565b005b610160600480360381019061015b9190610ed6565b6104ec565b60405161016d9190610e93565b60405180910390f35b5f60075f3373ffffffffffffffffffffffffffffffffffffffff1673ffffffffffffffffffffffffffffffffffffffff1681526020019081526020015f2054146101f5576040517f08c379a00000000000000000000000000000000000000000000000000000000081526004016101ec90610f5b565b60405180910390fd5b600660405180604001604052803373ffffffffffffffffffffffffffffffffffffffff1681526020015f815250908060018154018082558091505060019003905f5260205f2090600202015f909190919091505f820151815f015f6101000a81548173ffffffffffffffffffffffffffffffffffffffff021916908373ffffffffffffffffffffffffffffffffffffffff16021790555060208201518160010155505060068054905060075f3373ffffffffffffffffffffffffffffffffffffffff1673ffffffffffffffffffffffffffffffffffffffff1681526020019081526020015f2081905550565b7f000000000000000000000000000000000000000000000000000000000000000073ffffffffffffffffffffffffffffffffffffffff163373ffffffffffffffffffffffffffffffffffffffff161461039357337f00000000000000000000000000000000000000000000000000000000000000006040517f1cf993f400000000000000000000000000000000000000000000000000000000815260040161038a929190610f79565b60405180910390fd5b61039d8282610501565b5050565b600681815481106103b0575f80fd5b905f5260205f2090600202015f91509050805f015f9054906101000a900473ffffffffffffffffffffffffffffffffffffffff16908060010154905082565b6004600a9054906101000a900473ffffffffffffffffffffffffffffffffffffffff1673ffffffffffffffffffffffffffffffffffffffff163373ffffffffffffffffffffffffffffffffffffffff1614610448575f80fd5b610450610536565b565b5f8054906101000a900473ffffffffffffffffffffffffffffffffffffffff1681565b60055481565b61048633600a6106ff565b565b6004600a9054906101000a900473ffffffffffffffffffffffffffffffffffffffff1673ffffffffffffffffffffffffffffffffffffffff163373ffffffffffffffffffffffffffffffffffffffff16146104e1575f80fd5b6104e96107fd565b50565b6007602052805f5260405f205f915090505481565b600680549050815f8151811061051a57610519610fa0565b5b602002602001015161052c9190610ffa565b6005819055505050565b5f61271090505f60055490505f8054906101000a900473ffffffffffffffffffffffffffffffffffffffff1673ffffffffffffffffffffffffffffffffffffffff1663095ea7b330846040518363ffffffff1660e01b815260040161059c929190610df8565b6020604051808303815f875af11580156105b8573d5f803e3d5ffd5b505050506040513d601f19601f820116820180604052508101906105dc919061105f565b505f81836105ea91906110b7565b90505f5b828110156106f9575f61060d60018361060791906110e7565b846108ee565b90505f8054906101000a900473ffffffffffffffffffffffffffffffffffffffff1673ffffffffffffffffffffffffffffffffffffffff1663a9059cbb6006848154811061065e5761065d610fa0565b5b905f5260205f2090600202015f015f9054906101000a900473ffffffffffffffffffffffffffffffffffffffff16836040518363ffffffff1660e01b81526004016106aa929190610df8565b6020604051808303815f875af11580156106c6573d5f803e3d5ffd5b505050506040513d601f19601f820116820180604052508101906106ea919061105f565b505080806001019150506105ee565b50505050565b5f60075f8473ffffffffffffffffffffffffffffffffffffffff1673ffffffffffffffffffffffffffffffffffffffff1681526020019081526020015f205490505f8111610782576040517f08c379a000000000000000000000000000000000000000000000000000000000815260040161077990611164565b60405180910390fd5b8160066001836107929190611182565b815481106107a3576107a2610fa0565b5b905f5260205f209060020201600101546107bd91906110e7565b60066001836107cc9190611182565b815481106107dd576107dc610fa0565b5b905f5260205f209060020201600101819055506107f8610910565b505050565b5f60015f9054906101000a900473ffffffffffffffffffffffffffffffffffffffff1673ffffffffffffffffffffffffffffffffffffffff16635d3b1d30600354600160149054906101000a900467ffffffffffffffff1660048054906101000a900461ffff1660045f9054906101000a900463ffffffff16600460069054906101000a900463ffffffff166040518663ffffffff1660e01b81526004016108a9959493929190611229565b6020604051808303815f875af11580156108c5573d5f803e3d5ffd5b505050506040513d601f19601f820116820180604052508101906108e9919061128e565b905090565b5f826005546108fd9190611182565b8261090891906112b9565b905092915050565b5f5b60016006805490506109249190611182565b811015610b8e575f5b6001826006805490506109409190611182565b61094a9190611182565b811015610b8057600660018261096091906110e7565b8154811061097157610970610fa0565b5b905f5260205f209060020201600101546006828154811061099557610994610fa0565b5b905f5260205f209060020201600101541015610b73575f600682815481106109c0576109bf610fa0565b5b905f5260205f2090600202016040518060400160405290815f82015f9054906101000a900473ffffffffffffffffffffffffffffffffffffffff1673ffffffffffffffffffffffffffffffffffffffff1673ffffffffffffffffffffffffffffffffffffffff16815260200160018201548152505090506006600183610a4691906110e7565b81548110610a5757610a56610fa0565b5b905f5260205f20906002020160068381548110610a7757610a76610fa0565b5b905f5260205f2090600202015f82015f9054906101000a900473ffffffffffffffffffffffffffffffffffffffff16815f015f6101000a81548173ffffffffffffffffffffffffffffffffffffffff021916908373ffffffffffffffffffffffffffffffffffffffff16021790555060018201548160010155905050806006600184610b0391906110e7565b81548110610b1457610b13610fa0565b5b905f5260205f2090600202015f820151815f015f6101000a81548173ffffffffffffffffffffffffffffffffffffffff021916908373ffffffffffffffffffffffffffffffffffffffff16021790555060208201518160010155905050505b808060010191505061092d565b508080600101915050610912565b50565b5f604051905090565b5f80fd5b5f80fd5b5f819050919050565b610bb481610ba2565b8114610bbe575f80fd5b50565b5f81359050610bcf81610bab565b92915050565b5f80fd5b5f601f19601f8301169050919050565b7f4e487b71000000000000000000000000000000000000000000000000000000005f52604160045260245ffd5b610c1f82610bd9565b810181811067ffffffffffffffff82111715610c3e57610c3d610be9565b5b80604052505050565b5f610c50610b91565b9050610c5c8282610c16565b919050565b5f67ffffffffffffffff821115610c7b57610c7a610be9565b5b602082029050602081019050919050565b5f80fd5b5f610ca2610c9d84610c61565b610c47565b90508083825260208201905060208402830185811115610cc557610cc4610c8c565b5b835b81811015610cee5780610cda8882610bc1565b845260208401935050602081019050610cc7565b5050509392505050565b5f82601f830112610d0c57610d0b610bd5565b5b8135610d1c848260208601610c90565b91505092915050565b5f8060408385031215610d3b57610d3a610b9a565b5b5f610d4885828601610bc1565b925050602083013567ffffffffffffffff811115610d6957610d68610b9e565b5b610d7585828601610cf8565b9150509250929050565b5f60208284031215610d9457610d93610b9a565b5b5f610da184828501610bc1565b91505092915050565b5f73ffffffffffffffffffffffffffffffffffffffff82169050919050565b5f610dd382610daa565b9050919050565b610de381610dc9565b82525050565b610df281610ba2565b82525050565b5f604082019050610e0b5f830185610dda565b610e186020830184610de9565b9392505050565b5f819050919050565b5f610e42610e3d610e3884610daa565b610e1f565b610daa565b9050919050565b5f610e5382610e28565b9050919050565b5f610e6482610e49565b9050919050565b610e7481610e5a565b82525050565b5f602082019050610e8d5f830184610e6b565b92915050565b5f602082019050610ea65f830184610de9565b92915050565b610eb581610dc9565b8114610ebf575f80fd5b50565b5f81359050610ed081610eac565b92915050565b5f60208284031215610eeb57610eea610b9a565b5b5f610ef884828501610ec2565b91505092915050565b5f82825260208201905092915050565b7f416c7265616479207265676973746572640000000000000000000000000000005f82015250565b5f610f45601183610f01565b9150610f5082610f11565b602082019050919050565b5f6020820190508181035f830152610f7281610f39565b9050919050565b5f604082019050610f8c5f830185610dda565b610f996020830184610dda565b9392505050565b7f4e487b71000000000000000000000000000000000000000000000000000000005f52603260045260245ffd5b7f4e487b71000000000000000000000000000000000000000000000000000000005f52601260045260245ffd5b5f61100482610ba2565b915061100f83610ba2565b92508261101f5761101e610fcd565b5b828206905092915050565b5f8115159050919050565b61103e8161102a565b8114611048575f80fd5b50565b5f8151905061105981611035565b92915050565b5f6020828403121561107457611073610b9a565b5b5f6110818482850161104b565b91505092915050565b7f4e487b71000000000000000000000000000000000000000000000000000000005f52601160045260245ffd5b5f6110c182610ba2565b91506110cc83610ba2565b9250826110dc576110db610fcd565b5b828204905092915050565b5f6110f182610ba2565b91506110fc83610ba2565b92508282019050808211156111145761111361108a565b5b92915050565b7f5061727469636970616e74206e6f7420666f756e642e000000000000000000005f82015250565b5f61114e601683610f01565b91506111598261111a565b602082019050919050565b5f6020820190508181035f83015261117b81611142565b9050919050565b5f61118c82610ba2565b915061119783610ba2565b92508282039050818111156111af576111ae61108a565b5b92915050565b5f819050919050565b6111c7816111b5565b82525050565b5f67ffffffffffffffff82169050919050565b6111e9816111cd565b82525050565b5f61ffff82169050919050565b611205816111ef565b82525050565b5f63ffffffff82169050919050565b6112238161120b565b82525050565b5f60a08201905061123c5f8301886111be565b61124960208301876111e0565b61125660408301866111fc565b611263606083018561121a565b611270608083018461121a565b9695505050505050565b5f8151905061128881610bab565b92915050565b5f602082840312156112a3576112a2610b9a565b5b5f6112b08482850161127a565b91505092915050565b5f6112c382610ba2565b91506112ce83610ba2565b92508282026112dc81610ba2565b915082820484148315176112f3576112f261108a565b5b509291505056fea26469706673582212204be9ea397d18465984313fa58179e42650a20a232413cab984bbd207a5d4540064736f6c63430008180033",
					"opcodes": "PUSH1 0xA0 PUSH1 0x40 MSTORE PUSH20 0x8103B0A8A00BE2DDC778E6E7EAA21791CD364625 PUSH1 0x2 PUSH0 PUSH2 0x100 EXP DUP2 SLOAD DUP2 PUSH20 0xFFFFFFFFFFFFFFFFFFFFFFFFFFFFFFFFFFFFFFFF MUL NOT AND SWAP1 DUP4 PUSH20 0xFFFFFFFFFFFFFFFFFFFFFFFFFFFFFFFFFFFFFFFF AND MUL OR SWAP1 SSTORE POP PUSH32 0x474E34A077DF58807DBE9C96D3C009B23B3C6D0CCE433E59BBF5B34F823BC56C PUSH0 SHL PUSH1 0x3 SSTORE PUSH2 0x9C40 PUSH1 0x4 PUSH0 PUSH2 0x100 EXP DUP2 SLOAD DUP2 PUSH4 0xFFFFFFFF MUL NOT AND SWAP1 DUP4 PUSH4 0xFFFFFFFF AND MUL OR SWAP1 SSTORE POP PUSH1 0x3 PUSH1 0x4 DUP1 PUSH2 0x100 EXP DUP2 SLOAD DUP2 PUSH2 0xFFFF MUL NOT AND SWAP1 DUP4 PUSH2 0xFFFF AND MUL OR SWAP1 SSTORE POP PUSH1 0x1 PUSH1 0x4 PUSH1 0x6 PUSH2 0x100 EXP DUP2 SLOAD DUP2 PUSH4 0xFFFFFFFF MUL NOT AND SWAP1 DUP4 PUSH4 0xFFFFFFFF AND MUL OR SWAP1 SSTORE POP CALLVALUE DUP1 ISZERO PUSH3 0xEB JUMPI PUSH0 DUP1 REVERT JUMPDEST POP PUSH1 0x40 MLOAD PUSH3 0x16B6 CODESIZE SUB DUP1 PUSH3 0x16B6 DUP4 CODECOPY DUP2 DUP2 ADD PUSH1 0x40 MSTORE DUP2 ADD SWAP1 PUSH3 0x111 SWAP2 SWAP1 PUSH3 0x321 JUMP JUMPDEST PUSH1 0x2 PUSH0 SWAP1 SLOAD SWAP1 PUSH2 0x100 EXP SWAP1 DIV PUSH20 0xFFFFFFFFFFFFFFFFFFFFFFFFFFFFFFFFFFFFFFFF AND DUP1 PUSH20 0xFFFFFFFFFFFFFFFFFFFFFFFFFFFFFFFFFFFFFFFF AND PUSH1 0x80 DUP2 PUSH20 0xFFFFFFFFFFFFFFFFFFFFFFFFFFFFFFFFFFFFFFFF AND DUP2 MSTORE POP POP POP PUSH1 0x2 PUSH0 SWAP1 SLOAD SWAP1 PUSH2 0x100 EXP SWAP1 DIV PUSH20 0xFFFFFFFFFFFFFFFFFFFFFFFFFFFFFFFFFFFFFFFF AND PUSH1 0x1 PUSH0 PUSH2 0x100 EXP DUP2 SLOAD DUP2 PUSH20 0xFFFFFFFFFFFFFFFFFFFFFFFFFFFFFFFFFFFFFFFF MUL NOT AND SWAP1 DUP4 PUSH20 0xFFFFFFFFFFFFFFFFFFFFFFFFFFFFFFFFFFFFFFFF AND MUL OR SWAP1 SSTORE POP CALLER PUSH1 0x4 PUSH1 0xA PUSH2 0x100 EXP DUP2 SLOAD DUP2 PUSH20 0xFFFFFFFFFFFFFFFFFFFFFFFFFFFFFFFFFFFFFFFF MUL NOT AND SWAP1 DUP4 PUSH20 0xFFFFFFFFFFFFFFFFFFFFFFFFFFFFFFFFFFFFFFFF AND MUL OR SWAP1 SSTORE POP DUP2 PUSH1 0x1 PUSH1 0x14 PUSH2 0x100 EXP DUP2 SLOAD DUP2 PUSH8 0xFFFFFFFFFFFFFFFF MUL NOT AND SWAP1 DUP4 PUSH8 0xFFFFFFFFFFFFFFFF AND MUL OR SWAP1 SSTORE POP DUP1 PUSH0 DUP1 PUSH2 0x100 EXP DUP2 SLOAD DUP2 PUSH20 0xFFFFFFFFFFFFFFFFFFFFFFFFFFFFFFFFFFFFFFFF MUL NOT AND SWAP1 DUP4 PUSH20 0xFFFFFFFFFFFFFFFFFFFFFFFFFFFFFFFFFFFFFFFF AND MUL OR SWAP1 SSTORE POP POP POP PUSH3 0x366 JUMP JUMPDEST PUSH0 DUP1 REVERT JUMPDEST PUSH0 PUSH8 0xFFFFFFFFFFFFFFFF DUP3 AND SWAP1 POP SWAP2 SWAP1 POP JUMP JUMPDEST PUSH3 0x29C DUP2 PUSH3 0x27E JUMP JUMPDEST DUP2 EQ PUSH3 0x2A7 JUMPI PUSH0 DUP1 REVERT JUMPDEST POP JUMP JUMPDEST PUSH0 DUP2 MLOAD SWAP1 POP PUSH3 0x2BA DUP2 PUSH3 0x291 JUMP JUMPDEST SWAP3 SWAP2 POP POP JUMP JUMPDEST PUSH0 PUSH20 0xFFFFFFFFFFFFFFFFFFFFFFFFFFFFFFFFFFFFFFFF DUP3 AND SWAP1 POP SWAP2 SWAP1 POP JUMP JUMPDEST PUSH0 PUSH3 0x2EB DUP3 PUSH3 0x2C0 JUMP JUMPDEST SWAP1 POP SWAP2 SWAP1 POP JUMP JUMPDEST PUSH3 0x2FD DUP2 PUSH3 0x2DF JUMP JUMPDEST DUP2 EQ PUSH3 0x308 JUMPI PUSH0 DUP1 REVERT JUMPDEST POP JUMP JUMPDEST PUSH0 DUP2 MLOAD SWAP1 POP PUSH3 0x31B DUP2 PUSH3 0x2F2 JUMP JUMPDEST SWAP3 SWAP2 POP POP JUMP JUMPDEST PUSH0 DUP1 PUSH1 0x40 DUP4 DUP6 SUB SLT ISZERO PUSH3 0x33A JUMPI PUSH3 0x339 PUSH3 0x27A JUMP JUMPDEST JUMPDEST PUSH0 PUSH3 0x349 DUP6 DUP3 DUP7 ADD PUSH3 0x2AA JUMP JUMPDEST SWAP3 POP POP PUSH1 0x20 PUSH3 0x35C DUP6 DUP3 DUP7 ADD PUSH3 0x30B JUMP JUMPDEST SWAP2 POP POP SWAP3 POP SWAP3 SWAP1 POP JUMP JUMPDEST PUSH1 0x80 MLOAD PUSH2 0x1330 PUSH3 0x386 PUSH0 CODECOPY PUSH0 DUP2 DUP2 PUSH2 0x2E3 ADD MSTORE PUSH2 0x337 ADD MSTORE PUSH2 0x1330 PUSH0 RETURN INVALID PUSH1 0x80 PUSH1 0x40 MSTORE CALLVALUE DUP1 ISZERO PUSH2 0xF JUMPI PUSH0 DUP1 REVERT JUMPDEST POP PUSH1 0x4 CALLDATASIZE LT PUSH2 0x91 JUMPI PUSH0 CALLDATALOAD PUSH1 0xE0 SHR DUP1 PUSH4 0x55A373D6 GT PUSH2 0x64 JUMPI DUP1 PUSH4 0x55A373D6 EQ PUSH2 0xF6 JUMPI DUP1 PUSH4 0x8E3957D9 EQ PUSH2 0x114 JUMPI DUP1 PUSH4 0xB47A1CD4 EQ PUSH2 0x132 JUMPI DUP1 PUSH4 0xEBE50D6F EQ PUSH2 0x13C JUMPI DUP1 PUSH4 0xFBF4A367 EQ PUSH2 0x146 JUMPI PUSH2 0x91 JUMP JUMPDEST DUP1 PUSH4 0x19E5BF3A EQ PUSH2 0x95 JUMPI DUP1 PUSH4 0x1FE543E3 EQ PUSH2 0x9F JUMPI DUP1 PUSH4 0x35C1D349 EQ PUSH2 0xBB JUMPI DUP1 PUSH4 0x3F6B6F2E EQ PUSH2 0xEC JUMPI JUMPDEST PUSH0 DUP1 REVERT JUMPDEST PUSH2 0x9D PUSH2 0x176 JUMP JUMPDEST STOP JUMPDEST PUSH2 0xB9 PUSH1 0x4 DUP1 CALLDATASIZE SUB DUP2 ADD SWAP1 PUSH2 0xB4 SWAP2 SWAP1 PUSH2 0xD25 JUMP JUMPDEST PUSH2 0x2E1 JUMP JUMPDEST STOP JUMPDEST PUSH2 0xD5 PUSH1 0x4 DUP1 CALLDATASIZE SUB DUP2 ADD SWAP1 PUSH2 0xD0 SWAP2 SWAP1 PUSH2 0xD7F JUMP JUMPDEST PUSH2 0x3A1 JUMP JUMPDEST PUSH1 0x40 MLOAD PUSH2 0xE3 SWAP3 SWAP2 SWAP1 PUSH2 0xDF8 JUMP JUMPDEST PUSH1 0x40 MLOAD DUP1 SWAP2 SUB SWAP1 RETURN JUMPDEST PUSH2 0xF4 PUSH2 0x3EF JUMP JUMPDEST STOP JUMPDEST PUSH2 0xFE PUSH2 0x452 JUMP JUMPDEST PUSH1 0x40 MLOAD PUSH2 0x10B SWAP2 SWAP1 PUSH2 0xE7A JUMP JUMPDEST PUSH1 0x40 MLOAD DUP1 SWAP2 SUB SWAP1 RETURN JUMPDEST PUSH2 0x11C PUSH2 0x475 JUMP JUMPDEST PUSH1 0x40 MLOAD PUSH2 0x129 SWAP2 SWAP1 PUSH2 0xE93 JUMP JUMPDEST PUSH1 0x40 MLOAD DUP1 SWAP2 SUB SWAP1 RETURN JUMPDEST PUSH2 0x13A PUSH2 0x47B JUMP JUMPDEST STOP JUMPDEST PUSH2 0x144 PUSH2 0x488 JUMP JUMPDEST STOP JUMPDEST PUSH2 0x160 PUSH1 0x4 DUP1 CALLDATASIZE SUB DUP2 ADD SWAP1 PUSH2 0x15B SWAP2 SWAP1 PUSH2 0xED6 JUMP JUMPDEST PUSH2 0x4EC JUMP JUMPDEST PUSH1 0x40 MLOAD PUSH2 0x16D SWAP2 SWAP1 PUSH2 0xE93 JUMP JUMPDEST PUSH1 0x40 MLOAD DUP1 SWAP2 SUB SWAP1 RETURN JUMPDEST PUSH0 PUSH1 0x7 PUSH0 CALLER PUSH20 0xFFFFFFFFFFFFFFFFFFFFFFFFFFFFFFFFFFFFFFFF AND PUSH20 0xFFFFFFFFFFFFFFFFFFFFFFFFFFFFFFFFFFFFFFFF AND DUP2 MSTORE PUSH1 0x20 ADD SWAP1 DUP2 MSTORE PUSH1 0x20 ADD PUSH0 KECCAK256 SLOAD EQ PUSH2 0x1F5 JUMPI PUSH1 0x40 MLOAD PUSH32 0x8C379A000000000000000000000000000000000000000000000000000000000 DUP2 MSTORE PUSH1 0x4 ADD PUSH2 0x1EC SWAP1 PUSH2 0xF5B JUMP JUMPDEST PUSH1 0x40 MLOAD DUP1 SWAP2 SUB SWAP1 REVERT JUMPDEST PUSH1 0x6 PUSH1 0x40 MLOAD DUP1 PUSH1 0x40 ADD PUSH1 0x40 MSTORE DUP1 CALLER PUSH20 0xFFFFFFFFFFFFFFFFFFFFFFFFFFFFFFFFFFFFFFFF AND DUP2 MSTORE PUSH1 0x20 ADD PUSH0 DUP2 MSTORE POP SWAP1 DUP1 PUSH1 0x1 DUP2 SLOAD ADD DUP1 DUP3 SSTORE DUP1 SWAP2 POP POP PUSH1 0x1 SWAP1 SUB SWAP1 PUSH0 MSTORE PUSH1 0x20 PUSH0 KECCAK256 SWAP1 PUSH1 0x2 MUL ADD PUSH0 SWAP1 SWAP2 SWAP1 SWAP2 SWAP1 SWAP2 POP PUSH0 DUP3 ADD MLOAD DUP2 PUSH0 ADD PUSH0 PUSH2 0x100 EXP DUP2 SLOAD DUP2 PUSH20 0xFFFFFFFFFFFFFFFFFFFFFFFFFFFFFFFFFFFFFFFF MUL NOT AND SWAP1 DUP4 PUSH20 0xFFFFFFFFFFFFFFFFFFFFFFFFFFFFFFFFFFFFFFFF AND MUL OR SWAP1 SSTORE POP PUSH1 0x20 DUP3 ADD MLOAD DUP2 PUSH1 0x1 ADD SSTORE POP POP PUSH1 0x6 DUP1 SLOAD SWAP1 POP PUSH1 0x7 PUSH0 CALLER PUSH20 0xFFFFFFFFFFFFFFFFFFFFFFFFFFFFFFFFFFFFFFFF AND PUSH20 0xFFFFFFFFFFFFFFFFFFFFFFFFFFFFFFFFFFFFFFFF AND DUP2 MSTORE PUSH1 0x20 ADD SWAP1 DUP2 MSTORE PUSH1 0x20 ADD PUSH0 KECCAK256 DUP2 SWAP1 SSTORE POP JUMP JUMPDEST PUSH32 0x0 PUSH20 0xFFFFFFFFFFFFFFFFFFFFFFFFFFFFFFFFFFFFFFFF AND CALLER PUSH20 0xFFFFFFFFFFFFFFFFFFFFFFFFFFFFFFFFFFFFFFFF AND EQ PUSH2 0x393 JUMPI CALLER PUSH32 0x0 PUSH1 0x40 MLOAD PUSH32 0x1CF993F400000000000000000000000000000000000000000000000000000000 DUP2 MSTORE PUSH1 0x4 ADD PUSH2 0x38A SWAP3 SWAP2 SWAP1 PUSH2 0xF79 JUMP JUMPDEST PUSH1 0x40 MLOAD DUP1 SWAP2 SUB SWAP1 REVERT JUMPDEST PUSH2 0x39D DUP3 DUP3 PUSH2 0x501 JUMP JUMPDEST POP POP JUMP JUMPDEST PUSH1 0x6 DUP2 DUP2 SLOAD DUP2 LT PUSH2 0x3B0 JUMPI PUSH0 DUP1 REVERT JUMPDEST SWAP1 PUSH0 MSTORE PUSH1 0x20 PUSH0 KECCAK256 SWAP1 PUSH1 0x2 MUL ADD PUSH0 SWAP2 POP SWAP1 POP DUP1 PUSH0 ADD PUSH0 SWAP1 SLOAD SWAP1 PUSH2 0x100 EXP SWAP1 DIV PUSH20 0xFFFFFFFFFFFFFFFFFFFFFFFFFFFFFFFFFFFFFFFF AND SWAP1 DUP1 PUSH1 0x1 ADD SLOAD SWAP1 POP DUP3 JUMP JUMPDEST PUSH1 0x4 PUSH1 0xA SWAP1 SLOAD SWAP1 PUSH2 0x100 EXP SWAP1 DIV PUSH20 0xFFFFFFFFFFFFFFFFFFFFFFFFFFFFFFFFFFFFFFFF AND PUSH20 0xFFFFFFFFFFFFFFFFFFFFFFFFFFFFFFFFFFFFFFFF AND CALLER PUSH20 0xFFFFFFFFFFFFFFFFFFFFFFFFFFFFFFFFFFFFFFFF AND EQ PUSH2 0x448 JUMPI PUSH0 DUP1 REVERT JUMPDEST PUSH2 0x450 PUSH2 0x536 JUMP JUMPDEST JUMP JUMPDEST PUSH0 DUP1 SLOAD SWAP1 PUSH2 0x100 EXP SWAP1 DIV PUSH20 0xFFFFFFFFFFFFFFFFFFFFFFFFFFFFFFFFFFFFFFFF AND DUP2 JUMP JUMPDEST PUSH1 0x5 SLOAD DUP2 JUMP JUMPDEST PUSH2 0x486 CALLER PUSH1 0xA PUSH2 0x6FF JUMP JUMPDEST JUMP JUMPDEST PUSH1 0x4 PUSH1 0xA SWAP1 SLOAD SWAP1 PUSH2 0x100 EXP SWAP1 DIV PUSH20 0xFFFFFFFFFFFFFFFFFFFFFFFFFFFFFFFFFFFFFFFF AND PUSH20 0xFFFFFFFFFFFFFFFFFFFFFFFFFFFFFFFFFFFFFFFF AND CALLER PUSH20 0xFFFFFFFFFFFFFFFFFFFFFFFFFFFFFFFFFFFFFFFF AND EQ PUSH2 0x4E1 JUMPI PUSH0 DUP1 REVERT JUMPDEST PUSH2 0x4E9 PUSH2 0x7FD JUMP JUMPDEST POP JUMP JUMPDEST PUSH1 0x7 PUSH1 0x20 MSTORE DUP1 PUSH0 MSTORE PUSH1 0x40 PUSH0 KECCAK256 PUSH0 SWAP2 POP SWAP1 POP SLOAD DUP2 JUMP JUMPDEST PUSH1 0x6 DUP1 SLOAD SWAP1 POP DUP2 PUSH0 DUP2 MLOAD DUP2 LT PUSH2 0x51A JUMPI PUSH2 0x519 PUSH2 0xFA0 JUMP JUMPDEST JUMPDEST PUSH1 0x20 MUL PUSH1 0x20 ADD ADD MLOAD PUSH2 0x52C SWAP2 SWAP1 PUSH2 0xFFA JUMP JUMPDEST PUSH1 0x5 DUP2 SWAP1 SSTORE POP POP POP JUMP JUMPDEST PUSH0 PUSH2 0x2710 SWAP1 POP PUSH0 PUSH1 0x5 SLOAD SWAP1 POP PUSH0 DUP1 SLOAD SWAP1 PUSH2 0x100 EXP SWAP1 DIV PUSH20 0xFFFFFFFFFFFFFFFFFFFFFFFFFFFFFFFFFFFFFFFF AND PUSH20 0xFFFFFFFFFFFFFFFFFFFFFFFFFFFFFFFFFFFFFFFF AND PUSH4 0x95EA7B3 ADDRESS DUP5 PUSH1 0x40 MLOAD DUP4 PUSH4 0xFFFFFFFF AND PUSH1 0xE0 SHL DUP2 MSTORE PUSH1 0x4 ADD PUSH2 0x59C SWAP3 SWAP2 SWAP1 PUSH2 0xDF8 JUMP JUMPDEST PUSH1 0x20 PUSH1 0x40 MLOAD DUP1 DUP4 SUB DUP2 PUSH0 DUP8 GAS CALL ISZERO DUP1 ISZERO PUSH2 0x5B8 JUMPI RETURNDATASIZE PUSH0 DUP1 RETURNDATACOPY RETURNDATASIZE PUSH0 REVERT JUMPDEST POP POP POP POP PUSH1 0x40 MLOAD RETURNDATASIZE PUSH1 0x1F NOT PUSH1 0x1F DUP3 ADD AND DUP3 ADD DUP1 PUSH1 0x40 MSTORE POP DUP2 ADD SWAP1 PUSH2 0x5DC SWAP2 SWAP1 PUSH2 0x105F JUMP JUMPDEST POP PUSH0 DUP2 DUP4 PUSH2 0x5EA SWAP2 SWAP1 PUSH2 0x10B7 JUMP JUMPDEST SWAP1 POP PUSH0 JUMPDEST DUP3 DUP2 LT ISZERO PUSH2 0x6F9 JUMPI PUSH0 PUSH2 0x60D PUSH1 0x1 DUP4 PUSH2 0x607 SWAP2 SWAP1 PUSH2 0x10E7 JUMP JUMPDEST DUP5 PUSH2 0x8EE JUMP JUMPDEST SWAP1 POP PUSH0 DUP1 SLOAD SWAP1 PUSH2 0x100 EXP SWAP1 DIV PUSH20 0xFFFFFFFFFFFFFFFFFFFFFFFFFFFFFFFFFFFFFFFF AND PUSH20 0xFFFFFFFFFFFFFFFFFFFFFFFFFFFFFFFFFFFFFFFF AND PUSH4 0xA9059CBB PUSH1 0x6 DUP5 DUP2 SLOAD DUP2 LT PUSH2 0x65E JUMPI PUSH2 0x65D PUSH2 0xFA0 JUMP JUMPDEST JUMPDEST SWAP1 PUSH0 MSTORE PUSH1 0x20 PUSH0 KECCAK256 SWAP1 PUSH1 0x2 MUL ADD PUSH0 ADD PUSH0 SWAP1 SLOAD SWAP1 PUSH2 0x100 EXP SWAP1 DIV PUSH20 0xFFFFFFFFFFFFFFFFFFFFFFFFFFFFFFFFFFFFFFFF AND DUP4 PUSH1 0x40 MLOAD DUP4 PUSH4 0xFFFFFFFF AND PUSH1 0xE0 SHL DUP2 MSTORE PUSH1 0x4 ADD PUSH2 0x6AA SWAP3 SWAP2 SWAP1 PUSH2 0xDF8 JUMP JUMPDEST PUSH1 0x20 PUSH1 0x40 MLOAD DUP1 DUP4 SUB DUP2 PUSH0 DUP8 GAS CALL ISZERO DUP1 ISZERO PUSH2 0x6C6 JUMPI RETURNDATASIZE PUSH0 DUP1 RETURNDATACOPY RETURNDATASIZE PUSH0 REVERT JUMPDEST POP POP POP POP PUSH1 0x40 MLOAD RETURNDATASIZE PUSH1 0x1F NOT PUSH1 0x1F DUP3 ADD AND DUP3 ADD DUP1 PUSH1 0x40 MSTORE POP DUP2 ADD SWAP1 PUSH2 0x6EA SWAP2 SWAP1 PUSH2 0x105F JUMP JUMPDEST POP POP DUP1 DUP1 PUSH1 0x1 ADD SWAP2 POP POP PUSH2 0x5EE JUMP JUMPDEST POP POP POP POP JUMP JUMPDEST PUSH0 PUSH1 0x7 PUSH0 DUP5 PUSH20 0xFFFFFFFFFFFFFFFFFFFFFFFFFFFFFFFFFFFFFFFF AND PUSH20 0xFFFFFFFFFFFFFFFFFFFFFFFFFFFFFFFFFFFFFFFF AND DUP2 MSTORE PUSH1 0x20 ADD SWAP1 DUP2 MSTORE PUSH1 0x20 ADD PUSH0 KECCAK256 SLOAD SWAP1 POP PUSH0 DUP2 GT PUSH2 0x782 JUMPI PUSH1 0x40 MLOAD PUSH32 0x8C379A000000000000000000000000000000000000000000000000000000000 DUP2 MSTORE PUSH1 0x4 ADD PUSH2 0x779 SWAP1 PUSH2 0x1164 JUMP JUMPDEST PUSH1 0x40 MLOAD DUP1 SWAP2 SUB SWAP1 REVERT JUMPDEST DUP2 PUSH1 0x6 PUSH1 0x1 DUP4 PUSH2 0x792 SWAP2 SWAP1 PUSH2 0x1182 JUMP JUMPDEST DUP2 SLOAD DUP2 LT PUSH2 0x7A3 JUMPI PUSH2 0x7A2 PUSH2 0xFA0 JUMP JUMPDEST JUMPDEST SWAP1 PUSH0 MSTORE PUSH1 0x20 PUSH0 KECCAK256 SWAP1 PUSH1 0x2 MUL ADD PUSH1 0x1 ADD SLOAD PUSH2 0x7BD SWAP2 SWAP1 PUSH2 0x10E7 JUMP JUMPDEST PUSH1 0x6 PUSH1 0x1 DUP4 PUSH2 0x7CC SWAP2 SWAP1 PUSH2 0x1182 JUMP JUMPDEST DUP2 SLOAD DUP2 LT PUSH2 0x7DD JUMPI PUSH2 0x7DC PUSH2 0xFA0 JUMP JUMPDEST JUMPDEST SWAP1 PUSH0 MSTORE PUSH1 0x20 PUSH0 KECCAK256 SWAP1 PUSH1 0x2 MUL ADD PUSH1 0x1 ADD DUP2 SWAP1 SSTORE POP PUSH2 0x7F8 PUSH2 0x910 JUMP JUMPDEST POP POP POP JUMP JUMPDEST PUSH0 PUSH1 0x1 PUSH0 SWAP1 SLOAD SWAP1 PUSH2 0x100 EXP SWAP1 DIV PUSH20 0xFFFFFFFFFFFFFFFFFFFFFFFFFFFFFFFFFFFFFFFF AND PUSH20 0xFFFFFFFFFFFFFFFFFFFFFFFFFFFFFFFFFFFFFFFF AND PUSH4 0x5D3B1D30 PUSH1 0x3 SLOAD PUSH1 0x1 PUSH1 0x14 SWAP1 SLOAD SWAP1 PUSH2 0x100 EXP SWAP1 DIV PUSH8 0xFFFFFFFFFFFFFFFF AND PUSH1 0x4 DUP1 SLOAD SWAP1 PUSH2 0x100 EXP SWAP1 DIV PUSH2 0xFFFF AND PUSH1 0x4 PUSH0 SWAP1 SLOAD SWAP1 PUSH2 0x100 EXP SWAP1 DIV PUSH4 0xFFFFFFFF AND PUSH1 0x4 PUSH1 0x6 SWAP1 SLOAD SWAP1 PUSH2 0x100 EXP SWAP1 DIV PUSH4 0xFFFFFFFF AND PUSH1 0x40 MLOAD DUP7 PUSH4 0xFFFFFFFF AND PUSH1 0xE0 SHL DUP2 MSTORE PUSH1 0x4 ADD PUSH2 0x8A9 SWAP6 SWAP5 SWAP4 SWAP3 SWAP2 SWAP1 PUSH2 0x1229 JUMP JUMPDEST PUSH1 0x20 PUSH1 0x40 MLOAD DUP1 DUP4 SUB DUP2 PUSH0 DUP8 GAS CALL ISZERO DUP1 ISZERO PUSH2 0x8C5 JUMPI RETURNDATASIZE PUSH0 DUP1 RETURNDATACOPY RETURNDATASIZE PUSH0 REVERT JUMPDEST POP POP POP POP PUSH1 0x40 MLOAD RETURNDATASIZE PUSH1 0x1F NOT PUSH1 0x1F DUP3 ADD AND DUP3 ADD DUP1 PUSH1 0x40 MSTORE POP DUP2 ADD SWAP1 PUSH2 0x8E9 SWAP2 SWAP1 PUSH2 0x128E JUMP JUMPDEST SWAP1 POP SWAP1 JUMP JUMPDEST PUSH0 DUP3 PUSH1 0x5 SLOAD PUSH2 0x8FD SWAP2 SWAP1 PUSH2 0x1182 JUMP JUMPDEST DUP3 PUSH2 0x908 SWAP2 SWAP1 PUSH2 0x12B9 JUMP JUMPDEST SWAP1 POP SWAP3 SWAP2 POP POP JUMP JUMPDEST PUSH0 JUMPDEST PUSH1 0x1 PUSH1 0x6 DUP1 SLOAD SWAP1 POP PUSH2 0x924 SWAP2 SWAP1 PUSH2 0x1182 JUMP JUMPDEST DUP2 LT ISZERO PUSH2 0xB8E JUMPI PUSH0 JUMPDEST PUSH1 0x1 DUP3 PUSH1 0x6 DUP1 SLOAD SWAP1 POP PUSH2 0x940 SWAP2 SWAP1 PUSH2 0x1182 JUMP JUMPDEST PUSH2 0x94A SWAP2 SWAP1 PUSH2 0x1182 JUMP JUMPDEST DUP2 LT ISZERO PUSH2 0xB80 JUMPI PUSH1 0x6 PUSH1 0x1 DUP3 PUSH2 0x960 SWAP2 SWAP1 PUSH2 0x10E7 JUMP JUMPDEST DUP2 SLOAD DUP2 LT PUSH2 0x971 JUMPI PUSH2 0x970 PUSH2 0xFA0 JUMP JUMPDEST JUMPDEST SWAP1 PUSH0 MSTORE PUSH1 0x20 PUSH0 KECCAK256 SWAP1 PUSH1 0x2 MUL ADD PUSH1 0x1 ADD SLOAD PUSH1 0x6 DUP3 DUP2 SLOAD DUP2 LT PUSH2 0x995 JUMPI PUSH2 0x994 PUSH2 0xFA0 JUMP JUMPDEST JUMPDEST SWAP1 PUSH0 MSTORE PUSH1 0x20 PUSH0 KECCAK256 SWAP1 PUSH1 0x2 MUL ADD PUSH1 0x1 ADD SLOAD LT ISZERO PUSH2 0xB73 JUMPI PUSH0 PUSH1 0x6 DUP3 DUP2 SLOAD DUP2 LT PUSH2 0x9C0 JUMPI PUSH2 0x9BF PUSH2 0xFA0 JUMP JUMPDEST JUMPDEST SWAP1 PUSH0 MSTORE PUSH1 0x20 PUSH0 KECCAK256 SWAP1 PUSH1 0x2 MUL ADD PUSH1 0x40 MLOAD DUP1 PUSH1 0x40 ADD PUSH1 0x40 MSTORE SWAP1 DUP2 PUSH0 DUP3 ADD PUSH0 SWAP1 SLOAD SWAP1 PUSH2 0x100 EXP SWAP1 DIV PUSH20 0xFFFFFFFFFFFFFFFFFFFFFFFFFFFFFFFFFFFFFFFF AND PUSH20 0xFFFFFFFFFFFFFFFFFFFFFFFFFFFFFFFFFFFFFFFF AND PUSH20 0xFFFFFFFFFFFFFFFFFFFFFFFFFFFFFFFFFFFFFFFF AND DUP2 MSTORE PUSH1 0x20 ADD PUSH1 0x1 DUP3 ADD SLOAD DUP2 MSTORE POP POP SWAP1 POP PUSH1 0x6 PUSH1 0x1 DUP4 PUSH2 0xA46 SWAP2 SWAP1 PUSH2 0x10E7 JUMP JUMPDEST DUP2 SLOAD DUP2 LT PUSH2 0xA57 JUMPI PUSH2 0xA56 PUSH2 0xFA0 JUMP JUMPDEST JUMPDEST SWAP1 PUSH0 MSTORE PUSH1 0x20 PUSH0 KECCAK256 SWAP1 PUSH1 0x2 MUL ADD PUSH1 0x6 DUP4 DUP2 SLOAD DUP2 LT PUSH2 0xA77 JUMPI PUSH2 0xA76 PUSH2 0xFA0 JUMP JUMPDEST JUMPDEST SWAP1 PUSH0 MSTORE PUSH1 0x20 PUSH0 KECCAK256 SWAP1 PUSH1 0x2 MUL ADD PUSH0 DUP3 ADD PUSH0 SWAP1 SLOAD SWAP1 PUSH2 0x100 EXP SWAP1 DIV PUSH20 0xFFFFFFFFFFFFFFFFFFFFFFFFFFFFFFFFFFFFFFFF AND DUP2 PUSH0 ADD PUSH0 PUSH2 0x100 EXP DUP2 SLOAD DUP2 PUSH20 0xFFFFFFFFFFFFFFFFFFFFFFFFFFFFFFFFFFFFFFFF MUL NOT AND SWAP1 DUP4 PUSH20 0xFFFFFFFFFFFFFFFFFFFFFFFFFFFFFFFFFFFFFFFF AND MUL OR SWAP1 SSTORE POP PUSH1 0x1 DUP3 ADD SLOAD DUP2 PUSH1 0x1 ADD SSTORE SWAP1 POP POP DUP1 PUSH1 0x6 PUSH1 0x1 DUP5 PUSH2 0xB03 SWAP2 SWAP1 PUSH2 0x10E7 JUMP JUMPDEST DUP2 SLOAD DUP2 LT PUSH2 0xB14 JUMPI PUSH2 0xB13 PUSH2 0xFA0 JUMP JUMPDEST JUMPDEST SWAP1 PUSH0 MSTORE PUSH1 0x20 PUSH0 KECCAK256 SWAP1 PUSH1 0x2 MUL ADD PUSH0 DUP3 ADD MLOAD DUP2 PUSH0 ADD PUSH0 PUSH2 0x100 EXP DUP2 SLOAD DUP2 PUSH20 0xFFFFFFFFFFFFFFFFFFFFFFFFFFFFFFFFFFFFFFFF MUL NOT AND SWAP1 DUP4 PUSH20 0xFFFFFFFFFFFFFFFFFFFFFFFFFFFFFFFFFFFFFFFF AND MUL OR SWAP1 SSTORE POP PUSH1 0x20 DUP3 ADD MLOAD DUP2 PUSH1 0x1 ADD SSTORE SWAP1 POP POP POP JUMPDEST DUP1 DUP1 PUSH1 0x1 ADD SWAP2 POP POP PUSH2 0x92D JUMP JUMPDEST POP DUP1 DUP1 PUSH1 0x1 ADD SWAP2 POP POP PUSH2 0x912 JUMP JUMPDEST POP JUMP JUMPDEST PUSH0 PUSH1 0x40 MLOAD SWAP1 POP SWAP1 JUMP JUMPDEST PUSH0 DUP1 REVERT JUMPDEST PUSH0 DUP1 REVERT JUMPDEST PUSH0 DUP2 SWAP1 POP SWAP2 SWAP1 POP JUMP JUMPDEST PUSH2 0xBB4 DUP2 PUSH2 0xBA2 JUMP JUMPDEST DUP2 EQ PUSH2 0xBBE JUMPI PUSH0 DUP1 REVERT JUMPDEST POP JUMP JUMPDEST PUSH0 DUP2 CALLDATALOAD SWAP1 POP PUSH2 0xBCF DUP2 PUSH2 0xBAB JUMP JUMPDEST SWAP3 SWAP2 POP POP JUMP JUMPDEST PUSH0 DUP1 REVERT JUMPDEST PUSH0 PUSH1 0x1F NOT PUSH1 0x1F DUP4 ADD AND SWAP1 POP SWAP2 SWAP1 POP JUMP JUMPDEST PUSH32 0x4E487B7100000000000000000000000000000000000000000000000000000000 PUSH0 MSTORE PUSH1 0x41 PUSH1 0x4 MSTORE PUSH1 0x24 PUSH0 REVERT JUMPDEST PUSH2 0xC1F DUP3 PUSH2 0xBD9 JUMP JUMPDEST DUP2 ADD DUP2 DUP2 LT PUSH8 0xFFFFFFFFFFFFFFFF DUP3 GT OR ISZERO PUSH2 0xC3E JUMPI PUSH2 0xC3D PUSH2 0xBE9 JUMP JUMPDEST JUMPDEST DUP1 PUSH1 0x40 MSTORE POP POP POP JUMP JUMPDEST PUSH0 PUSH2 0xC50 PUSH2 0xB91 JUMP JUMPDEST SWAP1 POP PUSH2 0xC5C DUP3 DUP3 PUSH2 0xC16 JUMP JUMPDEST SWAP2 SWAP1 POP JUMP JUMPDEST PUSH0 PUSH8 0xFFFFFFFFFFFFFFFF DUP3 GT ISZERO PUSH2 0xC7B JUMPI PUSH2 0xC7A PUSH2 0xBE9 JUMP JUMPDEST JUMPDEST PUSH1 0x20 DUP3 MUL SWAP1 POP PUSH1 0x20 DUP2 ADD SWAP1 POP SWAP2 SWAP1 POP JUMP JUMPDEST PUSH0 DUP1 REVERT JUMPDEST PUSH0 PUSH2 0xCA2 PUSH2 0xC9D DUP5 PUSH2 0xC61 JUMP JUMPDEST PUSH2 0xC47 JUMP JUMPDEST SWAP1 POP DUP1 DUP4 DUP3 MSTORE PUSH1 0x20 DUP3 ADD SWAP1 POP PUSH1 0x20 DUP5 MUL DUP4 ADD DUP6 DUP2 GT ISZERO PUSH2 0xCC5 JUMPI PUSH2 0xCC4 PUSH2 0xC8C JUMP JUMPDEST JUMPDEST DUP4 JUMPDEST DUP2 DUP2 LT ISZERO PUSH2 0xCEE JUMPI DUP1 PUSH2 0xCDA DUP9 DUP3 PUSH2 0xBC1 JUMP JUMPDEST DUP5 MSTORE PUSH1 0x20 DUP5 ADD SWAP4 POP POP PUSH1 0x20 DUP2 ADD SWAP1 POP PUSH2 0xCC7 JUMP JUMPDEST POP POP POP SWAP4 SWAP3 POP POP POP JUMP JUMPDEST PUSH0 DUP3 PUSH1 0x1F DUP4 ADD SLT PUSH2 0xD0C JUMPI PUSH2 0xD0B PUSH2 0xBD5 JUMP JUMPDEST JUMPDEST DUP2 CALLDATALOAD PUSH2 0xD1C DUP5 DUP3 PUSH1 0x20 DUP7 ADD PUSH2 0xC90 JUMP JUMPDEST SWAP2 POP POP SWAP3 SWAP2 POP POP JUMP JUMPDEST PUSH0 DUP1 PUSH1 0x40 DUP4 DUP6 SUB SLT ISZERO PUSH2 0xD3B JUMPI PUSH2 0xD3A PUSH2 0xB9A JUMP JUMPDEST JUMPDEST PUSH0 PUSH2 0xD48 DUP6 DUP3 DUP7 ADD PUSH2 0xBC1 JUMP JUMPDEST SWAP3 POP POP PUSH1 0x20 DUP4 ADD CALLDATALOAD PUSH8 0xFFFFFFFFFFFFFFFF DUP2 GT ISZERO PUSH2 0xD69 JUMPI PUSH2 0xD68 PUSH2 0xB9E JUMP JUMPDEST JUMPDEST PUSH2 0xD75 DUP6 DUP3 DUP7 ADD PUSH2 0xCF8 JUMP JUMPDEST SWAP2 POP POP SWAP3 POP SWAP3 SWAP1 POP JUMP JUMPDEST PUSH0 PUSH1 0x20 DUP3 DUP5 SUB SLT ISZERO PUSH2 0xD94 JUMPI PUSH2 0xD93 PUSH2 0xB9A JUMP JUMPDEST JUMPDEST PUSH0 PUSH2 0xDA1 DUP5 DUP3 DUP6 ADD PUSH2 0xBC1 JUMP JUMPDEST SWAP2 POP POP SWAP3 SWAP2 POP POP JUMP JUMPDEST PUSH0 PUSH20 0xFFFFFFFFFFFFFFFFFFFFFFFFFFFFFFFFFFFFFFFF DUP3 AND SWAP1 POP SWAP2 SWAP1 POP JUMP JUMPDEST PUSH0 PUSH2 0xDD3 DUP3 PUSH2 0xDAA JUMP JUMPDEST SWAP1 POP SWAP2 SWAP1 POP JUMP JUMPDEST PUSH2 0xDE3 DUP2 PUSH2 0xDC9 JUMP JUMPDEST DUP3 MSTORE POP POP JUMP JUMPDEST PUSH2 0xDF2 DUP2 PUSH2 0xBA2 JUMP JUMPDEST DUP3 MSTORE POP POP JUMP JUMPDEST PUSH0 PUSH1 0x40 DUP3 ADD SWAP1 POP PUSH2 0xE0B PUSH0 DUP4 ADD DUP6 PUSH2 0xDDA JUMP JUMPDEST PUSH2 0xE18 PUSH1 0x20 DUP4 ADD DUP5 PUSH2 0xDE9 JUMP JUMPDEST SWAP4 SWAP3 POP POP POP JUMP JUMPDEST PUSH0 DUP2 SWAP1 POP SWAP2 SWAP1 POP JUMP JUMPDEST PUSH0 PUSH2 0xE42 PUSH2 0xE3D PUSH2 0xE38 DUP5 PUSH2 0xDAA JUMP JUMPDEST PUSH2 0xE1F JUMP JUMPDEST PUSH2 0xDAA JUMP JUMPDEST SWAP1 POP SWAP2 SWAP1 POP JUMP JUMPDEST PUSH0 PUSH2 0xE53 DUP3 PUSH2 0xE28 JUMP JUMPDEST SWAP1 POP SWAP2 SWAP1 POP JUMP JUMPDEST PUSH0 PUSH2 0xE64 DUP3 PUSH2 0xE49 JUMP JUMPDEST SWAP1 POP SWAP2 SWAP1 POP JUMP JUMPDEST PUSH2 0xE74 DUP2 PUSH2 0xE5A JUMP JUMPDEST DUP3 MSTORE POP POP JUMP JUMPDEST PUSH0 PUSH1 0x20 DUP3 ADD SWAP1 POP PUSH2 0xE8D PUSH0 DUP4 ADD DUP5 PUSH2 0xE6B JUMP JUMPDEST SWAP3 SWAP2 POP POP JUMP JUMPDEST PUSH0 PUSH1 0x20 DUP3 ADD SWAP1 POP PUSH2 0xEA6 PUSH0 DUP4 ADD DUP5 PUSH2 0xDE9 JUMP JUMPDEST SWAP3 SWAP2 POP POP JUMP JUMPDEST PUSH2 0xEB5 DUP2 PUSH2 0xDC9 JUMP JUMPDEST DUP2 EQ PUSH2 0xEBF JUMPI PUSH0 DUP1 REVERT JUMPDEST POP JUMP JUMPDEST PUSH0 DUP2 CALLDATALOAD SWAP1 POP PUSH2 0xED0 DUP2 PUSH2 0xEAC JUMP JUMPDEST SWAP3 SWAP2 POP POP JUMP JUMPDEST PUSH0 PUSH1 0x20 DUP3 DUP5 SUB SLT ISZERO PUSH2 0xEEB JUMPI PUSH2 0xEEA PUSH2 0xB9A JUMP JUMPDEST JUMPDEST PUSH0 PUSH2 0xEF8 DUP5 DUP3 DUP6 ADD PUSH2 0xEC2 JUMP JUMPDEST SWAP2 POP POP SWAP3 SWAP2 POP POP JUMP JUMPDEST PUSH0 DUP3 DUP3 MSTORE PUSH1 0x20 DUP3 ADD SWAP1 POP SWAP3 SWAP2 POP POP JUMP JUMPDEST PUSH32 0x416C726561647920726567697374657264000000000000000000000000000000 PUSH0 DUP3 ADD MSTORE POP JUMP JUMPDEST PUSH0 PUSH2 0xF45 PUSH1 0x11 DUP4 PUSH2 0xF01 JUMP JUMPDEST SWAP2 POP PUSH2 0xF50 DUP3 PUSH2 0xF11 JUMP JUMPDEST PUSH1 0x20 DUP3 ADD SWAP1 POP SWAP2 SWAP1 POP JUMP JUMPDEST PUSH0 PUSH1 0x20 DUP3 ADD SWAP1 POP DUP2 DUP2 SUB PUSH0 DUP4 ADD MSTORE PUSH2 0xF72 DUP2 PUSH2 0xF39 JUMP JUMPDEST SWAP1 POP SWAP2 SWAP1 POP JUMP JUMPDEST PUSH0 PUSH1 0x40 DUP3 ADD SWAP1 POP PUSH2 0xF8C PUSH0 DUP4 ADD DUP6 PUSH2 0xDDA JUMP JUMPDEST PUSH2 0xF99 PUSH1 0x20 DUP4 ADD DUP5 PUSH2 0xDDA JUMP JUMPDEST SWAP4 SWAP3 POP POP POP JUMP JUMPDEST PUSH32 0x4E487B7100000000000000000000000000000000000000000000000000000000 PUSH0 MSTORE PUSH1 0x32 PUSH1 0x4 MSTORE PUSH1 0x24 PUSH0 REVERT JUMPDEST PUSH32 0x4E487B7100000000000000000000000000000000000000000000000000000000 PUSH0 MSTORE PUSH1 0x12 PUSH1 0x4 MSTORE PUSH1 0x24 PUSH0 REVERT JUMPDEST PUSH0 PUSH2 0x1004 DUP3 PUSH2 0xBA2 JUMP JUMPDEST SWAP2 POP PUSH2 0x100F DUP4 PUSH2 0xBA2 JUMP JUMPDEST SWAP3 POP DUP3 PUSH2 0x101F JUMPI PUSH2 0x101E PUSH2 0xFCD JUMP JUMPDEST JUMPDEST DUP3 DUP3 MOD SWAP1 POP SWAP3 SWAP2 POP POP JUMP JUMPDEST PUSH0 DUP2 ISZERO ISZERO SWAP1 POP SWAP2 SWAP1 POP JUMP JUMPDEST PUSH2 0x103E DUP2 PUSH2 0x102A JUMP JUMPDEST DUP2 EQ PUSH2 0x1048 JUMPI PUSH0 DUP1 REVERT JUMPDEST POP JUMP JUMPDEST PUSH0 DUP2 MLOAD SWAP1 POP PUSH2 0x1059 DUP2 PUSH2 0x1035 JUMP JUMPDEST SWAP3 SWAP2 POP POP JUMP JUMPDEST PUSH0 PUSH1 0x20 DUP3 DUP5 SUB SLT ISZERO PUSH2 0x1074 JUMPI PUSH2 0x1073 PUSH2 0xB9A JUMP JUMPDEST JUMPDEST PUSH0 PUSH2 0x1081 DUP5 DUP3 DUP6 ADD PUSH2 0x104B JUMP JUMPDEST SWAP2 POP POP SWAP3 SWAP2 POP POP JUMP JUMPDEST PUSH32 0x4E487B7100000000000000000000000000000000000000000000000000000000 PUSH0 MSTORE PUSH1 0x11 PUSH1 0x4 MSTORE PUSH1 0x24 PUSH0 REVERT JUMPDEST PUSH0 PUSH2 0x10C1 DUP3 PUSH2 0xBA2 JUMP JUMPDEST SWAP2 POP PUSH2 0x10CC DUP4 PUSH2 0xBA2 JUMP JUMPDEST SWAP3 POP DUP3 PUSH2 0x10DC JUMPI PUSH2 0x10DB PUSH2 0xFCD JUMP JUMPDEST JUMPDEST DUP3 DUP3 DIV SWAP1 POP SWAP3 SWAP2 POP POP JUMP JUMPDEST PUSH0 PUSH2 0x10F1 DUP3 PUSH2 0xBA2 JUMP JUMPDEST SWAP2 POP PUSH2 0x10FC DUP4 PUSH2 0xBA2 JUMP JUMPDEST SWAP3 POP DUP3 DUP3 ADD SWAP1 POP DUP1 DUP3 GT ISZERO PUSH2 0x1114 JUMPI PUSH2 0x1113 PUSH2 0x108A JUMP JUMPDEST JUMPDEST SWAP3 SWAP2 POP POP JUMP JUMPDEST PUSH32 0x5061727469636970616E74206E6F7420666F756E642E00000000000000000000 PUSH0 DUP3 ADD MSTORE POP JUMP JUMPDEST PUSH0 PUSH2 0x114E PUSH1 0x16 DUP4 PUSH2 0xF01 JUMP JUMPDEST SWAP2 POP PUSH2 0x1159 DUP3 PUSH2 0x111A JUMP JUMPDEST PUSH1 0x20 DUP3 ADD SWAP1 POP SWAP2 SWAP1 POP JUMP JUMPDEST PUSH0 PUSH1 0x20 DUP3 ADD SWAP1 POP DUP2 DUP2 SUB PUSH0 DUP4 ADD MSTORE PUSH2 0x117B DUP2 PUSH2 0x1142 JUMP JUMPDEST SWAP1 POP SWAP2 SWAP1 POP JUMP JUMPDEST PUSH0 PUSH2 0x118C DUP3 PUSH2 0xBA2 JUMP JUMPDEST SWAP2 POP PUSH2 0x1197 DUP4 PUSH2 0xBA2 JUMP JUMPDEST SWAP3 POP DUP3 DUP3 SUB SWAP1 POP DUP2 DUP2 GT ISZERO PUSH2 0x11AF JUMPI PUSH2 0x11AE PUSH2 0x108A JUMP JUMPDEST JUMPDEST SWAP3 SWAP2 POP POP JUMP JUMPDEST PUSH0 DUP2 SWAP1 POP SWAP2 SWAP1 POP JUMP JUMPDEST PUSH2 0x11C7 DUP2 PUSH2 0x11B5 JUMP JUMPDEST DUP3 MSTORE POP POP JUMP JUMPDEST PUSH0 PUSH8 0xFFFFFFFFFFFFFFFF DUP3 AND SWAP1 POP SWAP2 SWAP1 POP JUMP JUMPDEST PUSH2 0x11E9 DUP2 PUSH2 0x11CD JUMP JUMPDEST DUP3 MSTORE POP POP JUMP JUMPDEST PUSH0 PUSH2 0xFFFF DUP3 AND SWAP1 POP SWAP2 SWAP1 POP JUMP JUMPDEST PUSH2 0x1205 DUP2 PUSH2 0x11EF JUMP JUMPDEST DUP3 MSTORE POP POP JUMP JUMPDEST PUSH0 PUSH4 0xFFFFFFFF DUP3 AND SWAP1 POP SWAP2 SWAP1 POP JUMP JUMPDEST PUSH2 0x1223 DUP2 PUSH2 0x120B JUMP JUMPDEST DUP3 MSTORE POP POP JUMP JUMPDEST PUSH0 PUSH1 0xA0 DUP3 ADD SWAP1 POP PUSH2 0x123C PUSH0 DUP4 ADD DUP9 PUSH2 0x11BE JUMP JUMPDEST PUSH2 0x1249 PUSH1 0x20 DUP4 ADD DUP8 PUSH2 0x11E0 JUMP JUMPDEST PUSH2 0x1256 PUSH1 0x40 DUP4 ADD DUP7 PUSH2 0x11FC JUMP JUMPDEST PUSH2 0x1263 PUSH1 0x60 DUP4 ADD DUP6 PUSH2 0x121A JUMP JUMPDEST PUSH2 0x1270 PUSH1 0x80 DUP4 ADD DUP5 PUSH2 0x121A JUMP JUMPDEST SWAP7 SWAP6 POP POP POP POP POP POP JUMP JUMPDEST PUSH0 DUP2 MLOAD SWAP1 POP PUSH2 0x1288 DUP2 PUSH2 0xBAB JUMP JUMPDEST SWAP3 SWAP2 POP POP JUMP JUMPDEST PUSH0 PUSH1 0x20 DUP3 DUP5 SUB SLT ISZERO PUSH2 0x12A3 JUMPI PUSH2 0x12A2 PUSH2 0xB9A JUMP JUMPDEST JUMPDEST PUSH0 PUSH2 0x12B0 DUP5 DUP3 DUP6 ADD PUSH2 0x127A JUMP JUMPDEST SWAP2 POP POP SWAP3 SWAP2 POP POP JUMP JUMPDEST PUSH0 PUSH2 0x12C3 DUP3 PUSH2 0xBA2 JUMP JUMPDEST SWAP2 POP PUSH2 0x12CE DUP4 PUSH2 0xBA2 JUMP JUMPDEST SWAP3 POP DUP3 DUP3 MUL PUSH2 0x12DC DUP2 PUSH2 0xBA2 JUMP JUMPDEST SWAP2 POP DUP3 DUP3 DIV DUP5 EQ DUP4 ISZERO OR PUSH2 0x12F3 JUMPI PUSH2 0x12F2 PUSH2 0x108A JUMP JUMPDEST JUMPDEST POP SWAP3 SWAP2 POP POP JUMP INVALID LOG2 PUSH5 0x6970667358 0x22 SLT KECCAK256 0x4B 0xE9 0xEA CODECOPY PUSH30 0x18465984313FA58179E42650A20A232413CAB984BBD207A5D4540064736F PUSH13 0x63430008180033000000000000 "
				},
				"gasEstimates": {
					"creation": {
						"codeDepositCost": "982400",
						"executionCost": "infinite",
						"totalCost": "infinite"
					},
					"external": {
						"Airdrop()": "infinite",
						"PerformTaskOne()": "infinite",
						"PrepareAirdrop()": "infinite",
						"RandomNumber()": "2447",
						"Register()": "80357",
						"participants(uint256)": "infinite",
						"rawFulfillRandomWords(uint256,uint256[])": "infinite",
						"taskPerformedIndex(address)": "2890",
						"tokenContract()": "infinite"
					},
					"internal": {
						"_calculateEntries()": "infinite",
						"_performDistribution()": "infinite",
						"_performTask(address,uint256)": "infinite",
						"_randomWinners()": "infinite",
						"_sortParticipants()": "infinite",
						"calculateAdjustedTokens(uint256,uint256)": "infinite",
						"fulfillRandomWords(uint256,uint256[] memory)": "infinite"
					}
				},
				"methodIdentifiers": {
					"Airdrop()": "3f6b6f2e",
					"PerformTaskOne()": "b47a1cd4",
					"PrepareAirdrop()": "ebe50d6f",
					"RandomNumber()": "8e3957d9",
					"Register()": "19e5bf3a",
					"participants(uint256)": "35c1d349",
					"rawFulfillRandomWords(uint256,uint256[])": "1fe543e3",
					"taskPerformedIndex(address)": "fbf4a367",
					"tokenContract()": "55a373d6"
				}
			},
			"storageLayout": {
				"storage": [
					{
						"astId": 243,
						"contract": "contracts/Distribution.sol:Distribution",
						"label": "tokenContract",
						"offset": 0,
						"slot": "0",
						"type": "t_contract(IERC20)231"
					},
					{
						"astId": 246,
						"contract": "contracts/Distribution.sol:Distribution",
						"label": "COORDINATOR",
						"offset": 0,
						"slot": "1",
						"type": "t_contract(VRFCoordinatorV2Interface)95"
					},
					{
						"astId": 248,
						"contract": "contracts/Distribution.sol:Distribution",
						"label": "s_subscriptionId",
						"offset": 20,
						"slot": "1",
						"type": "t_uint64"
					},
					{
						"astId": 251,
						"contract": "contracts/Distribution.sol:Distribution",
						"label": "vrfCoordinator",
						"offset": 0,
						"slot": "2",
						"type": "t_address"
					},
					{
						"astId": 254,
						"contract": "contracts/Distribution.sol:Distribution",
						"label": "s_keyHash",
						"offset": 0,
						"slot": "3",
						"type": "t_bytes32"
					},
					{
						"astId": 257,
						"contract": "contracts/Distribution.sol:Distribution",
						"label": "callbackGasLimit",
						"offset": 0,
						"slot": "4",
						"type": "t_uint32"
					},
					{
						"astId": 260,
						"contract": "contracts/Distribution.sol:Distribution",
						"label": "requestConfirmations",
						"offset": 4,
						"slot": "4",
						"type": "t_uint16"
					},
					{
						"astId": 263,
						"contract": "contracts/Distribution.sol:Distribution",
						"label": "numWords",
						"offset": 6,
						"slot": "4",
						"type": "t_uint32"
					},
					{
						"astId": 265,
						"contract": "contracts/Distribution.sol:Distribution",
						"label": "s_owner",
						"offset": 10,
						"slot": "4",
						"type": "t_address"
					},
					{
						"astId": 299,
						"contract": "contracts/Distribution.sol:Distribution",
						"label": "RandomNumber",
						"offset": 0,
						"slot": "5",
						"type": "t_uint256"
					},
					{
						"astId": 308,
						"contract": "contracts/Distribution.sol:Distribution",
						"label": "participants",
						"offset": 0,
						"slot": "6",
						"type": "t_array(t_struct(ParticipantStruct)304_storage)dyn_storage"
					},
					{
						"astId": 312,
						"contract": "contracts/Distribution.sol:Distribution",
						"label": "taskPerformedIndex",
						"offset": 0,
						"slot": "7",
						"type": "t_mapping(t_address,t_uint256)"
					}
				],
				"types": {
					"t_address": {
						"encoding": "inplace",
						"label": "address",
						"numberOfBytes": "20"
					},
					"t_array(t_struct(ParticipantStruct)304_storage)dyn_storage": {
						"base": "t_struct(ParticipantStruct)304_storage",
						"encoding": "dynamic_array",
						"label": "struct Distribution.ParticipantStruct[]",
						"numberOfBytes": "32"
					},
					"t_bytes32": {
						"encoding": "inplace",
						"label": "bytes32",
						"numberOfBytes": "32"
					},
					"t_contract(IERC20)231": {
						"encoding": "inplace",
						"label": "contract IERC20",
						"numberOfBytes": "20"
					},
					"t_contract(VRFCoordinatorV2Interface)95": {
						"encoding": "inplace",
						"label": "contract VRFCoordinatorV2Interface",
						"numberOfBytes": "20"
					},
					"t_mapping(t_address,t_uint256)": {
						"encoding": "mapping",
						"key": "t_address",
						"label": "mapping(address => uint256)",
						"numberOfBytes": "32",
						"value": "t_uint256"
					},
					"t_struct(ParticipantStruct)304_storage": {
						"encoding": "inplace",
						"label": "struct Distribution.ParticipantStruct",
						"members": [
							{
								"astId": 301,
								"contract": "contracts/Distribution.sol:Distribution",
								"label": "Participant",
								"offset": 0,
								"slot": "0",
								"type": "t_address"
							},
							{
								"astId": 303,
								"contract": "contracts/Distribution.sol:Distribution",
								"label": "Points",
								"offset": 0,
								"slot": "1",
								"type": "t_uint256"
							}
						],
						"numberOfBytes": "64"
					},
					"t_uint16": {
						"encoding": "inplace",
						"label": "uint16",
						"numberOfBytes": "2"
					},
					"t_uint256": {
						"encoding": "inplace",
						"label": "uint256",
						"numberOfBytes": "32"
					},
					"t_uint32": {
						"encoding": "inplace",
						"label": "uint32",
						"numberOfBytes": "4"
					},
					"t_uint64": {
						"encoding": "inplace",
						"label": "uint64",
						"numberOfBytes": "8"
					}
				}
			},
			"userdoc": {
				"kind": "user",
				"methods": {},
				"version": 1
			}
		}
	}
}