{
	"contracts/Distribution.sol": {
		"Distribution": {
			"abi": [
				{
					"inputs": [
						{
							"internalType": "uint64",
							"name": "subscriptionId",
							"type": "uint64"
						}
					],
					"stateMutability": "nonpayable",
					"type": "constructor"
				},
				{
					"inputs": [
						{
							"internalType": "address",
							"name": "have",
							"type": "address"
						},
						{
							"internalType": "address",
							"name": "want",
							"type": "address"
						}
					],
					"name": "OnlyCoordinatorCanFulfill",
					"type": "error"
				},
				{
					"inputs": [],
					"name": "PerformTask",
					"outputs": [],
					"stateMutability": "nonpayable",
					"type": "function"
				},
				{
					"inputs": [],
					"name": "Register",
					"outputs": [],
					"stateMutability": "nonpayable",
					"type": "function"
				},
				{
					"inputs": [
						{
							"internalType": "uint256",
							"name": "",
							"type": "uint256"
						}
					],
					"name": "participants",
					"outputs": [
						{
							"internalType": "address",
							"name": "Participant",
							"type": "address"
						},
						{
							"internalType": "uint256",
							"name": "Points",
							"type": "uint256"
						}
					],
					"stateMutability": "view",
					"type": "function"
				},
				{
					"inputs": [
						{
							"internalType": "uint256",
							"name": "requestId",
							"type": "uint256"
						},
						{
							"internalType": "uint256[]",
							"name": "randomWords",
							"type": "uint256[]"
						}
					],
					"name": "rawFulfillRandomWords",
					"outputs": [],
					"stateMutability": "nonpayable",
					"type": "function"
				},
				{
					"inputs": [
						{
							"internalType": "address",
							"name": "",
							"type": "address"
						}
					],
					"name": "taskPerformedIndex",
					"outputs": [
						{
							"internalType": "uint256",
							"name": "",
							"type": "uint256"
						}
					],
					"stateMutability": "view",
					"type": "function"
				}
			],
			"devdoc": {
				"kind": "dev",
				"methods": {},
				"version": 1
			},
			"evm": {
				"assembly": "    /* \"contracts/Distribution.sol\":282:4784  contract Distribution is VRFConsumerBaseV2 {... */\n  mstore(0x40, 0xa0)\n    /* \"contracts/Distribution.sol\":524:566  0x8103B0A8A00be2DDC778e6e7eaa21791Cd364625 */\n  0x8103b0a8a00be2ddc778e6e7eaa21791cd364625\n    /* \"contracts/Distribution.sol\":499:566  address vrfCoordinator = 0x8103B0A8A00be2DDC778e6e7eaa21791Cd364625 */\n  0x01\n  exp(0x0100, 0x00)\n  dup2\n  sload\n  dup2\n  0xffffffffffffffffffffffffffffffffffffffff\n  mul\n  not\n  and\n  swap1\n  dup4\n  0xffffffffffffffffffffffffffffffffffffffff\n  and\n  mul\n  or\n  swap1\n  sstore\n  pop\n    /* \"contracts/Distribution.sol\":679:745  0x474e34a077df58807dbe9c96d3c009b23b3c6d0cce433e59bbf5b34f823bc56c */\n  0x474e34a077df58807dbe9c96d3c009b23b3c6d0cce433e59bbf5b34f823bc56c\n    /* \"contracts/Distribution.sol\":651:745  bytes32 s_keyHash =... */\n  0x00\n  shl\n  0x02\n  sstore\n    /* \"contracts/Distribution.sol\":794:799  40000 */\n  0x9c40\n    /* \"contracts/Distribution.sol\":768:799  uint32 callbackGasLimit = 40000 */\n  0x03\n  exp(0x0100, 0x00)\n  dup2\n  sload\n  dup2\n  0xffffffff\n  mul\n  not\n  and\n  swap1\n  dup4\n  0xffffffff\n  and\n  mul\n  or\n  swap1\n  sstore\n  pop\n    /* \"contracts/Distribution.sol\":890:891  3 */\n  0x03\n    /* \"contracts/Distribution.sol\":860:891  uint16 requestConfirmations = 3 */\n  dup1\n  exp(0x0100, 0x04)\n  dup2\n  sload\n  dup2\n  0xffff\n  mul\n  not\n  and\n  swap1\n  dup4\n  0xffff\n  and\n  mul\n  or\n  swap1\n  sstore\n  pop\n    /* \"contracts/Distribution.sol\":1027:1028  1 */\n  0x01\n    /* \"contracts/Distribution.sol\":1009:1028  uint32 numWords = 1 */\n  0x03\n  exp(0x0100, 0x06)\n  dup2\n  sload\n  dup2\n  0xffffffff\n  mul\n  not\n  and\n  swap1\n  dup4\n  0xffffffff\n  and\n  mul\n  or\n  swap1\n  sstore\n  pop\n    /* \"contracts/Distribution.sol\":1117:1331  constructor(uint64 subscriptionId) VRFConsumerBaseV2(vrfCoordinator) {... */\n  callvalue\n  dup1\n  iszero\n  tag_1\n  jumpi\n  0x00\n  dup1\n  revert\ntag_1:\n  pop\n  mload(0x40)\n  sub(codesize, bytecodeSize)\n  dup1\n  bytecodeSize\n  dup4\n  codecopy\n  dup2\n  dup2\n  add\n  0x40\n  mstore\n  dup2\n  add\n  swap1\n  tag_2\n  swap2\n  swap1\n  tag_3\n  jump\t// in\ntag_2:\n    /* \"contracts/Distribution.sol\":1170:1184  vrfCoordinator */\n  0x01\n  0x00\n  swap1\n  sload\n  swap1\n  0x0100\n  exp\n  swap1\n  div\n  0xffffffffffffffffffffffffffffffffffffffff\n  and\n    /* \"@chainlink/contracts/src/v0.8/vrf/VRFConsumerBaseV2.sol\":5616:5631  _vrfCoordinator */\n  dup1\n    /* \"@chainlink/contracts/src/v0.8/vrf/VRFConsumerBaseV2.sol\":5599:5631  vrfCoordinator = _vrfCoordinator */\n  0xffffffffffffffffffffffffffffffffffffffff\n  and\n  0x80\n  dup2\n  0xffffffffffffffffffffffffffffffffffffffff\n  and\n  dup2\n  mstore\n  pop\n  pop\n    /* \"@chainlink/contracts/src/v0.8/vrf/VRFConsumerBaseV2.sol\":5556:5636  constructor(address _vrfCoordinator) {... */\n  pop\n    /* \"contracts/Distribution.sol\":1236:1250  vrfCoordinator */\n  0x01\n  0x00\n  swap1\n  sload\n  swap1\n  0x0100\n  exp\n  swap1\n  div\n  0xffffffffffffffffffffffffffffffffffffffff\n  and\n    /* \"contracts/Distribution.sol\":1196:1207  COORDINATOR */\n  0x00\n  dup1\n    /* \"contracts/Distribution.sol\":1196:1251  COORDINATOR = VRFCoordinatorV2Interface(vrfCoordinator) */\n  0x0100\n  exp\n  dup2\n  sload\n  dup2\n  0xffffffffffffffffffffffffffffffffffffffff\n  mul\n  not\n  and\n  swap1\n  dup4\n  0xffffffffffffffffffffffffffffffffffffffff\n  and\n  mul\n  or\n  swap1\n  sstore\n  pop\n    /* \"contracts/Distribution.sol\":1271:1281  msg.sender */\n  caller\n    /* \"contracts/Distribution.sol\":1261:1268  s_owner */\n  0x03\n  0x0a\n    /* \"contracts/Distribution.sol\":1261:1281  s_owner = msg.sender */\n  0x0100\n  exp\n  dup2\n  sload\n  dup2\n  0xffffffffffffffffffffffffffffffffffffffff\n  mul\n  not\n  and\n  swap1\n  dup4\n  0xffffffffffffffffffffffffffffffffffffffff\n  and\n  mul\n  or\n  swap1\n  sstore\n  pop\n    /* \"contracts/Distribution.sol\":1310:1324  subscriptionId */\n  dup1\n    /* \"contracts/Distribution.sol\":1291:1307  s_subscriptionId */\n  0x00\n  0x14\n    /* \"contracts/Distribution.sol\":1291:1324  s_subscriptionId = subscriptionId */\n  0x0100\n  exp\n  dup2\n  sload\n  dup2\n  0xffffffffffffffff\n  mul\n  not\n  and\n  swap1\n  dup4\n  0xffffffffffffffff\n  and\n  mul\n  or\n  swap1\n  sstore\n  pop\n    /* \"contracts/Distribution.sol\":1117:1331  constructor(uint64 subscriptionId) VRFConsumerBaseV2(vrfCoordinator) {... */\n  pop\n    /* \"contracts/Distribution.sol\":282:4784  contract Distribution is VRFConsumerBaseV2 {... */\n  jump(tag_8)\n    /* \"#utility.yul\":88:205   */\ntag_10:\n    /* \"#utility.yul\":197:198   */\n  0x00\n    /* \"#utility.yul\":194:195   */\n  dup1\n    /* \"#utility.yul\":187:199   */\n  revert\n    /* \"#utility.yul\":334:435   */\ntag_12:\n    /* \"#utility.yul\":370:377   */\n  0x00\n    /* \"#utility.yul\":410:428   */\n  0xffffffffffffffff\n    /* \"#utility.yul\":403:408   */\n  dup3\n    /* \"#utility.yul\":399:429   */\n  and\n    /* \"#utility.yul\":388:429   */\n  swap1\n  pop\n    /* \"#utility.yul\":334:435   */\n  swap2\n  swap1\n  pop\n  jump\t// out\n    /* \"#utility.yul\":441:561   */\ntag_13:\n    /* \"#utility.yul\":513:536   */\n  tag_21\n    /* \"#utility.yul\":530:535   */\n  dup2\n    /* \"#utility.yul\":513:536   */\n  tag_12\n  jump\t// in\ntag_21:\n    /* \"#utility.yul\":506:511   */\n  dup2\n    /* \"#utility.yul\":503:537   */\n  eq\n    /* \"#utility.yul\":493:555   */\n  tag_22\n  jumpi\n    /* \"#utility.yul\":551:552   */\n  0x00\n    /* \"#utility.yul\":548:549   */\n  dup1\n    /* \"#utility.yul\":541:553   */\n  revert\n    /* \"#utility.yul\":493:555   */\ntag_22:\n    /* \"#utility.yul\":441:561   */\n  pop\n  jump\t// out\n    /* \"#utility.yul\":567:708   */\ntag_14:\n    /* \"#utility.yul\":623:628   */\n  0x00\n    /* \"#utility.yul\":654:660   */\n  dup2\n    /* \"#utility.yul\":648:661   */\n  mload\n    /* \"#utility.yul\":639:661   */\n  swap1\n  pop\n    /* \"#utility.yul\":670:702   */\n  tag_24\n    /* \"#utility.yul\":696:701   */\n  dup2\n    /* \"#utility.yul\":670:702   */\n  tag_13\n  jump\t// in\ntag_24:\n    /* \"#utility.yul\":567:708   */\n  swap3\n  swap2\n  pop\n  pop\n  jump\t// out\n    /* \"#utility.yul\":714:1063   */\ntag_3:\n    /* \"#utility.yul\":783:789   */\n  0x00\n    /* \"#utility.yul\":832:834   */\n  0x20\n    /* \"#utility.yul\":820:829   */\n  dup3\n    /* \"#utility.yul\":811:818   */\n  dup5\n    /* \"#utility.yul\":807:830   */\n  sub\n    /* \"#utility.yul\":803:835   */\n  slt\n    /* \"#utility.yul\":800:919   */\n  iszero\n  tag_26\n  jumpi\n    /* \"#utility.yul\":838:917   */\n  tag_27\n  tag_10\n  jump\t// in\ntag_27:\n    /* \"#utility.yul\":800:919   */\ntag_26:\n    /* \"#utility.yul\":958:959   */\n  0x00\n    /* \"#utility.yul\":983:1046   */\n  tag_28\n    /* \"#utility.yul\":1038:1045   */\n  dup5\n    /* \"#utility.yul\":1029:1035   */\n  dup3\n    /* \"#utility.yul\":1018:1027   */\n  dup6\n    /* \"#utility.yul\":1014:1036   */\n  add\n    /* \"#utility.yul\":983:1046   */\n  tag_14\n  jump\t// in\ntag_28:\n    /* \"#utility.yul\":973:1046   */\n  swap2\n  pop\n    /* \"#utility.yul\":929:1056   */\n  pop\n    /* \"#utility.yul\":714:1063   */\n  swap3\n  swap2\n  pop\n  pop\n  jump\t// out\n    /* \"contracts/Distribution.sol\":282:4784  contract Distribution is VRFConsumerBaseV2 {... */\ntag_8:\n  mload(0x80)\n  codecopy(0x00, dataOffset(sub_0), dataSize(sub_0))\n  0x00\n  assignImmutable(\"0xecb3d63bca2dac2f15cfd948f18f200abecc477e6036fc1499f13da50bed1ba1\")\n  return(0x00, dataSize(sub_0))\nstop\n\nsub_0: assembly {\n        /* \"contracts/Distribution.sol\":282:4784  contract Distribution is VRFConsumerBaseV2 {... */\n      mstore(0x40, 0x80)\n      callvalue\n      dup1\n      iszero\n      tag_1\n      jumpi\n      0x00\n      dup1\n      revert\n    tag_1:\n      pop\n      jumpi(tag_2, lt(calldatasize, 0x04))\n      shr(0xe0, calldataload(0x00))\n      dup1\n      0x19e5bf3a\n      eq\n      tag_3\n      jumpi\n      dup1\n      0x1fe543e3\n      eq\n      tag_4\n      jumpi\n      dup1\n      0x35c1d349\n      eq\n      tag_5\n      jumpi\n      dup1\n      0x78a3a6d5\n      eq\n      tag_6\n      jumpi\n      dup1\n      0xfbf4a367\n      eq\n      tag_7\n      jumpi\n    tag_2:\n      0x00\n      dup1\n      revert\n        /* \"contracts/Distribution.sol\":1944:2336  function Register() external {... */\n    tag_3:\n      tag_8\n      tag_9\n      jump\t// in\n    tag_8:\n      stop\n        /* \"@chainlink/contracts/src/v0.8/vrf/VRFConsumerBaseV2.sol\":6618:6874  function rawFulfillRandomWords(uint256 requestId, uint256[] memory randomWords) external {... */\n    tag_4:\n      tag_10\n      0x04\n      dup1\n      calldatasize\n      sub\n      dup2\n      add\n      swap1\n      tag_11\n      swap2\n      swap1\n      tag_12\n      jump\t// in\n    tag_11:\n      tag_13\n      jump\t// in\n    tag_10:\n      stop\n        /* \"contracts/Distribution.sol\":1753:1792  ParticipantStruct[] public participants */\n    tag_5:\n      tag_14\n      0x04\n      dup1\n      calldatasize\n      sub\n      dup2\n      add\n      swap1\n      tag_15\n      swap2\n      swap1\n      tag_16\n      jump\t// in\n    tag_15:\n      tag_17\n      jump\t// in\n    tag_14:\n      mload(0x40)\n      tag_18\n      swap3\n      swap2\n      swap1\n      tag_19\n      jump\t// in\n    tag_18:\n      mload(0x40)\n      dup1\n      swap2\n      sub\n      swap1\n      return\n        /* \"contracts/Distribution.sol\":2342:2996  function PerformTask() external {... */\n    tag_6:\n      tag_20\n      tag_21\n      jump\t// in\n    tag_20:\n      stop\n        /* \"contracts/Distribution.sol\":1799:1852  mapping(address => uint256) public taskPerformedIndex */\n    tag_7:\n      tag_22\n      0x04\n      dup1\n      calldatasize\n      sub\n      dup2\n      add\n      swap1\n      tag_23\n      swap2\n      swap1\n      tag_24\n      jump\t// in\n    tag_23:\n      tag_25\n      jump\t// in\n    tag_22:\n      mload(0x40)\n      tag_26\n      swap2\n      swap1\n      tag_27\n      jump\t// in\n    tag_26:\n      mload(0x40)\n      dup1\n      swap2\n      sub\n      swap1\n      return\n        /* \"contracts/Distribution.sol\":1944:2336  function Register() external {... */\n    tag_9:\n        /* \"contracts/Distribution.sol\":2025:2026  0 */\n      0x00\n        /* \"contracts/Distribution.sol\":1991:2009  taskPerformedIndex */\n      0x06\n        /* \"contracts/Distribution.sol\":1991:2021  taskPerformedIndex[msg.sender] */\n      0x00\n        /* \"contracts/Distribution.sol\":2010:2020  msg.sender */\n      caller\n        /* \"contracts/Distribution.sol\":1991:2021  taskPerformedIndex[msg.sender] */\n      0xffffffffffffffffffffffffffffffffffffffff\n      and\n      0xffffffffffffffffffffffffffffffffffffffff\n      and\n      dup2\n      mstore\n      0x20\n      add\n      swap1\n      dup2\n      mstore\n      0x20\n      add\n      0x00\n      keccak256\n      sload\n        /* \"contracts/Distribution.sol\":1991:2026  taskPerformedIndex[msg.sender] == 0 */\n      eq\n        /* \"contracts/Distribution.sol\":1983:2048  require(taskPerformedIndex[msg.sender] == 0, \"Already registerd\") */\n      tag_29\n      jumpi\n      mload(0x40)\n      0x08c379a000000000000000000000000000000000000000000000000000000000\n      dup2\n      mstore\n      0x04\n      add\n      tag_30\n      swap1\n      tag_31\n      jump\t// in\n    tag_30:\n      mload(0x40)\n      dup1\n      swap2\n      sub\n      swap1\n      revert\n    tag_29:\n        /* \"contracts/Distribution.sol\":2059:2071  participants */\n      0x05\n        /* \"contracts/Distribution.sol\":2077:2109  ParticipantStruct(msg.sender, 0) */\n      mload(0x40)\n      dup1\n      0x40\n      add\n      0x40\n      mstore\n      dup1\n        /* \"contracts/Distribution.sol\":2095:2105  msg.sender */\n      caller\n        /* \"contracts/Distribution.sol\":2077:2109  ParticipantStruct(msg.sender, 0) */\n      0xffffffffffffffffffffffffffffffffffffffff\n      and\n      dup2\n      mstore\n      0x20\n      add\n        /* \"contracts/Distribution.sol\":2107:2108  0 */\n      0x00\n        /* \"contracts/Distribution.sol\":2077:2109  ParticipantStruct(msg.sender, 0) */\n      dup2\n      mstore\n      pop\n        /* \"contracts/Distribution.sol\":2059:2110  participants.push(ParticipantStruct(msg.sender, 0)) */\n      swap1\n      dup1\n      0x01\n      dup2\n      sload\n      add\n      dup1\n      dup3\n      sstore\n      dup1\n      swap2\n      pop\n      pop\n      0x01\n      swap1\n      sub\n      swap1\n      0x00\n      mstore\n      keccak256(0x00, 0x20)\n      swap1\n      0x02\n      mul\n      add\n      0x00\n      swap1\n      swap2\n      swap1\n      swap2\n      swap1\n      swap2\n      pop\n      0x00\n      dup3\n      add\n      mload\n      dup2\n      0x00\n      add\n      exp(0x0100, 0x00)\n      dup2\n      sload\n      dup2\n      0xffffffffffffffffffffffffffffffffffffffff\n      mul\n      not\n      and\n      swap1\n      dup4\n      0xffffffffffffffffffffffffffffffffffffffff\n      and\n      mul\n      or\n      swap1\n      sstore\n      pop\n      0x20\n      dup3\n      add\n      mload\n      dup2\n      0x01\n      add\n      sstore\n      pop\n      pop\n        /* \"contracts/Distribution.sol\":2154:2166  participants */\n      0x05\n        /* \"contracts/Distribution.sol\":2154:2173  participants.length */\n      dup1\n      sload\n      swap1\n      pop\n        /* \"contracts/Distribution.sol\":2121:2139  taskPerformedIndex */\n      0x06\n        /* \"contracts/Distribution.sol\":2121:2151  taskPerformedIndex[msg.sender] */\n      0x00\n        /* \"contracts/Distribution.sol\":2140:2150  msg.sender */\n      caller\n        /* \"contracts/Distribution.sol\":2121:2151  taskPerformedIndex[msg.sender] */\n      0xffffffffffffffffffffffffffffffffffffffff\n      and\n      0xffffffffffffffffffffffffffffffffffffffff\n      and\n      dup2\n      mstore\n      0x20\n      add\n      swap1\n      dup2\n      mstore\n      0x20\n      add\n      0x00\n      keccak256\n        /* \"contracts/Distribution.sol\":2121:2173  taskPerformedIndex[msg.sender] = participants.length */\n      dup2\n      swap1\n      sstore\n      pop\n        /* \"contracts/Distribution.sol\":1944:2336  function Register() external {... */\n      jump\t// out\n        /* \"@chainlink/contracts/src/v0.8/vrf/VRFConsumerBaseV2.sol\":6618:6874  function rawFulfillRandomWords(uint256 requestId, uint256[] memory randomWords) external {... */\n    tag_13:\n        /* \"@chainlink/contracts/src/v0.8/vrf/VRFConsumerBaseV2.sol\":6731:6745  vrfCoordinator */\n      immutable(\"0xecb3d63bca2dac2f15cfd948f18f200abecc477e6036fc1499f13da50bed1ba1\")\n        /* \"@chainlink/contracts/src/v0.8/vrf/VRFConsumerBaseV2.sol\":6717:6745  msg.sender != vrfCoordinator */\n      0xffffffffffffffffffffffffffffffffffffffff\n      and\n        /* \"@chainlink/contracts/src/v0.8/vrf/VRFConsumerBaseV2.sol\":6717:6727  msg.sender */\n      caller\n        /* \"@chainlink/contracts/src/v0.8/vrf/VRFConsumerBaseV2.sol\":6717:6745  msg.sender != vrfCoordinator */\n      0xffffffffffffffffffffffffffffffffffffffff\n      and\n      eq\n        /* \"@chainlink/contracts/src/v0.8/vrf/VRFConsumerBaseV2.sol\":6713:6822  if (msg.sender != vrfCoordinator) {... */\n      tag_34\n      jumpi\n        /* \"@chainlink/contracts/src/v0.8/vrf/VRFConsumerBaseV2.sol\":6788:6798  msg.sender */\n      caller\n        /* \"@chainlink/contracts/src/v0.8/vrf/VRFConsumerBaseV2.sol\":6800:6814  vrfCoordinator */\n      immutable(\"0xecb3d63bca2dac2f15cfd948f18f200abecc477e6036fc1499f13da50bed1ba1\")\n        /* \"@chainlink/contracts/src/v0.8/vrf/VRFConsumerBaseV2.sol\":6762:6815  OnlyCoordinatorCanFulfill(msg.sender, vrfCoordinator) */\n      mload(0x40)\n      0x1cf993f400000000000000000000000000000000000000000000000000000000\n      dup2\n      mstore\n      0x04\n      add\n      tag_35\n      swap3\n      swap2\n      swap1\n      tag_36\n      jump\t// in\n    tag_35:\n      mload(0x40)\n      dup1\n      swap2\n      sub\n      swap1\n      revert\n        /* \"@chainlink/contracts/src/v0.8/vrf/VRFConsumerBaseV2.sol\":6713:6822  if (msg.sender != vrfCoordinator) {... */\n    tag_34:\n        /* \"@chainlink/contracts/src/v0.8/vrf/VRFConsumerBaseV2.sol\":6827:6869  fulfillRandomWords(requestId, randomWords) */\n      tag_37\n        /* \"@chainlink/contracts/src/v0.8/vrf/VRFConsumerBaseV2.sol\":6846:6855  requestId */\n      dup3\n        /* \"@chainlink/contracts/src/v0.8/vrf/VRFConsumerBaseV2.sol\":6857:6868  randomWords */\n      dup3\n        /* \"@chainlink/contracts/src/v0.8/vrf/VRFConsumerBaseV2.sol\":6827:6845  fulfillRandomWords */\n      tag_38\n        /* \"@chainlink/contracts/src/v0.8/vrf/VRFConsumerBaseV2.sol\":6827:6869  fulfillRandomWords(requestId, randomWords) */\n      jump\t// in\n    tag_37:\n        /* \"@chainlink/contracts/src/v0.8/vrf/VRFConsumerBaseV2.sol\":6618:6874  function rawFulfillRandomWords(uint256 requestId, uint256[] memory randomWords) external {... */\n      pop\n      pop\n      jump\t// out\n        /* \"contracts/Distribution.sol\":1753:1792  ParticipantStruct[] public participants */\n    tag_17:\n      0x05\n      dup2\n      dup2\n      sload\n      dup2\n      lt\n      tag_39\n      jumpi\n      0x00\n      dup1\n      revert\n    tag_39:\n      swap1\n      0x00\n      mstore\n      keccak256(0x00, 0x20)\n      swap1\n      0x02\n      mul\n      add\n      0x00\n      swap2\n      pop\n      swap1\n      pop\n      dup1\n      0x00\n      add\n      0x00\n      swap1\n      sload\n      swap1\n      0x0100\n      exp\n      swap1\n      div\n      0xffffffffffffffffffffffffffffffffffffffff\n      and\n      swap1\n      dup1\n      0x01\n      add\n      sload\n      swap1\n      pop\n      dup3\n      jump\t// out\n        /* \"contracts/Distribution.sol\":2342:2996  function PerformTask() external {... */\n    tag_21:\n        /* \"contracts/Distribution.sol\":2384:2412  _performTask(msg.sender, 10) */\n      tag_42\n        /* \"contracts/Distribution.sol\":2397:2407  msg.sender */\n      caller\n        /* \"contracts/Distribution.sol\":2409:2411  10 */\n      0x0a\n        /* \"contracts/Distribution.sol\":2384:2396  _performTask */\n      tag_43\n        /* \"contracts/Distribution.sol\":2384:2412  _performTask(msg.sender, 10) */\n      jump\t// in\n    tag_42:\n        /* \"contracts/Distribution.sol\":2342:2996  function PerformTask() external {... */\n      jump\t// out\n        /* \"contracts/Distribution.sol\":1799:1852  mapping(address => uint256) public taskPerformedIndex */\n    tag_25:\n      mstore(0x20, 0x06)\n      dup1\n      0x00\n      mstore\n      keccak256(0x00, 0x40)\n      0x00\n      swap2\n      pop\n      swap1\n      pop\n      sload\n      dup2\n      jump\t// out\n        /* \"contracts/Distribution.sol\":4487:4782  function fulfillRandomWords(... */\n    tag_38:\n        /* \"contracts/Distribution.sol\":4651:4663  participants */\n      0x05\n        /* \"contracts/Distribution.sol\":4651:4670  participants.length */\n      dup1\n      sload\n      swap1\n      pop\n        /* \"contracts/Distribution.sol\":4634:4645  randomWords */\n      dup2\n        /* \"contracts/Distribution.sol\":4646:4647  0 */\n      0x00\n        /* \"contracts/Distribution.sol\":4634:4648  randomWords[0] */\n      dup2\n      mload\n      dup2\n      lt\n      tag_45\n      jumpi\n      tag_46\n      tag_47\n      jump\t// in\n    tag_46:\n    tag_45:\n      0x20\n      mul\n      0x20\n      add\n      add\n      mload\n        /* \"contracts/Distribution.sol\":4634:4670  randomWords[0] % participants.length */\n      tag_48\n      swap2\n      swap1\n      tag_49\n      jump\t// in\n    tag_48:\n        /* \"contracts/Distribution.sol\":4618:4630  RandomNumber */\n      0x04\n        /* \"contracts/Distribution.sol\":4618:4671  RandomNumber = (randomWords[0] % participants.length) */\n      dup2\n      swap1\n      sstore\n      pop\n        /* \"contracts/Distribution.sol\":4487:4782  function fulfillRandomWords(... */\n      pop\n      pop\n      jump\t// out\n        /* \"contracts/Distribution.sol\":3094:3374  function _performTask(address _user, uint256 _point) internal {... */\n    tag_43:\n        /* \"contracts/Distribution.sol\":3166:3179  uint256 index */\n      0x00\n        /* \"contracts/Distribution.sol\":3182:3200  taskPerformedIndex */\n      0x06\n        /* \"contracts/Distribution.sol\":3182:3207  taskPerformedIndex[_user] */\n      0x00\n        /* \"contracts/Distribution.sol\":3201:3206  _user */\n      dup5\n        /* \"contracts/Distribution.sol\":3182:3207  taskPerformedIndex[_user] */\n      0xffffffffffffffffffffffffffffffffffffffff\n      and\n      0xffffffffffffffffffffffffffffffffffffffff\n      and\n      dup2\n      mstore\n      0x20\n      add\n      swap1\n      dup2\n      mstore\n      0x20\n      add\n      0x00\n      keccak256\n      sload\n        /* \"contracts/Distribution.sol\":3166:3207  uint256 index = taskPerformedIndex[_user] */\n      swap1\n      pop\n        /* \"contracts/Distribution.sol\":3233:3234  0 */\n      0x00\n        /* \"contracts/Distribution.sol\":3225:3230  index */\n      dup2\n        /* \"contracts/Distribution.sol\":3225:3234  index > 0 */\n      gt\n        /* \"contracts/Distribution.sol\":3217:3261  require(index > 0, \"Participant not found.\") */\n      tag_51\n      jumpi\n      mload(0x40)\n      0x08c379a000000000000000000000000000000000000000000000000000000000\n      dup2\n      mstore\n      0x04\n      add\n      tag_52\n      swap1\n      tag_53\n      jump\t// in\n    tag_52:\n      mload(0x40)\n      dup1\n      swap2\n      sub\n      swap1\n      revert\n    tag_51:\n        /* \"contracts/Distribution.sol\":3361:3367  _point */\n      dup2\n        /* \"contracts/Distribution.sol\":3316:3328  participants */\n      0x05\n        /* \"contracts/Distribution.sol\":3337:3338  1 */\n      0x01\n        /* \"contracts/Distribution.sol\":3329:3334  index */\n      dup4\n        /* \"contracts/Distribution.sol\":3329:3338  index - 1 */\n      tag_54\n      swap2\n      swap1\n      tag_55\n      jump\t// in\n    tag_54:\n        /* \"contracts/Distribution.sol\":3316:3339  participants[index - 1] */\n      dup2\n      sload\n      dup2\n      lt\n      tag_56\n      jumpi\n      tag_57\n      tag_47\n      jump\t// in\n    tag_57:\n    tag_56:\n      swap1\n      0x00\n      mstore\n      keccak256(0x00, 0x20)\n      swap1\n      0x02\n      mul\n      add\n        /* \"contracts/Distribution.sol\":3316:3346  participants[index - 1].Points */\n      0x01\n      add\n      sload\n        /* \"contracts/Distribution.sol\":3316:3367  participants[index - 1].Points +... */\n      tag_59\n      swap2\n      swap1\n      tag_60\n      jump\t// in\n    tag_59:\n        /* \"contracts/Distribution.sol\":3271:3283  participants */\n      0x05\n        /* \"contracts/Distribution.sol\":3292:3293  1 */\n      0x01\n        /* \"contracts/Distribution.sol\":3284:3289  index */\n      dup4\n        /* \"contracts/Distribution.sol\":3284:3293  index - 1 */\n      tag_61\n      swap2\n      swap1\n      tag_55\n      jump\t// in\n    tag_61:\n        /* \"contracts/Distribution.sol\":3271:3294  participants[index - 1] */\n      dup2\n      sload\n      dup2\n      lt\n      tag_62\n      jumpi\n      tag_63\n      tag_47\n      jump\t// in\n    tag_63:\n    tag_62:\n      swap1\n      0x00\n      mstore\n      keccak256(0x00, 0x20)\n      swap1\n      0x02\n      mul\n      add\n        /* \"contracts/Distribution.sol\":3271:3301  participants[index - 1].Points */\n      0x01\n      add\n        /* \"contracts/Distribution.sol\":3271:3367  participants[index - 1].Points =... */\n      dup2\n      swap1\n      sstore\n      pop\n        /* \"contracts/Distribution.sol\":3156:3374  {... */\n      pop\n        /* \"contracts/Distribution.sol\":3094:3374  function _performTask(address _user, uint256 _point) internal {... */\n      pop\n      pop\n      jump\t// out\n        /* \"#utility.yul\":7:82   */\n    tag_65:\n        /* \"#utility.yul\":40:46   */\n      0x00\n        /* \"#utility.yul\":73:75   */\n      0x40\n        /* \"#utility.yul\":67:76   */\n      mload\n        /* \"#utility.yul\":57:76   */\n      swap1\n      pop\n        /* \"#utility.yul\":7:82   */\n      swap1\n      jump\t// out\n        /* \"#utility.yul\":88:205   */\n    tag_66:\n        /* \"#utility.yul\":197:198   */\n      0x00\n        /* \"#utility.yul\":194:195   */\n      dup1\n        /* \"#utility.yul\":187:199   */\n      revert\n        /* \"#utility.yul\":211:328   */\n    tag_67:\n        /* \"#utility.yul\":320:321   */\n      0x00\n        /* \"#utility.yul\":317:318   */\n      dup1\n        /* \"#utility.yul\":310:322   */\n      revert\n        /* \"#utility.yul\":334:411   */\n    tag_68:\n        /* \"#utility.yul\":371:378   */\n      0x00\n        /* \"#utility.yul\":400:405   */\n      dup2\n        /* \"#utility.yul\":389:405   */\n      swap1\n      pop\n        /* \"#utility.yul\":334:411   */\n      swap2\n      swap1\n      pop\n      jump\t// out\n        /* \"#utility.yul\":417:539   */\n    tag_69:\n        /* \"#utility.yul\":490:514   */\n      tag_99\n        /* \"#utility.yul\":508:513   */\n      dup2\n        /* \"#utility.yul\":490:514   */\n      tag_68\n      jump\t// in\n    tag_99:\n        /* \"#utility.yul\":483:488   */\n      dup2\n        /* \"#utility.yul\":480:515   */\n      eq\n        /* \"#utility.yul\":470:533   */\n      tag_100\n      jumpi\n        /* \"#utility.yul\":529:530   */\n      0x00\n        /* \"#utility.yul\":526:527   */\n      dup1\n        /* \"#utility.yul\":519:531   */\n      revert\n        /* \"#utility.yul\":470:533   */\n    tag_100:\n        /* \"#utility.yul\":417:539   */\n      pop\n      jump\t// out\n        /* \"#utility.yul\":545:684   */\n    tag_70:\n        /* \"#utility.yul\":591:596   */\n      0x00\n        /* \"#utility.yul\":629:635   */\n      dup2\n        /* \"#utility.yul\":616:636   */\n      calldataload\n        /* \"#utility.yul\":607:636   */\n      swap1\n      pop\n        /* \"#utility.yul\":645:678   */\n      tag_102\n        /* \"#utility.yul\":672:677   */\n      dup2\n        /* \"#utility.yul\":645:678   */\n      tag_69\n      jump\t// in\n    tag_102:\n        /* \"#utility.yul\":545:684   */\n      swap3\n      swap2\n      pop\n      pop\n      jump\t// out\n        /* \"#utility.yul\":690:807   */\n    tag_71:\n        /* \"#utility.yul\":799:800   */\n      0x00\n        /* \"#utility.yul\":796:797   */\n      dup1\n        /* \"#utility.yul\":789:801   */\n      revert\n        /* \"#utility.yul\":813:915   */\n    tag_72:\n        /* \"#utility.yul\":854:860   */\n      0x00\n        /* \"#utility.yul\":905:907   */\n      0x1f\n        /* \"#utility.yul\":901:908   */\n      not\n        /* \"#utility.yul\":896:898   */\n      0x1f\n        /* \"#utility.yul\":889:894   */\n      dup4\n        /* \"#utility.yul\":885:899   */\n      add\n        /* \"#utility.yul\":881:909   */\n      and\n        /* \"#utility.yul\":871:909   */\n      swap1\n      pop\n        /* \"#utility.yul\":813:915   */\n      swap2\n      swap1\n      pop\n      jump\t// out\n        /* \"#utility.yul\":921:1101   */\n    tag_73:\n        /* \"#utility.yul\":969:1046   */\n      0x4e487b7100000000000000000000000000000000000000000000000000000000\n        /* \"#utility.yul\":966:967   */\n      0x00\n        /* \"#utility.yul\":959:1047   */\n      mstore\n        /* \"#utility.yul\":1066:1070   */\n      0x41\n        /* \"#utility.yul\":1063:1064   */\n      0x04\n        /* \"#utility.yul\":1056:1071   */\n      mstore\n        /* \"#utility.yul\":1090:1094   */\n      0x24\n        /* \"#utility.yul\":1087:1088   */\n      0x00\n        /* \"#utility.yul\":1080:1095   */\n      revert\n        /* \"#utility.yul\":1107:1388   */\n    tag_74:\n        /* \"#utility.yul\":1190:1217   */\n      tag_107\n        /* \"#utility.yul\":1212:1216   */\n      dup3\n        /* \"#utility.yul\":1190:1217   */\n      tag_72\n      jump\t// in\n    tag_107:\n        /* \"#utility.yul\":1182:1188   */\n      dup2\n        /* \"#utility.yul\":1178:1218   */\n      add\n        /* \"#utility.yul\":1320:1326   */\n      dup2\n        /* \"#utility.yul\":1308:1318   */\n      dup2\n        /* \"#utility.yul\":1305:1327   */\n      lt\n        /* \"#utility.yul\":1284:1302   */\n      0xffffffffffffffff\n        /* \"#utility.yul\":1272:1282   */\n      dup3\n        /* \"#utility.yul\":1269:1303   */\n      gt\n        /* \"#utility.yul\":1266:1328   */\n      or\n        /* \"#utility.yul\":1263:1351   */\n      iszero\n      tag_108\n      jumpi\n        /* \"#utility.yul\":1331:1349   */\n      tag_109\n      tag_73\n      jump\t// in\n    tag_109:\n        /* \"#utility.yul\":1263:1351   */\n    tag_108:\n        /* \"#utility.yul\":1371:1381   */\n      dup1\n        /* \"#utility.yul\":1367:1369   */\n      0x40\n        /* \"#utility.yul\":1360:1382   */\n      mstore\n        /* \"#utility.yul\":1150:1388   */\n      pop\n        /* \"#utility.yul\":1107:1388   */\n      pop\n      pop\n      jump\t// out\n        /* \"#utility.yul\":1394:1523   */\n    tag_75:\n        /* \"#utility.yul\":1428:1434   */\n      0x00\n        /* \"#utility.yul\":1455:1475   */\n      tag_111\n      tag_65\n      jump\t// in\n    tag_111:\n        /* \"#utility.yul\":1445:1475   */\n      swap1\n      pop\n        /* \"#utility.yul\":1484:1517   */\n      tag_112\n        /* \"#utility.yul\":1512:1516   */\n      dup3\n        /* \"#utility.yul\":1504:1510   */\n      dup3\n        /* \"#utility.yul\":1484:1517   */\n      tag_74\n      jump\t// in\n    tag_112:\n        /* \"#utility.yul\":1394:1523   */\n      swap2\n      swap1\n      pop\n      jump\t// out\n        /* \"#utility.yul\":1529:1840   */\n    tag_76:\n        /* \"#utility.yul\":1606:1610   */\n      0x00\n        /* \"#utility.yul\":1696:1714   */\n      0xffffffffffffffff\n        /* \"#utility.yul\":1688:1694   */\n      dup3\n        /* \"#utility.yul\":1685:1715   */\n      gt\n        /* \"#utility.yul\":1682:1738   */\n      iszero\n      tag_114\n      jumpi\n        /* \"#utility.yul\":1718:1736   */\n      tag_115\n      tag_73\n      jump\t// in\n    tag_115:\n        /* \"#utility.yul\":1682:1738   */\n    tag_114:\n        /* \"#utility.yul\":1768:1772   */\n      0x20\n        /* \"#utility.yul\":1760:1766   */\n      dup3\n        /* \"#utility.yul\":1756:1773   */\n      mul\n        /* \"#utility.yul\":1748:1773   */\n      swap1\n      pop\n        /* \"#utility.yul\":1828:1832   */\n      0x20\n        /* \"#utility.yul\":1822:1826   */\n      dup2\n        /* \"#utility.yul\":1818:1833   */\n      add\n        /* \"#utility.yul\":1810:1833   */\n      swap1\n      pop\n        /* \"#utility.yul\":1529:1840   */\n      swap2\n      swap1\n      pop\n      jump\t// out\n        /* \"#utility.yul\":1846:1963   */\n    tag_77:\n        /* \"#utility.yul\":1955:1956   */\n      0x00\n        /* \"#utility.yul\":1952:1953   */\n      dup1\n        /* \"#utility.yul\":1945:1957   */\n      revert\n        /* \"#utility.yul\":1986:2696   */\n    tag_78:\n        /* \"#utility.yul\":2082:2087   */\n      0x00\n        /* \"#utility.yul\":2107:2188   */\n      tag_118\n        /* \"#utility.yul\":2123:2187   */\n      tag_119\n        /* \"#utility.yul\":2180:2186   */\n      dup5\n        /* \"#utility.yul\":2123:2187   */\n      tag_76\n      jump\t// in\n    tag_119:\n        /* \"#utility.yul\":2107:2188   */\n      tag_75\n      jump\t// in\n    tag_118:\n        /* \"#utility.yul\":2098:2188   */\n      swap1\n      pop\n        /* \"#utility.yul\":2208:2213   */\n      dup1\n        /* \"#utility.yul\":2237:2243   */\n      dup4\n        /* \"#utility.yul\":2230:2235   */\n      dup3\n        /* \"#utility.yul\":2223:2244   */\n      mstore\n        /* \"#utility.yul\":2271:2275   */\n      0x20\n        /* \"#utility.yul\":2264:2269   */\n      dup3\n        /* \"#utility.yul\":2260:2276   */\n      add\n        /* \"#utility.yul\":2253:2276   */\n      swap1\n      pop\n        /* \"#utility.yul\":2324:2328   */\n      0x20\n        /* \"#utility.yul\":2316:2322   */\n      dup5\n        /* \"#utility.yul\":2312:2329   */\n      mul\n        /* \"#utility.yul\":2304:2310   */\n      dup4\n        /* \"#utility.yul\":2300:2330   */\n      add\n        /* \"#utility.yul\":2353:2356   */\n      dup6\n        /* \"#utility.yul\":2345:2351   */\n      dup2\n        /* \"#utility.yul\":2342:2357   */\n      gt\n        /* \"#utility.yul\":2339:2461   */\n      iszero\n      tag_120\n      jumpi\n        /* \"#utility.yul\":2372:2451   */\n      tag_121\n      tag_77\n      jump\t// in\n    tag_121:\n        /* \"#utility.yul\":2339:2461   */\n    tag_120:\n        /* \"#utility.yul\":2487:2493   */\n      dup4\n        /* \"#utility.yul\":2470:2690   */\n    tag_122:\n        /* \"#utility.yul\":2504:2510   */\n      dup2\n        /* \"#utility.yul\":2499:2502   */\n      dup2\n        /* \"#utility.yul\":2496:2511   */\n      lt\n        /* \"#utility.yul\":2470:2690   */\n      iszero\n      tag_124\n      jumpi\n        /* \"#utility.yul\":2579:2582   */\n      dup1\n        /* \"#utility.yul\":2608:2645   */\n      tag_125\n        /* \"#utility.yul\":2641:2644   */\n      dup9\n        /* \"#utility.yul\":2629:2639   */\n      dup3\n        /* \"#utility.yul\":2608:2645   */\n      tag_70\n      jump\t// in\n    tag_125:\n        /* \"#utility.yul\":2603:2606   */\n      dup5\n        /* \"#utility.yul\":2596:2646   */\n      mstore\n        /* \"#utility.yul\":2675:2679   */\n      0x20\n        /* \"#utility.yul\":2670:2673   */\n      dup5\n        /* \"#utility.yul\":2666:2680   */\n      add\n        /* \"#utility.yul\":2659:2680   */\n      swap4\n      pop\n        /* \"#utility.yul\":2546:2690   */\n      pop\n        /* \"#utility.yul\":2530:2534   */\n      0x20\n        /* \"#utility.yul\":2525:2528   */\n      dup2\n        /* \"#utility.yul\":2521:2535   */\n      add\n        /* \"#utility.yul\":2514:2535   */\n      swap1\n      pop\n        /* \"#utility.yul\":2470:2690   */\n      jump(tag_122)\n    tag_124:\n        /* \"#utility.yul\":2474:2495   */\n      pop\n        /* \"#utility.yul\":2088:2696   */\n      pop\n      pop\n        /* \"#utility.yul\":1986:2696   */\n      swap4\n      swap3\n      pop\n      pop\n      pop\n      jump\t// out\n        /* \"#utility.yul\":2719:3089   */\n    tag_79:\n        /* \"#utility.yul\":2790:2795   */\n      0x00\n        /* \"#utility.yul\":2839:2842   */\n      dup3\n        /* \"#utility.yul\":2832:2836   */\n      0x1f\n        /* \"#utility.yul\":2824:2830   */\n      dup4\n        /* \"#utility.yul\":2820:2837   */\n      add\n        /* \"#utility.yul\":2816:2843   */\n      slt\n        /* \"#utility.yul\":2806:2928   */\n      tag_127\n      jumpi\n        /* \"#utility.yul\":2847:2926   */\n      tag_128\n      tag_71\n      jump\t// in\n    tag_128:\n        /* \"#utility.yul\":2806:2928   */\n    tag_127:\n        /* \"#utility.yul\":2964:2970   */\n      dup2\n        /* \"#utility.yul\":2951:2971   */\n      calldataload\n        /* \"#utility.yul\":2989:3083   */\n      tag_129\n        /* \"#utility.yul\":3079:3082   */\n      dup5\n        /* \"#utility.yul\":3071:3077   */\n      dup3\n        /* \"#utility.yul\":3064:3068   */\n      0x20\n        /* \"#utility.yul\":3056:3062   */\n      dup7\n        /* \"#utility.yul\":3052:3069   */\n      add\n        /* \"#utility.yul\":2989:3083   */\n      tag_78\n      jump\t// in\n    tag_129:\n        /* \"#utility.yul\":2980:3083   */\n      swap2\n      pop\n        /* \"#utility.yul\":2796:3089   */\n      pop\n        /* \"#utility.yul\":2719:3089   */\n      swap3\n      swap2\n      pop\n      pop\n      jump\t// out\n        /* \"#utility.yul\":3095:3779   */\n    tag_12:\n        /* \"#utility.yul\":3188:3194   */\n      0x00\n        /* \"#utility.yul\":3196:3202   */\n      dup1\n        /* \"#utility.yul\":3245:3247   */\n      0x40\n        /* \"#utility.yul\":3233:3242   */\n      dup4\n        /* \"#utility.yul\":3224:3231   */\n      dup6\n        /* \"#utility.yul\":3220:3243   */\n      sub\n        /* \"#utility.yul\":3216:3248   */\n      slt\n        /* \"#utility.yul\":3213:3332   */\n      iszero\n      tag_131\n      jumpi\n        /* \"#utility.yul\":3251:3330   */\n      tag_132\n      tag_66\n      jump\t// in\n    tag_132:\n        /* \"#utility.yul\":3213:3332   */\n    tag_131:\n        /* \"#utility.yul\":3371:3372   */\n      0x00\n        /* \"#utility.yul\":3396:3449   */\n      tag_133\n        /* \"#utility.yul\":3441:3448   */\n      dup6\n        /* \"#utility.yul\":3432:3438   */\n      dup3\n        /* \"#utility.yul\":3421:3430   */\n      dup7\n        /* \"#utility.yul\":3417:3439   */\n      add\n        /* \"#utility.yul\":3396:3449   */\n      tag_70\n      jump\t// in\n    tag_133:\n        /* \"#utility.yul\":3386:3449   */\n      swap3\n      pop\n        /* \"#utility.yul\":3342:3459   */\n      pop\n        /* \"#utility.yul\":3526:3528   */\n      0x20\n        /* \"#utility.yul\":3515:3524   */\n      dup4\n        /* \"#utility.yul\":3511:3529   */\n      add\n        /* \"#utility.yul\":3498:3530   */\n      calldataload\n        /* \"#utility.yul\":3557:3575   */\n      0xffffffffffffffff\n        /* \"#utility.yul\":3549:3555   */\n      dup2\n        /* \"#utility.yul\":3546:3576   */\n      gt\n        /* \"#utility.yul\":3543:3660   */\n      iszero\n      tag_134\n      jumpi\n        /* \"#utility.yul\":3579:3658   */\n      tag_135\n      tag_67\n      jump\t// in\n    tag_135:\n        /* \"#utility.yul\":3543:3660   */\n    tag_134:\n        /* \"#utility.yul\":3684:3762   */\n      tag_136\n        /* \"#utility.yul\":3754:3761   */\n      dup6\n        /* \"#utility.yul\":3745:3751   */\n      dup3\n        /* \"#utility.yul\":3734:3743   */\n      dup7\n        /* \"#utility.yul\":3730:3752   */\n      add\n        /* \"#utility.yul\":3684:3762   */\n      tag_79\n      jump\t// in\n    tag_136:\n        /* \"#utility.yul\":3674:3762   */\n      swap2\n      pop\n        /* \"#utility.yul\":3469:3772   */\n      pop\n        /* \"#utility.yul\":3095:3779   */\n      swap3\n      pop\n      swap3\n      swap1\n      pop\n      jump\t// out\n        /* \"#utility.yul\":3785:4114   */\n    tag_16:\n        /* \"#utility.yul\":3844:3850   */\n      0x00\n        /* \"#utility.yul\":3893:3895   */\n      0x20\n        /* \"#utility.yul\":3881:3890   */\n      dup3\n        /* \"#utility.yul\":3872:3879   */\n      dup5\n        /* \"#utility.yul\":3868:3891   */\n      sub\n        /* \"#utility.yul\":3864:3896   */\n      slt\n        /* \"#utility.yul\":3861:3980   */\n      iszero\n      tag_138\n      jumpi\n        /* \"#utility.yul\":3899:3978   */\n      tag_139\n      tag_66\n      jump\t// in\n    tag_139:\n        /* \"#utility.yul\":3861:3980   */\n    tag_138:\n        /* \"#utility.yul\":4019:4020   */\n      0x00\n        /* \"#utility.yul\":4044:4097   */\n      tag_140\n        /* \"#utility.yul\":4089:4096   */\n      dup5\n        /* \"#utility.yul\":4080:4086   */\n      dup3\n        /* \"#utility.yul\":4069:4078   */\n      dup6\n        /* \"#utility.yul\":4065:4087   */\n      add\n        /* \"#utility.yul\":4044:4097   */\n      tag_70\n      jump\t// in\n    tag_140:\n        /* \"#utility.yul\":4034:4097   */\n      swap2\n      pop\n        /* \"#utility.yul\":3990:4107   */\n      pop\n        /* \"#utility.yul\":3785:4114   */\n      swap3\n      swap2\n      pop\n      pop\n      jump\t// out\n        /* \"#utility.yul\":4120:4246   */\n    tag_80:\n        /* \"#utility.yul\":4157:4164   */\n      0x00\n        /* \"#utility.yul\":4197:4239   */\n      0xffffffffffffffffffffffffffffffffffffffff\n        /* \"#utility.yul\":4190:4195   */\n      dup3\n        /* \"#utility.yul\":4186:4240   */\n      and\n        /* \"#utility.yul\":4175:4240   */\n      swap1\n      pop\n        /* \"#utility.yul\":4120:4246   */\n      swap2\n      swap1\n      pop\n      jump\t// out\n        /* \"#utility.yul\":4252:4348   */\n    tag_81:\n        /* \"#utility.yul\":4289:4296   */\n      0x00\n        /* \"#utility.yul\":4318:4342   */\n      tag_143\n        /* \"#utility.yul\":4336:4341   */\n      dup3\n        /* \"#utility.yul\":4318:4342   */\n      tag_80\n      jump\t// in\n    tag_143:\n        /* \"#utility.yul\":4307:4342   */\n      swap1\n      pop\n        /* \"#utility.yul\":4252:4348   */\n      swap2\n      swap1\n      pop\n      jump\t// out\n        /* \"#utility.yul\":4354:4472   */\n    tag_82:\n        /* \"#utility.yul\":4441:4465   */\n      tag_145\n        /* \"#utility.yul\":4459:4464   */\n      dup2\n        /* \"#utility.yul\":4441:4465   */\n      tag_81\n      jump\t// in\n    tag_145:\n        /* \"#utility.yul\":4436:4439   */\n      dup3\n        /* \"#utility.yul\":4429:4466   */\n      mstore\n        /* \"#utility.yul\":4354:4472   */\n      pop\n      pop\n      jump\t// out\n        /* \"#utility.yul\":4478:4596   */\n    tag_83:\n        /* \"#utility.yul\":4565:4589   */\n      tag_147\n        /* \"#utility.yul\":4583:4588   */\n      dup2\n        /* \"#utility.yul\":4565:4589   */\n      tag_68\n      jump\t// in\n    tag_147:\n        /* \"#utility.yul\":4560:4563   */\n      dup3\n        /* \"#utility.yul\":4553:4590   */\n      mstore\n        /* \"#utility.yul\":4478:4596   */\n      pop\n      pop\n      jump\t// out\n        /* \"#utility.yul\":4602:4934   */\n    tag_19:\n        /* \"#utility.yul\":4723:4727   */\n      0x00\n        /* \"#utility.yul\":4761:4763   */\n      0x40\n        /* \"#utility.yul\":4750:4759   */\n      dup3\n        /* \"#utility.yul\":4746:4764   */\n      add\n        /* \"#utility.yul\":4738:4764   */\n      swap1\n      pop\n        /* \"#utility.yul\":4774:4845   */\n      tag_149\n        /* \"#utility.yul\":4842:4843   */\n      0x00\n        /* \"#utility.yul\":4831:4840   */\n      dup4\n        /* \"#utility.yul\":4827:4844   */\n      add\n        /* \"#utility.yul\":4818:4824   */\n      dup6\n        /* \"#utility.yul\":4774:4845   */\n      tag_82\n      jump\t// in\n    tag_149:\n        /* \"#utility.yul\":4855:4927   */\n      tag_150\n        /* \"#utility.yul\":4923:4925   */\n      0x20\n        /* \"#utility.yul\":4912:4921   */\n      dup4\n        /* \"#utility.yul\":4908:4926   */\n      add\n        /* \"#utility.yul\":4899:4905   */\n      dup5\n        /* \"#utility.yul\":4855:4927   */\n      tag_83\n      jump\t// in\n    tag_150:\n        /* \"#utility.yul\":4602:4934   */\n      swap4\n      swap3\n      pop\n      pop\n      pop\n      jump\t// out\n        /* \"#utility.yul\":4940:5062   */\n    tag_84:\n        /* \"#utility.yul\":5013:5037   */\n      tag_152\n        /* \"#utility.yul\":5031:5036   */\n      dup2\n        /* \"#utility.yul\":5013:5037   */\n      tag_81\n      jump\t// in\n    tag_152:\n        /* \"#utility.yul\":5006:5011   */\n      dup2\n        /* \"#utility.yul\":5003:5038   */\n      eq\n        /* \"#utility.yul\":4993:5056   */\n      tag_153\n      jumpi\n        /* \"#utility.yul\":5052:5053   */\n      0x00\n        /* \"#utility.yul\":5049:5050   */\n      dup1\n        /* \"#utility.yul\":5042:5054   */\n      revert\n        /* \"#utility.yul\":4993:5056   */\n    tag_153:\n        /* \"#utility.yul\":4940:5062   */\n      pop\n      jump\t// out\n        /* \"#utility.yul\":5068:5207   */\n    tag_85:\n        /* \"#utility.yul\":5114:5119   */\n      0x00\n        /* \"#utility.yul\":5152:5158   */\n      dup2\n        /* \"#utility.yul\":5139:5159   */\n      calldataload\n        /* \"#utility.yul\":5130:5159   */\n      swap1\n      pop\n        /* \"#utility.yul\":5168:5201   */\n      tag_155\n        /* \"#utility.yul\":5195:5200   */\n      dup2\n        /* \"#utility.yul\":5168:5201   */\n      tag_84\n      jump\t// in\n    tag_155:\n        /* \"#utility.yul\":5068:5207   */\n      swap3\n      swap2\n      pop\n      pop\n      jump\t// out\n        /* \"#utility.yul\":5213:5542   */\n    tag_24:\n        /* \"#utility.yul\":5272:5278   */\n      0x00\n        /* \"#utility.yul\":5321:5323   */\n      0x20\n        /* \"#utility.yul\":5309:5318   */\n      dup3\n        /* \"#utility.yul\":5300:5307   */\n      dup5\n        /* \"#utility.yul\":5296:5319   */\n      sub\n        /* \"#utility.yul\":5292:5324   */\n      slt\n        /* \"#utility.yul\":5289:5408   */\n      iszero\n      tag_157\n      jumpi\n        /* \"#utility.yul\":5327:5406   */\n      tag_158\n      tag_66\n      jump\t// in\n    tag_158:\n        /* \"#utility.yul\":5289:5408   */\n    tag_157:\n        /* \"#utility.yul\":5447:5448   */\n      0x00\n        /* \"#utility.yul\":5472:5525   */\n      tag_159\n        /* \"#utility.yul\":5517:5524   */\n      dup5\n        /* \"#utility.yul\":5508:5514   */\n      dup3\n        /* \"#utility.yul\":5497:5506   */\n      dup6\n        /* \"#utility.yul\":5493:5515   */\n      add\n        /* \"#utility.yul\":5472:5525   */\n      tag_85\n      jump\t// in\n    tag_159:\n        /* \"#utility.yul\":5462:5525   */\n      swap2\n      pop\n        /* \"#utility.yul\":5418:5535   */\n      pop\n        /* \"#utility.yul\":5213:5542   */\n      swap3\n      swap2\n      pop\n      pop\n      jump\t// out\n        /* \"#utility.yul\":5548:5770   */\n    tag_27:\n        /* \"#utility.yul\":5641:5645   */\n      0x00\n        /* \"#utility.yul\":5679:5681   */\n      0x20\n        /* \"#utility.yul\":5668:5677   */\n      dup3\n        /* \"#utility.yul\":5664:5682   */\n      add\n        /* \"#utility.yul\":5656:5682   */\n      swap1\n      pop\n        /* \"#utility.yul\":5692:5763   */\n      tag_161\n        /* \"#utility.yul\":5760:5761   */\n      0x00\n        /* \"#utility.yul\":5749:5758   */\n      dup4\n        /* \"#utility.yul\":5745:5762   */\n      add\n        /* \"#utility.yul\":5736:5742   */\n      dup5\n        /* \"#utility.yul\":5692:5763   */\n      tag_83\n      jump\t// in\n    tag_161:\n        /* \"#utility.yul\":5548:5770   */\n      swap3\n      swap2\n      pop\n      pop\n      jump\t// out\n        /* \"#utility.yul\":5776:5945   */\n    tag_86:\n        /* \"#utility.yul\":5860:5871   */\n      0x00\n        /* \"#utility.yul\":5894:5900   */\n      dup3\n        /* \"#utility.yul\":5889:5892   */\n      dup3\n        /* \"#utility.yul\":5882:5901   */\n      mstore\n        /* \"#utility.yul\":5934:5938   */\n      0x20\n        /* \"#utility.yul\":5929:5932   */\n      dup3\n        /* \"#utility.yul\":5925:5939   */\n      add\n        /* \"#utility.yul\":5910:5939   */\n      swap1\n      pop\n        /* \"#utility.yul\":5776:5945   */\n      swap3\n      swap2\n      pop\n      pop\n      jump\t// out\n        /* \"#utility.yul\":5951:6118   */\n    tag_87:\n        /* \"#utility.yul\":6091:6110   */\n      0x416c726561647920726567697374657264000000000000000000000000000000\n        /* \"#utility.yul\":6087:6088   */\n      0x00\n        /* \"#utility.yul\":6079:6085   */\n      dup3\n        /* \"#utility.yul\":6075:6089   */\n      add\n        /* \"#utility.yul\":6068:6111   */\n      mstore\n        /* \"#utility.yul\":5951:6118   */\n      pop\n      jump\t// out\n        /* \"#utility.yul\":6124:6490   */\n    tag_88:\n        /* \"#utility.yul\":6266:6269   */\n      0x00\n        /* \"#utility.yul\":6287:6354   */\n      tag_165\n        /* \"#utility.yul\":6351:6353   */\n      0x11\n        /* \"#utility.yul\":6346:6349   */\n      dup4\n        /* \"#utility.yul\":6287:6354   */\n      tag_86\n      jump\t// in\n    tag_165:\n        /* \"#utility.yul\":6280:6354   */\n      swap2\n      pop\n        /* \"#utility.yul\":6363:6456   */\n      tag_166\n        /* \"#utility.yul\":6452:6455   */\n      dup3\n        /* \"#utility.yul\":6363:6456   */\n      tag_87\n      jump\t// in\n    tag_166:\n        /* \"#utility.yul\":6481:6483   */\n      0x20\n        /* \"#utility.yul\":6476:6479   */\n      dup3\n        /* \"#utility.yul\":6472:6484   */\n      add\n        /* \"#utility.yul\":6465:6484   */\n      swap1\n      pop\n        /* \"#utility.yul\":6124:6490   */\n      swap2\n      swap1\n      pop\n      jump\t// out\n        /* \"#utility.yul\":6496:6915   */\n    tag_31:\n        /* \"#utility.yul\":6662:6666   */\n      0x00\n        /* \"#utility.yul\":6700:6702   */\n      0x20\n        /* \"#utility.yul\":6689:6698   */\n      dup3\n        /* \"#utility.yul\":6685:6703   */\n      add\n        /* \"#utility.yul\":6677:6703   */\n      swap1\n      pop\n        /* \"#utility.yul\":6749:6758   */\n      dup2\n        /* \"#utility.yul\":6743:6747   */\n      dup2\n        /* \"#utility.yul\":6739:6759   */\n      sub\n        /* \"#utility.yul\":6735:6736   */\n      0x00\n        /* \"#utility.yul\":6724:6733   */\n      dup4\n        /* \"#utility.yul\":6720:6737   */\n      add\n        /* \"#utility.yul\":6713:6760   */\n      mstore\n        /* \"#utility.yul\":6777:6908   */\n      tag_168\n        /* \"#utility.yul\":6903:6907   */\n      dup2\n        /* \"#utility.yul\":6777:6908   */\n      tag_88\n      jump\t// in\n    tag_168:\n        /* \"#utility.yul\":6769:6908   */\n      swap1\n      pop\n        /* \"#utility.yul\":6496:6915   */\n      swap2\n      swap1\n      pop\n      jump\t// out\n        /* \"#utility.yul\":6921:7253   */\n    tag_36:\n        /* \"#utility.yul\":7042:7046   */\n      0x00\n        /* \"#utility.yul\":7080:7082   */\n      0x40\n        /* \"#utility.yul\":7069:7078   */\n      dup3\n        /* \"#utility.yul\":7065:7083   */\n      add\n        /* \"#utility.yul\":7057:7083   */\n      swap1\n      pop\n        /* \"#utility.yul\":7093:7164   */\n      tag_170\n        /* \"#utility.yul\":7161:7162   */\n      0x00\n        /* \"#utility.yul\":7150:7159   */\n      dup4\n        /* \"#utility.yul\":7146:7163   */\n      add\n        /* \"#utility.yul\":7137:7143   */\n      dup6\n        /* \"#utility.yul\":7093:7164   */\n      tag_82\n      jump\t// in\n    tag_170:\n        /* \"#utility.yul\":7174:7246   */\n      tag_171\n        /* \"#utility.yul\":7242:7244   */\n      0x20\n        /* \"#utility.yul\":7231:7240   */\n      dup4\n        /* \"#utility.yul\":7227:7245   */\n      add\n        /* \"#utility.yul\":7218:7224   */\n      dup5\n        /* \"#utility.yul\":7174:7246   */\n      tag_82\n      jump\t// in\n    tag_171:\n        /* \"#utility.yul\":6921:7253   */\n      swap4\n      swap3\n      pop\n      pop\n      pop\n      jump\t// out\n        /* \"#utility.yul\":7259:7439   */\n    tag_47:\n        /* \"#utility.yul\":7307:7384   */\n      0x4e487b7100000000000000000000000000000000000000000000000000000000\n        /* \"#utility.yul\":7304:7305   */\n      0x00\n        /* \"#utility.yul\":7297:7385   */\n      mstore\n        /* \"#utility.yul\":7404:7408   */\n      0x32\n        /* \"#utility.yul\":7401:7402   */\n      0x04\n        /* \"#utility.yul\":7394:7409   */\n      mstore\n        /* \"#utility.yul\":7428:7432   */\n      0x24\n        /* \"#utility.yul\":7425:7426   */\n      0x00\n        /* \"#utility.yul\":7418:7433   */\n      revert\n        /* \"#utility.yul\":7445:7625   */\n    tag_89:\n        /* \"#utility.yul\":7493:7570   */\n      0x4e487b7100000000000000000000000000000000000000000000000000000000\n        /* \"#utility.yul\":7490:7491   */\n      0x00\n        /* \"#utility.yul\":7483:7571   */\n      mstore\n        /* \"#utility.yul\":7590:7594   */\n      0x12\n        /* \"#utility.yul\":7587:7588   */\n      0x04\n        /* \"#utility.yul\":7580:7595   */\n      mstore\n        /* \"#utility.yul\":7614:7618   */\n      0x24\n        /* \"#utility.yul\":7611:7612   */\n      0x00\n        /* \"#utility.yul\":7604:7619   */\n      revert\n        /* \"#utility.yul\":7631:7807   */\n    tag_49:\n        /* \"#utility.yul\":7663:7664   */\n      0x00\n        /* \"#utility.yul\":7680:7700   */\n      tag_175\n        /* \"#utility.yul\":7698:7699   */\n      dup3\n        /* \"#utility.yul\":7680:7700   */\n      tag_68\n      jump\t// in\n    tag_175:\n        /* \"#utility.yul\":7675:7700   */\n      swap2\n      pop\n        /* \"#utility.yul\":7714:7734   */\n      tag_176\n        /* \"#utility.yul\":7732:7733   */\n      dup4\n        /* \"#utility.yul\":7714:7734   */\n      tag_68\n      jump\t// in\n    tag_176:\n        /* \"#utility.yul\":7709:7734   */\n      swap3\n      pop\n        /* \"#utility.yul\":7753:7754   */\n      dup3\n        /* \"#utility.yul\":7743:7778   */\n      tag_177\n      jumpi\n        /* \"#utility.yul\":7758:7776   */\n      tag_178\n      tag_89\n      jump\t// in\n    tag_178:\n        /* \"#utility.yul\":7743:7778   */\n    tag_177:\n        /* \"#utility.yul\":7799:7800   */\n      dup3\n        /* \"#utility.yul\":7796:7797   */\n      dup3\n        /* \"#utility.yul\":7792:7801   */\n      mod\n        /* \"#utility.yul\":7787:7801   */\n      swap1\n      pop\n        /* \"#utility.yul\":7631:7807   */\n      swap3\n      swap2\n      pop\n      pop\n      jump\t// out\n        /* \"#utility.yul\":7813:7985   */\n    tag_90:\n        /* \"#utility.yul\":7953:7977   */\n      0x5061727469636970616e74206e6f7420666f756e642e00000000000000000000\n        /* \"#utility.yul\":7949:7950   */\n      0x00\n        /* \"#utility.yul\":7941:7947   */\n      dup3\n        /* \"#utility.yul\":7937:7951   */\n      add\n        /* \"#utility.yul\":7930:7978   */\n      mstore\n        /* \"#utility.yul\":7813:7985   */\n      pop\n      jump\t// out\n        /* \"#utility.yul\":7991:8357   */\n    tag_91:\n        /* \"#utility.yul\":8133:8136   */\n      0x00\n        /* \"#utility.yul\":8154:8221   */\n      tag_181\n        /* \"#utility.yul\":8218:8220   */\n      0x16\n        /* \"#utility.yul\":8213:8216   */\n      dup4\n        /* \"#utility.yul\":8154:8221   */\n      tag_86\n      jump\t// in\n    tag_181:\n        /* \"#utility.yul\":8147:8221   */\n      swap2\n      pop\n        /* \"#utility.yul\":8230:8323   */\n      tag_182\n        /* \"#utility.yul\":8319:8322   */\n      dup3\n        /* \"#utility.yul\":8230:8323   */\n      tag_90\n      jump\t// in\n    tag_182:\n        /* \"#utility.yul\":8348:8350   */\n      0x20\n        /* \"#utility.yul\":8343:8346   */\n      dup3\n        /* \"#utility.yul\":8339:8351   */\n      add\n        /* \"#utility.yul\":8332:8351   */\n      swap1\n      pop\n        /* \"#utility.yul\":7991:8357   */\n      swap2\n      swap1\n      pop\n      jump\t// out\n        /* \"#utility.yul\":8363:8782   */\n    tag_53:\n        /* \"#utility.yul\":8529:8533   */\n      0x00\n        /* \"#utility.yul\":8567:8569   */\n      0x20\n        /* \"#utility.yul\":8556:8565   */\n      dup3\n        /* \"#utility.yul\":8552:8570   */\n      add\n        /* \"#utility.yul\":8544:8570   */\n      swap1\n      pop\n        /* \"#utility.yul\":8616:8625   */\n      dup2\n        /* \"#utility.yul\":8610:8614   */\n      dup2\n        /* \"#utility.yul\":8606:8626   */\n      sub\n        /* \"#utility.yul\":8602:8603   */\n      0x00\n        /* \"#utility.yul\":8591:8600   */\n      dup4\n        /* \"#utility.yul\":8587:8604   */\n      add\n        /* \"#utility.yul\":8580:8627   */\n      mstore\n        /* \"#utility.yul\":8644:8775   */\n      tag_184\n        /* \"#utility.yul\":8770:8774   */\n      dup2\n        /* \"#utility.yul\":8644:8775   */\n      tag_91\n      jump\t// in\n    tag_184:\n        /* \"#utility.yul\":8636:8775   */\n      swap1\n      pop\n        /* \"#utility.yul\":8363:8782   */\n      swap2\n      swap1\n      pop\n      jump\t// out\n        /* \"#utility.yul\":8788:8968   */\n    tag_92:\n        /* \"#utility.yul\":8836:8913   */\n      0x4e487b7100000000000000000000000000000000000000000000000000000000\n        /* \"#utility.yul\":8833:8834   */\n      0x00\n        /* \"#utility.yul\":8826:8914   */\n      mstore\n        /* \"#utility.yul\":8933:8937   */\n      0x11\n        /* \"#utility.yul\":8930:8931   */\n      0x04\n        /* \"#utility.yul\":8923:8938   */\n      mstore\n        /* \"#utility.yul\":8957:8961   */\n      0x24\n        /* \"#utility.yul\":8954:8955   */\n      0x00\n        /* \"#utility.yul\":8947:8962   */\n      revert\n        /* \"#utility.yul\":8974:9168   */\n    tag_55:\n        /* \"#utility.yul\":9014:9018   */\n      0x00\n        /* \"#utility.yul\":9034:9054   */\n      tag_187\n        /* \"#utility.yul\":9052:9053   */\n      dup3\n        /* \"#utility.yul\":9034:9054   */\n      tag_68\n      jump\t// in\n    tag_187:\n        /* \"#utility.yul\":9029:9054   */\n      swap2\n      pop\n        /* \"#utility.yul\":9068:9088   */\n      tag_188\n        /* \"#utility.yul\":9086:9087   */\n      dup4\n        /* \"#utility.yul\":9068:9088   */\n      tag_68\n      jump\t// in\n    tag_188:\n        /* \"#utility.yul\":9063:9088   */\n      swap3\n      pop\n        /* \"#utility.yul\":9112:9113   */\n      dup3\n        /* \"#utility.yul\":9109:9110   */\n      dup3\n        /* \"#utility.yul\":9105:9114   */\n      sub\n        /* \"#utility.yul\":9097:9114   */\n      swap1\n      pop\n        /* \"#utility.yul\":9136:9137   */\n      dup2\n        /* \"#utility.yul\":9130:9134   */\n      dup2\n        /* \"#utility.yul\":9127:9138   */\n      gt\n        /* \"#utility.yul\":9124:9161   */\n      iszero\n      tag_189\n      jumpi\n        /* \"#utility.yul\":9141:9159   */\n      tag_190\n      tag_92\n      jump\t// in\n    tag_190:\n        /* \"#utility.yul\":9124:9161   */\n    tag_189:\n        /* \"#utility.yul\":8974:9168   */\n      swap3\n      swap2\n      pop\n      pop\n      jump\t// out\n        /* \"#utility.yul\":9174:9365   */\n    tag_60:\n        /* \"#utility.yul\":9214:9217   */\n      0x00\n        /* \"#utility.yul\":9233:9253   */\n      tag_192\n        /* \"#utility.yul\":9251:9252   */\n      dup3\n        /* \"#utility.yul\":9233:9253   */\n      tag_68\n      jump\t// in\n    tag_192:\n        /* \"#utility.yul\":9228:9253   */\n      swap2\n      pop\n        /* \"#utility.yul\":9267:9287   */\n      tag_193\n        /* \"#utility.yul\":9285:9286   */\n      dup4\n        /* \"#utility.yul\":9267:9287   */\n      tag_68\n      jump\t// in\n    tag_193:\n        /* \"#utility.yul\":9262:9287   */\n      swap3\n      pop\n        /* \"#utility.yul\":9310:9311   */\n      dup3\n        /* \"#utility.yul\":9307:9308   */\n      dup3\n        /* \"#utility.yul\":9303:9312   */\n      add\n        /* \"#utility.yul\":9296:9312   */\n      swap1\n      pop\n        /* \"#utility.yul\":9331:9334   */\n      dup1\n        /* \"#utility.yul\":9328:9329   */\n      dup3\n        /* \"#utility.yul\":9325:9335   */\n      gt\n        /* \"#utility.yul\":9322:9358   */\n      iszero\n      tag_194\n      jumpi\n        /* \"#utility.yul\":9338:9356   */\n      tag_195\n      tag_92\n      jump\t// in\n    tag_195:\n        /* \"#utility.yul\":9322:9358   */\n    tag_194:\n        /* \"#utility.yul\":9174:9365   */\n      swap3\n      swap2\n      pop\n      pop\n      jump\t// out\n\n    auxdata: 0xa26469706673582212207996f7d595cad4b8caf0569356eba6c256dc70b79615eff7a6180c21568a1dac64736f6c63430008180033\n}\n",
				"bytecode": {
					"linkReferences": {},
					"object": "60a0604052738103b0a8a00be2ddc778e6e7eaa21791cd36462560015f6101000a81548173ffffffffffffffffffffffffffffffffffffffff021916908373ffffffffffffffffffffffffffffffffffffffff1602179055507f474e34a077df58807dbe9c96d3c009b23b3c6d0cce433e59bbf5b34f823bc56c5f1b600255619c4060035f6101000a81548163ffffffff021916908363ffffffff16021790555060038060046101000a81548161ffff021916908361ffff1602179055506001600360066101000a81548163ffffffff021916908363ffffffff1602179055503480156100ea575f80fd5b50604051610cc3380380610cc3833981810160405281019061010c9190610273565b60015f9054906101000a900473ffffffffffffffffffffffffffffffffffffffff168073ffffffffffffffffffffffffffffffffffffffff1660808173ffffffffffffffffffffffffffffffffffffffff16815250505060015f9054906101000a900473ffffffffffffffffffffffffffffffffffffffff165f806101000a81548173ffffffffffffffffffffffffffffffffffffffff021916908373ffffffffffffffffffffffffffffffffffffffff160217905550336003600a6101000a81548173ffffffffffffffffffffffffffffffffffffffff021916908373ffffffffffffffffffffffffffffffffffffffff160217905550805f60146101000a81548167ffffffffffffffff021916908367ffffffffffffffff1602179055505061029e565b5f80fd5b5f67ffffffffffffffff82169050919050565b61025281610236565b811461025c575f80fd5b50565b5f8151905061026d81610249565b92915050565b5f6020828403121561028857610287610232565b5b5f6102958482850161025f565b91505092915050565b608051610a066102bd5f395f818161025701526102ab0152610a065ff3fe608060405234801561000f575f80fd5b5060043610610055575f3560e01c806319e5bf3a146100595780631fe543e31461006357806335c1d3491461007f57806378a3a6d5146100b0578063fbf4a367146100ba575b5f80fd5b6100616100ea565b005b61007d60048036038101906100789190610644565b610255565b005b6100996004803603810190610094919061069e565b610315565b6040516100a7929190610717565b60405180910390f35b6100b8610363565b005b6100d460048036038101906100cf9190610768565b610370565b6040516100e19190610793565b60405180910390f35b5f60065f3373ffffffffffffffffffffffffffffffffffffffff1673ffffffffffffffffffffffffffffffffffffffff1681526020019081526020015f205414610169576040517f08c379a000000000000000000000000000000000000000000000000000000000815260040161016090610806565b60405180910390fd5b600560405180604001604052803373ffffffffffffffffffffffffffffffffffffffff1681526020015f815250908060018154018082558091505060019003905f5260205f2090600202015f909190919091505f820151815f015f6101000a81548173ffffffffffffffffffffffffffffffffffffffff021916908373ffffffffffffffffffffffffffffffffffffffff16021790555060208201518160010155505060058054905060065f3373ffffffffffffffffffffffffffffffffffffffff1673ffffffffffffffffffffffffffffffffffffffff1681526020019081526020015f2081905550565b7f000000000000000000000000000000000000000000000000000000000000000073ffffffffffffffffffffffffffffffffffffffff163373ffffffffffffffffffffffffffffffffffffffff161461030757337f00000000000000000000000000000000000000000000000000000000000000006040517f1cf993f40000000000000000000000000000000000000000000000000000000081526004016102fe929190610824565b60405180910390fd5b6103118282610385565b5050565b60058181548110610324575f80fd5b905f5260205f2090600202015f91509050805f015f9054906101000a900473ffffffffffffffffffffffffffffffffffffffff16908060010154905082565b61036e33600a6103ba565b565b6006602052805f5260405f205f915090505481565b600580549050815f8151811061039e5761039d61084b565b5b60200260200101516103b091906108a5565b6004819055505050565b5f60065f8473ffffffffffffffffffffffffffffffffffffffff1673ffffffffffffffffffffffffffffffffffffffff1681526020019081526020015f205490505f811161043d576040517f08c379a00000000000000000000000000000000000000000000000000000000081526004016104349061091f565b60405180910390fd5b81600560018361044d919061096a565b8154811061045e5761045d61084b565b5b905f5260205f20906002020160010154610478919061099d565b6005600183610487919061096a565b815481106104985761049761084b565b5b905f5260205f20906002020160010181905550505050565b5f604051905090565b5f80fd5b5f80fd5b5f819050919050565b6104d3816104c1565b81146104dd575f80fd5b50565b5f813590506104ee816104ca565b92915050565b5f80fd5b5f601f19601f8301169050919050565b7f4e487b71000000000000000000000000000000000000000000000000000000005f52604160045260245ffd5b61053e826104f8565b810181811067ffffffffffffffff8211171561055d5761055c610508565b5b80604052505050565b5f61056f6104b0565b905061057b8282610535565b919050565b5f67ffffffffffffffff82111561059a57610599610508565b5b602082029050602081019050919050565b5f80fd5b5f6105c16105bc84610580565b610566565b905080838252602082019050602084028301858111156105e4576105e36105ab565b5b835b8181101561060d57806105f988826104e0565b8452602084019350506020810190506105e6565b5050509392505050565b5f82601f83011261062b5761062a6104f4565b5b813561063b8482602086016105af565b91505092915050565b5f806040838503121561065a576106596104b9565b5b5f610667858286016104e0565b925050602083013567ffffffffffffffff811115610688576106876104bd565b5b61069485828601610617565b9150509250929050565b5f602082840312156106b3576106b26104b9565b5b5f6106c0848285016104e0565b91505092915050565b5f73ffffffffffffffffffffffffffffffffffffffff82169050919050565b5f6106f2826106c9565b9050919050565b610702816106e8565b82525050565b610711816104c1565b82525050565b5f60408201905061072a5f8301856106f9565b6107376020830184610708565b9392505050565b610747816106e8565b8114610751575f80fd5b50565b5f813590506107628161073e565b92915050565b5f6020828403121561077d5761077c6104b9565b5b5f61078a84828501610754565b91505092915050565b5f6020820190506107a65f830184610708565b92915050565b5f82825260208201905092915050565b7f416c7265616479207265676973746572640000000000000000000000000000005f82015250565b5f6107f06011836107ac565b91506107fb826107bc565b602082019050919050565b5f6020820190508181035f83015261081d816107e4565b9050919050565b5f6040820190506108375f8301856106f9565b61084460208301846106f9565b9392505050565b7f4e487b71000000000000000000000000000000000000000000000000000000005f52603260045260245ffd5b7f4e487b71000000000000000000000000000000000000000000000000000000005f52601260045260245ffd5b5f6108af826104c1565b91506108ba836104c1565b9250826108ca576108c9610878565b5b828206905092915050565b7f5061727469636970616e74206e6f7420666f756e642e000000000000000000005f82015250565b5f6109096016836107ac565b9150610914826108d5565b602082019050919050565b5f6020820190508181035f830152610936816108fd565b9050919050565b7f4e487b71000000000000000000000000000000000000000000000000000000005f52601160045260245ffd5b5f610974826104c1565b915061097f836104c1565b92508282039050818111156109975761099661093d565b5b92915050565b5f6109a7826104c1565b91506109b2836104c1565b92508282019050808211156109ca576109c961093d565b5b9291505056fea26469706673582212207996f7d595cad4b8caf0569356eba6c256dc70b79615eff7a6180c21568a1dac64736f6c63430008180033",
					"opcodes": "PUSH1 0xA0 PUSH1 0x40 MSTORE PUSH20 0x8103B0A8A00BE2DDC778E6E7EAA21791CD364625 PUSH1 0x1 PUSH0 PUSH2 0x100 EXP DUP2 SLOAD DUP2 PUSH20 0xFFFFFFFFFFFFFFFFFFFFFFFFFFFFFFFFFFFFFFFF MUL NOT AND SWAP1 DUP4 PUSH20 0xFFFFFFFFFFFFFFFFFFFFFFFFFFFFFFFFFFFFFFFF AND MUL OR SWAP1 SSTORE POP PUSH32 0x474E34A077DF58807DBE9C96D3C009B23B3C6D0CCE433E59BBF5B34F823BC56C PUSH0 SHL PUSH1 0x2 SSTORE PUSH2 0x9C40 PUSH1 0x3 PUSH0 PUSH2 0x100 EXP DUP2 SLOAD DUP2 PUSH4 0xFFFFFFFF MUL NOT AND SWAP1 DUP4 PUSH4 0xFFFFFFFF AND MUL OR SWAP1 SSTORE POP PUSH1 0x3 DUP1 PUSH1 0x4 PUSH2 0x100 EXP DUP2 SLOAD DUP2 PUSH2 0xFFFF MUL NOT AND SWAP1 DUP4 PUSH2 0xFFFF AND MUL OR SWAP1 SSTORE POP PUSH1 0x1 PUSH1 0x3 PUSH1 0x6 PUSH2 0x100 EXP DUP2 SLOAD DUP2 PUSH4 0xFFFFFFFF MUL NOT AND SWAP1 DUP4 PUSH4 0xFFFFFFFF AND MUL OR SWAP1 SSTORE POP CALLVALUE DUP1 ISZERO PUSH2 0xEA JUMPI PUSH0 DUP1 REVERT JUMPDEST POP PUSH1 0x40 MLOAD PUSH2 0xCC3 CODESIZE SUB DUP1 PUSH2 0xCC3 DUP4 CODECOPY DUP2 DUP2 ADD PUSH1 0x40 MSTORE DUP2 ADD SWAP1 PUSH2 0x10C SWAP2 SWAP1 PUSH2 0x273 JUMP JUMPDEST PUSH1 0x1 PUSH0 SWAP1 SLOAD SWAP1 PUSH2 0x100 EXP SWAP1 DIV PUSH20 0xFFFFFFFFFFFFFFFFFFFFFFFFFFFFFFFFFFFFFFFF AND DUP1 PUSH20 0xFFFFFFFFFFFFFFFFFFFFFFFFFFFFFFFFFFFFFFFF AND PUSH1 0x80 DUP2 PUSH20 0xFFFFFFFFFFFFFFFFFFFFFFFFFFFFFFFFFFFFFFFF AND DUP2 MSTORE POP POP POP PUSH1 0x1 PUSH0 SWAP1 SLOAD SWAP1 PUSH2 0x100 EXP SWAP1 DIV PUSH20 0xFFFFFFFFFFFFFFFFFFFFFFFFFFFFFFFFFFFFFFFF AND PUSH0 DUP1 PUSH2 0x100 EXP DUP2 SLOAD DUP2 PUSH20 0xFFFFFFFFFFFFFFFFFFFFFFFFFFFFFFFFFFFFFFFF MUL NOT AND SWAP1 DUP4 PUSH20 0xFFFFFFFFFFFFFFFFFFFFFFFFFFFFFFFFFFFFFFFF AND MUL OR SWAP1 SSTORE POP CALLER PUSH1 0x3 PUSH1 0xA PUSH2 0x100 EXP DUP2 SLOAD DUP2 PUSH20 0xFFFFFFFFFFFFFFFFFFFFFFFFFFFFFFFFFFFFFFFF MUL NOT AND SWAP1 DUP4 PUSH20 0xFFFFFFFFFFFFFFFFFFFFFFFFFFFFFFFFFFFFFFFF AND MUL OR SWAP1 SSTORE POP DUP1 PUSH0 PUSH1 0x14 PUSH2 0x100 EXP DUP2 SLOAD DUP2 PUSH8 0xFFFFFFFFFFFFFFFF MUL NOT AND SWAP1 DUP4 PUSH8 0xFFFFFFFFFFFFFFFF AND MUL OR SWAP1 SSTORE POP POP PUSH2 0x29E JUMP JUMPDEST PUSH0 DUP1 REVERT JUMPDEST PUSH0 PUSH8 0xFFFFFFFFFFFFFFFF DUP3 AND SWAP1 POP SWAP2 SWAP1 POP JUMP JUMPDEST PUSH2 0x252 DUP2 PUSH2 0x236 JUMP JUMPDEST DUP2 EQ PUSH2 0x25C JUMPI PUSH0 DUP1 REVERT JUMPDEST POP JUMP JUMPDEST PUSH0 DUP2 MLOAD SWAP1 POP PUSH2 0x26D DUP2 PUSH2 0x249 JUMP JUMPDEST SWAP3 SWAP2 POP POP JUMP JUMPDEST PUSH0 PUSH1 0x20 DUP3 DUP5 SUB SLT ISZERO PUSH2 0x288 JUMPI PUSH2 0x287 PUSH2 0x232 JUMP JUMPDEST JUMPDEST PUSH0 PUSH2 0x295 DUP5 DUP3 DUP6 ADD PUSH2 0x25F JUMP JUMPDEST SWAP2 POP POP SWAP3 SWAP2 POP POP JUMP JUMPDEST PUSH1 0x80 MLOAD PUSH2 0xA06 PUSH2 0x2BD PUSH0 CODECOPY PUSH0 DUP2 DUP2 PUSH2 0x257 ADD MSTORE PUSH2 0x2AB ADD MSTORE PUSH2 0xA06 PUSH0 RETURN INVALID PUSH1 0x80 PUSH1 0x40 MSTORE CALLVALUE DUP1 ISZERO PUSH2 0xF JUMPI PUSH0 DUP1 REVERT JUMPDEST POP PUSH1 0x4 CALLDATASIZE LT PUSH2 0x55 JUMPI PUSH0 CALLDATALOAD PUSH1 0xE0 SHR DUP1 PUSH4 0x19E5BF3A EQ PUSH2 0x59 JUMPI DUP1 PUSH4 0x1FE543E3 EQ PUSH2 0x63 JUMPI DUP1 PUSH4 0x35C1D349 EQ PUSH2 0x7F JUMPI DUP1 PUSH4 0x78A3A6D5 EQ PUSH2 0xB0 JUMPI DUP1 PUSH4 0xFBF4A367 EQ PUSH2 0xBA JUMPI JUMPDEST PUSH0 DUP1 REVERT JUMPDEST PUSH2 0x61 PUSH2 0xEA JUMP JUMPDEST STOP JUMPDEST PUSH2 0x7D PUSH1 0x4 DUP1 CALLDATASIZE SUB DUP2 ADD SWAP1 PUSH2 0x78 SWAP2 SWAP1 PUSH2 0x644 JUMP JUMPDEST PUSH2 0x255 JUMP JUMPDEST STOP JUMPDEST PUSH2 0x99 PUSH1 0x4 DUP1 CALLDATASIZE SUB DUP2 ADD SWAP1 PUSH2 0x94 SWAP2 SWAP1 PUSH2 0x69E JUMP JUMPDEST PUSH2 0x315 JUMP JUMPDEST PUSH1 0x40 MLOAD PUSH2 0xA7 SWAP3 SWAP2 SWAP1 PUSH2 0x717 JUMP JUMPDEST PUSH1 0x40 MLOAD DUP1 SWAP2 SUB SWAP1 RETURN JUMPDEST PUSH2 0xB8 PUSH2 0x363 JUMP JUMPDEST STOP JUMPDEST PUSH2 0xD4 PUSH1 0x4 DUP1 CALLDATASIZE SUB DUP2 ADD SWAP1 PUSH2 0xCF SWAP2 SWAP1 PUSH2 0x768 JUMP JUMPDEST PUSH2 0x370 JUMP JUMPDEST PUSH1 0x40 MLOAD PUSH2 0xE1 SWAP2 SWAP1 PUSH2 0x793 JUMP JUMPDEST PUSH1 0x40 MLOAD DUP1 SWAP2 SUB SWAP1 RETURN JUMPDEST PUSH0 PUSH1 0x6 PUSH0 CALLER PUSH20 0xFFFFFFFFFFFFFFFFFFFFFFFFFFFFFFFFFFFFFFFF AND PUSH20 0xFFFFFFFFFFFFFFFFFFFFFFFFFFFFFFFFFFFFFFFF AND DUP2 MSTORE PUSH1 0x20 ADD SWAP1 DUP2 MSTORE PUSH1 0x20 ADD PUSH0 KECCAK256 SLOAD EQ PUSH2 0x169 JUMPI PUSH1 0x40 MLOAD PUSH32 0x8C379A000000000000000000000000000000000000000000000000000000000 DUP2 MSTORE PUSH1 0x4 ADD PUSH2 0x160 SWAP1 PUSH2 0x806 JUMP JUMPDEST PUSH1 0x40 MLOAD DUP1 SWAP2 SUB SWAP1 REVERT JUMPDEST PUSH1 0x5 PUSH1 0x40 MLOAD DUP1 PUSH1 0x40 ADD PUSH1 0x40 MSTORE DUP1 CALLER PUSH20 0xFFFFFFFFFFFFFFFFFFFFFFFFFFFFFFFFFFFFFFFF AND DUP2 MSTORE PUSH1 0x20 ADD PUSH0 DUP2 MSTORE POP SWAP1 DUP1 PUSH1 0x1 DUP2 SLOAD ADD DUP1 DUP3 SSTORE DUP1 SWAP2 POP POP PUSH1 0x1 SWAP1 SUB SWAP1 PUSH0 MSTORE PUSH1 0x20 PUSH0 KECCAK256 SWAP1 PUSH1 0x2 MUL ADD PUSH0 SWAP1 SWAP2 SWAP1 SWAP2 SWAP1 SWAP2 POP PUSH0 DUP3 ADD MLOAD DUP2 PUSH0 ADD PUSH0 PUSH2 0x100 EXP DUP2 SLOAD DUP2 PUSH20 0xFFFFFFFFFFFFFFFFFFFFFFFFFFFFFFFFFFFFFFFF MUL NOT AND SWAP1 DUP4 PUSH20 0xFFFFFFFFFFFFFFFFFFFFFFFFFFFFFFFFFFFFFFFF AND MUL OR SWAP1 SSTORE POP PUSH1 0x20 DUP3 ADD MLOAD DUP2 PUSH1 0x1 ADD SSTORE POP POP PUSH1 0x5 DUP1 SLOAD SWAP1 POP PUSH1 0x6 PUSH0 CALLER PUSH20 0xFFFFFFFFFFFFFFFFFFFFFFFFFFFFFFFFFFFFFFFF AND PUSH20 0xFFFFFFFFFFFFFFFFFFFFFFFFFFFFFFFFFFFFFFFF AND DUP2 MSTORE PUSH1 0x20 ADD SWAP1 DUP2 MSTORE PUSH1 0x20 ADD PUSH0 KECCAK256 DUP2 SWAP1 SSTORE POP JUMP JUMPDEST PUSH32 0x0 PUSH20 0xFFFFFFFFFFFFFFFFFFFFFFFFFFFFFFFFFFFFFFFF AND CALLER PUSH20 0xFFFFFFFFFFFFFFFFFFFFFFFFFFFFFFFFFFFFFFFF AND EQ PUSH2 0x307 JUMPI CALLER PUSH32 0x0 PUSH1 0x40 MLOAD PUSH32 0x1CF993F400000000000000000000000000000000000000000000000000000000 DUP2 MSTORE PUSH1 0x4 ADD PUSH2 0x2FE SWAP3 SWAP2 SWAP1 PUSH2 0x824 JUMP JUMPDEST PUSH1 0x40 MLOAD DUP1 SWAP2 SUB SWAP1 REVERT JUMPDEST PUSH2 0x311 DUP3 DUP3 PUSH2 0x385 JUMP JUMPDEST POP POP JUMP JUMPDEST PUSH1 0x5 DUP2 DUP2 SLOAD DUP2 LT PUSH2 0x324 JUMPI PUSH0 DUP1 REVERT JUMPDEST SWAP1 PUSH0 MSTORE PUSH1 0x20 PUSH0 KECCAK256 SWAP1 PUSH1 0x2 MUL ADD PUSH0 SWAP2 POP SWAP1 POP DUP1 PUSH0 ADD PUSH0 SWAP1 SLOAD SWAP1 PUSH2 0x100 EXP SWAP1 DIV PUSH20 0xFFFFFFFFFFFFFFFFFFFFFFFFFFFFFFFFFFFFFFFF AND SWAP1 DUP1 PUSH1 0x1 ADD SLOAD SWAP1 POP DUP3 JUMP JUMPDEST PUSH2 0x36E CALLER PUSH1 0xA PUSH2 0x3BA JUMP JUMPDEST JUMP JUMPDEST PUSH1 0x6 PUSH1 0x20 MSTORE DUP1 PUSH0 MSTORE PUSH1 0x40 PUSH0 KECCAK256 PUSH0 SWAP2 POP SWAP1 POP SLOAD DUP2 JUMP JUMPDEST PUSH1 0x5 DUP1 SLOAD SWAP1 POP DUP2 PUSH0 DUP2 MLOAD DUP2 LT PUSH2 0x39E JUMPI PUSH2 0x39D PUSH2 0x84B JUMP JUMPDEST JUMPDEST PUSH1 0x20 MUL PUSH1 0x20 ADD ADD MLOAD PUSH2 0x3B0 SWAP2 SWAP1 PUSH2 0x8A5 JUMP JUMPDEST PUSH1 0x4 DUP2 SWAP1 SSTORE POP POP POP JUMP JUMPDEST PUSH0 PUSH1 0x6 PUSH0 DUP5 PUSH20 0xFFFFFFFFFFFFFFFFFFFFFFFFFFFFFFFFFFFFFFFF AND PUSH20 0xFFFFFFFFFFFFFFFFFFFFFFFFFFFFFFFFFFFFFFFF AND DUP2 MSTORE PUSH1 0x20 ADD SWAP1 DUP2 MSTORE PUSH1 0x20 ADD PUSH0 KECCAK256 SLOAD SWAP1 POP PUSH0 DUP2 GT PUSH2 0x43D JUMPI PUSH1 0x40 MLOAD PUSH32 0x8C379A000000000000000000000000000000000000000000000000000000000 DUP2 MSTORE PUSH1 0x4 ADD PUSH2 0x434 SWAP1 PUSH2 0x91F JUMP JUMPDEST PUSH1 0x40 MLOAD DUP1 SWAP2 SUB SWAP1 REVERT JUMPDEST DUP2 PUSH1 0x5 PUSH1 0x1 DUP4 PUSH2 0x44D SWAP2 SWAP1 PUSH2 0x96A JUMP JUMPDEST DUP2 SLOAD DUP2 LT PUSH2 0x45E JUMPI PUSH2 0x45D PUSH2 0x84B JUMP JUMPDEST JUMPDEST SWAP1 PUSH0 MSTORE PUSH1 0x20 PUSH0 KECCAK256 SWAP1 PUSH1 0x2 MUL ADD PUSH1 0x1 ADD SLOAD PUSH2 0x478 SWAP2 SWAP1 PUSH2 0x99D JUMP JUMPDEST PUSH1 0x5 PUSH1 0x1 DUP4 PUSH2 0x487 SWAP2 SWAP1 PUSH2 0x96A JUMP JUMPDEST DUP2 SLOAD DUP2 LT PUSH2 0x498 JUMPI PUSH2 0x497 PUSH2 0x84B JUMP JUMPDEST JUMPDEST SWAP1 PUSH0 MSTORE PUSH1 0x20 PUSH0 KECCAK256 SWAP1 PUSH1 0x2 MUL ADD PUSH1 0x1 ADD DUP2 SWAP1 SSTORE POP POP POP POP JUMP JUMPDEST PUSH0 PUSH1 0x40 MLOAD SWAP1 POP SWAP1 JUMP JUMPDEST PUSH0 DUP1 REVERT JUMPDEST PUSH0 DUP1 REVERT JUMPDEST PUSH0 DUP2 SWAP1 POP SWAP2 SWAP1 POP JUMP JUMPDEST PUSH2 0x4D3 DUP2 PUSH2 0x4C1 JUMP JUMPDEST DUP2 EQ PUSH2 0x4DD JUMPI PUSH0 DUP1 REVERT JUMPDEST POP JUMP JUMPDEST PUSH0 DUP2 CALLDATALOAD SWAP1 POP PUSH2 0x4EE DUP2 PUSH2 0x4CA JUMP JUMPDEST SWAP3 SWAP2 POP POP JUMP JUMPDEST PUSH0 DUP1 REVERT JUMPDEST PUSH0 PUSH1 0x1F NOT PUSH1 0x1F DUP4 ADD AND SWAP1 POP SWAP2 SWAP1 POP JUMP JUMPDEST PUSH32 0x4E487B7100000000000000000000000000000000000000000000000000000000 PUSH0 MSTORE PUSH1 0x41 PUSH1 0x4 MSTORE PUSH1 0x24 PUSH0 REVERT JUMPDEST PUSH2 0x53E DUP3 PUSH2 0x4F8 JUMP JUMPDEST DUP2 ADD DUP2 DUP2 LT PUSH8 0xFFFFFFFFFFFFFFFF DUP3 GT OR ISZERO PUSH2 0x55D JUMPI PUSH2 0x55C PUSH2 0x508 JUMP JUMPDEST JUMPDEST DUP1 PUSH1 0x40 MSTORE POP POP POP JUMP JUMPDEST PUSH0 PUSH2 0x56F PUSH2 0x4B0 JUMP JUMPDEST SWAP1 POP PUSH2 0x57B DUP3 DUP3 PUSH2 0x535 JUMP JUMPDEST SWAP2 SWAP1 POP JUMP JUMPDEST PUSH0 PUSH8 0xFFFFFFFFFFFFFFFF DUP3 GT ISZERO PUSH2 0x59A JUMPI PUSH2 0x599 PUSH2 0x508 JUMP JUMPDEST JUMPDEST PUSH1 0x20 DUP3 MUL SWAP1 POP PUSH1 0x20 DUP2 ADD SWAP1 POP SWAP2 SWAP1 POP JUMP JUMPDEST PUSH0 DUP1 REVERT JUMPDEST PUSH0 PUSH2 0x5C1 PUSH2 0x5BC DUP5 PUSH2 0x580 JUMP JUMPDEST PUSH2 0x566 JUMP JUMPDEST SWAP1 POP DUP1 DUP4 DUP3 MSTORE PUSH1 0x20 DUP3 ADD SWAP1 POP PUSH1 0x20 DUP5 MUL DUP4 ADD DUP6 DUP2 GT ISZERO PUSH2 0x5E4 JUMPI PUSH2 0x5E3 PUSH2 0x5AB JUMP JUMPDEST JUMPDEST DUP4 JUMPDEST DUP2 DUP2 LT ISZERO PUSH2 0x60D JUMPI DUP1 PUSH2 0x5F9 DUP9 DUP3 PUSH2 0x4E0 JUMP JUMPDEST DUP5 MSTORE PUSH1 0x20 DUP5 ADD SWAP4 POP POP PUSH1 0x20 DUP2 ADD SWAP1 POP PUSH2 0x5E6 JUMP JUMPDEST POP POP POP SWAP4 SWAP3 POP POP POP JUMP JUMPDEST PUSH0 DUP3 PUSH1 0x1F DUP4 ADD SLT PUSH2 0x62B JUMPI PUSH2 0x62A PUSH2 0x4F4 JUMP JUMPDEST JUMPDEST DUP2 CALLDATALOAD PUSH2 0x63B DUP5 DUP3 PUSH1 0x20 DUP7 ADD PUSH2 0x5AF JUMP JUMPDEST SWAP2 POP POP SWAP3 SWAP2 POP POP JUMP JUMPDEST PUSH0 DUP1 PUSH1 0x40 DUP4 DUP6 SUB SLT ISZERO PUSH2 0x65A JUMPI PUSH2 0x659 PUSH2 0x4B9 JUMP JUMPDEST JUMPDEST PUSH0 PUSH2 0x667 DUP6 DUP3 DUP7 ADD PUSH2 0x4E0 JUMP JUMPDEST SWAP3 POP POP PUSH1 0x20 DUP4 ADD CALLDATALOAD PUSH8 0xFFFFFFFFFFFFFFFF DUP2 GT ISZERO PUSH2 0x688 JUMPI PUSH2 0x687 PUSH2 0x4BD JUMP JUMPDEST JUMPDEST PUSH2 0x694 DUP6 DUP3 DUP7 ADD PUSH2 0x617 JUMP JUMPDEST SWAP2 POP POP SWAP3 POP SWAP3 SWAP1 POP JUMP JUMPDEST PUSH0 PUSH1 0x20 DUP3 DUP5 SUB SLT ISZERO PUSH2 0x6B3 JUMPI PUSH2 0x6B2 PUSH2 0x4B9 JUMP JUMPDEST JUMPDEST PUSH0 PUSH2 0x6C0 DUP5 DUP3 DUP6 ADD PUSH2 0x4E0 JUMP JUMPDEST SWAP2 POP POP SWAP3 SWAP2 POP POP JUMP JUMPDEST PUSH0 PUSH20 0xFFFFFFFFFFFFFFFFFFFFFFFFFFFFFFFFFFFFFFFF DUP3 AND SWAP1 POP SWAP2 SWAP1 POP JUMP JUMPDEST PUSH0 PUSH2 0x6F2 DUP3 PUSH2 0x6C9 JUMP JUMPDEST SWAP1 POP SWAP2 SWAP1 POP JUMP JUMPDEST PUSH2 0x702 DUP2 PUSH2 0x6E8 JUMP JUMPDEST DUP3 MSTORE POP POP JUMP JUMPDEST PUSH2 0x711 DUP2 PUSH2 0x4C1 JUMP JUMPDEST DUP3 MSTORE POP POP JUMP JUMPDEST PUSH0 PUSH1 0x40 DUP3 ADD SWAP1 POP PUSH2 0x72A PUSH0 DUP4 ADD DUP6 PUSH2 0x6F9 JUMP JUMPDEST PUSH2 0x737 PUSH1 0x20 DUP4 ADD DUP5 PUSH2 0x708 JUMP JUMPDEST SWAP4 SWAP3 POP POP POP JUMP JUMPDEST PUSH2 0x747 DUP2 PUSH2 0x6E8 JUMP JUMPDEST DUP2 EQ PUSH2 0x751 JUMPI PUSH0 DUP1 REVERT JUMPDEST POP JUMP JUMPDEST PUSH0 DUP2 CALLDATALOAD SWAP1 POP PUSH2 0x762 DUP2 PUSH2 0x73E JUMP JUMPDEST SWAP3 SWAP2 POP POP JUMP JUMPDEST PUSH0 PUSH1 0x20 DUP3 DUP5 SUB SLT ISZERO PUSH2 0x77D JUMPI PUSH2 0x77C PUSH2 0x4B9 JUMP JUMPDEST JUMPDEST PUSH0 PUSH2 0x78A DUP5 DUP3 DUP6 ADD PUSH2 0x754 JUMP JUMPDEST SWAP2 POP POP SWAP3 SWAP2 POP POP JUMP JUMPDEST PUSH0 PUSH1 0x20 DUP3 ADD SWAP1 POP PUSH2 0x7A6 PUSH0 DUP4 ADD DUP5 PUSH2 0x708 JUMP JUMPDEST SWAP3 SWAP2 POP POP JUMP JUMPDEST PUSH0 DUP3 DUP3 MSTORE PUSH1 0x20 DUP3 ADD SWAP1 POP SWAP3 SWAP2 POP POP JUMP JUMPDEST PUSH32 0x416C726561647920726567697374657264000000000000000000000000000000 PUSH0 DUP3 ADD MSTORE POP JUMP JUMPDEST PUSH0 PUSH2 0x7F0 PUSH1 0x11 DUP4 PUSH2 0x7AC JUMP JUMPDEST SWAP2 POP PUSH2 0x7FB DUP3 PUSH2 0x7BC JUMP JUMPDEST PUSH1 0x20 DUP3 ADD SWAP1 POP SWAP2 SWAP1 POP JUMP JUMPDEST PUSH0 PUSH1 0x20 DUP3 ADD SWAP1 POP DUP2 DUP2 SUB PUSH0 DUP4 ADD MSTORE PUSH2 0x81D DUP2 PUSH2 0x7E4 JUMP JUMPDEST SWAP1 POP SWAP2 SWAP1 POP JUMP JUMPDEST PUSH0 PUSH1 0x40 DUP3 ADD SWAP1 POP PUSH2 0x837 PUSH0 DUP4 ADD DUP6 PUSH2 0x6F9 JUMP JUMPDEST PUSH2 0x844 PUSH1 0x20 DUP4 ADD DUP5 PUSH2 0x6F9 JUMP JUMPDEST SWAP4 SWAP3 POP POP POP JUMP JUMPDEST PUSH32 0x4E487B7100000000000000000000000000000000000000000000000000000000 PUSH0 MSTORE PUSH1 0x32 PUSH1 0x4 MSTORE PUSH1 0x24 PUSH0 REVERT JUMPDEST PUSH32 0x4E487B7100000000000000000000000000000000000000000000000000000000 PUSH0 MSTORE PUSH1 0x12 PUSH1 0x4 MSTORE PUSH1 0x24 PUSH0 REVERT JUMPDEST PUSH0 PUSH2 0x8AF DUP3 PUSH2 0x4C1 JUMP JUMPDEST SWAP2 POP PUSH2 0x8BA DUP4 PUSH2 0x4C1 JUMP JUMPDEST SWAP3 POP DUP3 PUSH2 0x8CA JUMPI PUSH2 0x8C9 PUSH2 0x878 JUMP JUMPDEST JUMPDEST DUP3 DUP3 MOD SWAP1 POP SWAP3 SWAP2 POP POP JUMP JUMPDEST PUSH32 0x5061727469636970616E74206E6F7420666F756E642E00000000000000000000 PUSH0 DUP3 ADD MSTORE POP JUMP JUMPDEST PUSH0 PUSH2 0x909 PUSH1 0x16 DUP4 PUSH2 0x7AC JUMP JUMPDEST SWAP2 POP PUSH2 0x914 DUP3 PUSH2 0x8D5 JUMP JUMPDEST PUSH1 0x20 DUP3 ADD SWAP1 POP SWAP2 SWAP1 POP JUMP JUMPDEST PUSH0 PUSH1 0x20 DUP3 ADD SWAP1 POP DUP2 DUP2 SUB PUSH0 DUP4 ADD MSTORE PUSH2 0x936 DUP2 PUSH2 0x8FD JUMP JUMPDEST SWAP1 POP SWAP2 SWAP1 POP JUMP JUMPDEST PUSH32 0x4E487B7100000000000000000000000000000000000000000000000000000000 PUSH0 MSTORE PUSH1 0x11 PUSH1 0x4 MSTORE PUSH1 0x24 PUSH0 REVERT JUMPDEST PUSH0 PUSH2 0x974 DUP3 PUSH2 0x4C1 JUMP JUMPDEST SWAP2 POP PUSH2 0x97F DUP4 PUSH2 0x4C1 JUMP JUMPDEST SWAP3 POP DUP3 DUP3 SUB SWAP1 POP DUP2 DUP2 GT ISZERO PUSH2 0x997 JUMPI PUSH2 0x996 PUSH2 0x93D JUMP JUMPDEST JUMPDEST SWAP3 SWAP2 POP POP JUMP JUMPDEST PUSH0 PUSH2 0x9A7 DUP3 PUSH2 0x4C1 JUMP JUMPDEST SWAP2 POP PUSH2 0x9B2 DUP4 PUSH2 0x4C1 JUMP JUMPDEST SWAP3 POP DUP3 DUP3 ADD SWAP1 POP DUP1 DUP3 GT ISZERO PUSH2 0x9CA JUMPI PUSH2 0x9C9 PUSH2 0x93D JUMP JUMPDEST JUMPDEST SWAP3 SWAP2 POP POP JUMP INVALID LOG2 PUSH5 0x6970667358 0x22 SLT KECCAK256 PUSH26 0x96F7D595CAD4B8CAF0569356EBA6C256DC70B79615EFF7A6180C 0x21 JUMP DUP11 SAR 0xAC PUSH5 0x736F6C6343 STOP ADDMOD XOR STOP CALLER "
				},
				"gasEstimates": {
					"creation": {
						"codeDepositCost": "513200",
						"executionCost": "infinite",
						"totalCost": "infinite"
					},
					"external": {
						"PerformTask()": "infinite",
						"Register()": "80334",
						"participants(uint256)": "infinite",
						"rawFulfillRandomWords(uint256,uint256[])": "infinite",
						"taskPerformedIndex(address)": "2868"
					},
					"internal": {
						"_calculateEntries()": "infinite",
						"_performDistribution()": "infinite",
						"_performTask(address,uint256)": "infinite",
						"_randomWinners()": "infinite",
						"_sortParticipants()": "infinite",
						"fulfillRandomWords(uint256,uint256[] memory)": "infinite"
					}
				},
				"methodIdentifiers": {
					"PerformTask()": "78a3a6d5",
					"Register()": "19e5bf3a",
					"participants(uint256)": "35c1d349",
					"rawFulfillRandomWords(uint256,uint256[])": "1fe543e3",
					"taskPerformedIndex(address)": "fbf4a367"
				}
			},
			"storageLayout": {
				"storage": [
					{
						"astId": 164,
						"contract": "contracts/Distribution.sol:Distribution",
						"label": "COORDINATOR",
						"offset": 0,
						"slot": "0",
						"type": "t_contract(VRFCoordinatorV2Interface)95"
					},
					{
						"astId": 166,
						"contract": "contracts/Distribution.sol:Distribution",
						"label": "s_subscriptionId",
						"offset": 20,
						"slot": "0",
						"type": "t_uint64"
					},
					{
						"astId": 169,
						"contract": "contracts/Distribution.sol:Distribution",
						"label": "vrfCoordinator",
						"offset": 0,
						"slot": "1",
						"type": "t_address"
					},
					{
						"astId": 172,
						"contract": "contracts/Distribution.sol:Distribution",
						"label": "s_keyHash",
						"offset": 0,
						"slot": "2",
						"type": "t_bytes32"
					},
					{
						"astId": 175,
						"contract": "contracts/Distribution.sol:Distribution",
						"label": "callbackGasLimit",
						"offset": 0,
						"slot": "3",
						"type": "t_uint32"
					},
					{
						"astId": 178,
						"contract": "contracts/Distribution.sol:Distribution",
						"label": "requestConfirmations",
						"offset": 4,
						"slot": "3",
						"type": "t_uint16"
					},
					{
						"astId": 181,
						"contract": "contracts/Distribution.sol:Distribution",
						"label": "numWords",
						"offset": 6,
						"slot": "3",
						"type": "t_uint32"
					},
					{
						"astId": 183,
						"contract": "contracts/Distribution.sol:Distribution",
						"label": "s_owner",
						"offset": 10,
						"slot": "3",
						"type": "t_address"
					},
					{
						"astId": 209,
						"contract": "contracts/Distribution.sol:Distribution",
						"label": "RandomNumber",
						"offset": 0,
						"slot": "4",
						"type": "t_uint256"
					},
					{
						"astId": 218,
						"contract": "contracts/Distribution.sol:Distribution",
						"label": "participants",
						"offset": 0,
						"slot": "5",
						"type": "t_array(t_struct(ParticipantStruct)214_storage)dyn_storage"
					},
					{
						"astId": 222,
						"contract": "contracts/Distribution.sol:Distribution",
						"label": "taskPerformedIndex",
						"offset": 0,
						"slot": "6",
						"type": "t_mapping(t_address,t_uint256)"
					}
				],
				"types": {
					"t_address": {
						"encoding": "inplace",
						"label": "address",
						"numberOfBytes": "20"
					},
					"t_array(t_struct(ParticipantStruct)214_storage)dyn_storage": {
						"base": "t_struct(ParticipantStruct)214_storage",
						"encoding": "dynamic_array",
						"label": "struct Distribution.ParticipantStruct[]",
						"numberOfBytes": "32"
					},
					"t_bytes32": {
						"encoding": "inplace",
						"label": "bytes32",
						"numberOfBytes": "32"
					},
					"t_contract(VRFCoordinatorV2Interface)95": {
						"encoding": "inplace",
						"label": "contract VRFCoordinatorV2Interface",
						"numberOfBytes": "20"
					},
					"t_mapping(t_address,t_uint256)": {
						"encoding": "mapping",
						"key": "t_address",
						"label": "mapping(address => uint256)",
						"numberOfBytes": "32",
						"value": "t_uint256"
					},
					"t_struct(ParticipantStruct)214_storage": {
						"encoding": "inplace",
						"label": "struct Distribution.ParticipantStruct",
						"members": [
							{
								"astId": 211,
								"contract": "contracts/Distribution.sol:Distribution",
								"label": "Participant",
								"offset": 0,
								"slot": "0",
								"type": "t_address"
							},
							{
								"astId": 213,
								"contract": "contracts/Distribution.sol:Distribution",
								"label": "Points",
								"offset": 0,
								"slot": "1",
								"type": "t_uint256"
							}
						],
						"numberOfBytes": "64"
					},
					"t_uint16": {
						"encoding": "inplace",
						"label": "uint16",
						"numberOfBytes": "2"
					},
					"t_uint256": {
						"encoding": "inplace",
						"label": "uint256",
						"numberOfBytes": "32"
					},
					"t_uint32": {
						"encoding": "inplace",
						"label": "uint32",
						"numberOfBytes": "4"
					},
					"t_uint64": {
						"encoding": "inplace",
						"label": "uint64",
						"numberOfBytes": "8"
					}
				}
			},
			"userdoc": {
				"kind": "user",
				"methods": {},
				"version": 1
			}
		}
	}
}