{
	"contracts/Distribution.sol": {
		"Distribution": {
			"abi": [
				{
					"anonymous": false,
					"inputs": [
						{
							"indexed": false,
							"internalType": "address",
							"name": "User",
							"type": "address"
						}
					],
					"name": "TaskCompleted",
					"type": "event"
				},
				{
					"inputs": [],
					"name": "PerformTask",
					"outputs": [],
					"stateMutability": "nonpayable",
					"type": "function"
				},
				{
					"inputs": [],
					"name": "Register",
					"outputs": [],
					"stateMutability": "nonpayable",
					"type": "function"
				}
			],
			"devdoc": {
				"kind": "dev",
				"methods": {},
				"version": 1
			},
			"evm": {
				"assembly": "    /* \"contracts/Distribution.sol\":76:902  contract Distribution {... */\n  mstore(0x40, 0x80)\n  callvalue\n  dup1\n  iszero\n  tag_1\n  jumpi\n  0x00\n  dup1\n  revert\ntag_1:\n  pop\n  dataSize(sub_0)\n  dup1\n  dataOffset(sub_0)\n  0x00\n  codecopy\n  0x00\n  return\nstop\n\nsub_0: assembly {\n        /* \"contracts/Distribution.sol\":76:902  contract Distribution {... */\n      mstore(0x40, 0x80)\n      callvalue\n      dup1\n      iszero\n      tag_1\n      jumpi\n      0x00\n      dup1\n      revert\n    tag_1:\n      pop\n      jumpi(tag_2, lt(calldatasize, 0x04))\n      shr(0xe0, calldataload(0x00))\n      dup1\n      0x19e5bf3a\n      eq\n      tag_3\n      jumpi\n      dup1\n      0x78a3a6d5\n      eq\n      tag_4\n      jumpi\n    tag_2:\n      0x00\n      dup1\n      revert\n        /* \"contracts/Distribution.sol\":238:321  function Register() external {... */\n    tag_3:\n      tag_5\n      tag_6\n      jump\t// in\n    tag_5:\n      stop\n        /* \"contracts/Distribution.sol\":327:709  function PerformTask() external {... */\n    tag_4:\n      tag_7\n      tag_8\n      jump\t// in\n    tag_7:\n      stop\n        /* \"contracts/Distribution.sol\":238:321  function Register() external {... */\n    tag_6:\n        /* \"contracts/Distribution.sol\":304:314  msg.sender */\n      caller\n        /* \"contracts/Distribution.sol\":277:289  Participants */\n      0x00\n        /* \"contracts/Distribution.sol\":277:301  Participants[msg.sender] */\n      dup1\n        /* \"contracts/Distribution.sol\":290:300  msg.sender */\n      caller\n        /* \"contracts/Distribution.sol\":277:301  Participants[msg.sender] */\n      0xffffffffffffffffffffffffffffffffffffffff\n      and\n      0xffffffffffffffffffffffffffffffffffffffff\n      and\n      dup2\n      mstore\n      0x20\n      add\n      swap1\n      dup2\n      mstore\n      0x20\n      add\n      0x00\n      keccak256\n      0x00\n        /* \"contracts/Distribution.sol\":277:314  Participants[msg.sender] = msg.sender */\n      0x0100\n      exp\n      dup2\n      sload\n      dup2\n      0xffffffffffffffffffffffffffffffffffffffff\n      mul\n      not\n      and\n      swap1\n      dup4\n      0xffffffffffffffffffffffffffffffffffffffff\n      and\n      mul\n      or\n      swap1\n      sstore\n      pop\n        /* \"contracts/Distribution.sol\":238:321  function Register() external {... */\n      jump\t// out\n        /* \"contracts/Distribution.sol\":327:709  function PerformTask() external {... */\n    tag_8:\n        /* \"contracts/Distribution.sol\":418:428  msg.sender */\n      caller\n        /* \"contracts/Distribution.sol\":390:428  Participants[msg.sender] == msg.sender */\n      0xffffffffffffffffffffffffffffffffffffffff\n      and\n        /* \"contracts/Distribution.sol\":390:402  Participants */\n      0x00\n        /* \"contracts/Distribution.sol\":390:414  Participants[msg.sender] */\n      dup1\n        /* \"contracts/Distribution.sol\":403:413  msg.sender */\n      caller\n        /* \"contracts/Distribution.sol\":390:414  Participants[msg.sender] */\n      0xffffffffffffffffffffffffffffffffffffffff\n      and\n      0xffffffffffffffffffffffffffffffffffffffff\n      and\n      dup2\n      mstore\n      0x20\n      add\n      swap1\n      dup2\n      mstore\n      0x20\n      add\n      0x00\n      keccak256\n      0x00\n      swap1\n      sload\n      swap1\n      0x0100\n      exp\n      swap1\n      div\n      0xffffffffffffffffffffffffffffffffffffffff\n      and\n        /* \"contracts/Distribution.sol\":390:428  Participants[msg.sender] == msg.sender */\n      0xffffffffffffffffffffffffffffffffffffffff\n      and\n      eq\n        /* \"contracts/Distribution.sol\":369:477  require(... */\n      tag_11\n      jumpi\n      mload(0x40)\n      0x08c379a000000000000000000000000000000000000000000000000000000000\n      dup2\n      mstore\n      0x04\n      add\n      tag_12\n      swap1\n      tag_13\n      jump\t// in\n    tag_12:\n      mload(0x40)\n      dup1\n      swap2\n      sub\n      swap1\n      revert\n    tag_11:\n        /* \"contracts/Distribution.sol\":567:582  bool verifyTask */\n      0x00\n        /* \"contracts/Distribution.sol\":585:608  performTask(msg.sender) */\n      tag_14\n        /* \"contracts/Distribution.sol\":597:607  msg.sender */\n      caller\n        /* \"contracts/Distribution.sol\":585:596  performTask */\n      tag_15\n        /* \"contracts/Distribution.sol\":585:608  performTask(msg.sender) */\n      jump\t// in\n    tag_14:\n        /* \"contracts/Distribution.sol\":567:608  bool verifyTask = performTask(msg.sender) */\n      swap1\n      pop\n        /* \"contracts/Distribution.sol\":627:637  verifyTask */\n      dup1\n        /* \"contracts/Distribution.sol\":619:661  require(verifyTask, \"Verification Failed\") */\n      tag_16\n      jumpi\n      mload(0x40)\n      0x08c379a000000000000000000000000000000000000000000000000000000000\n      dup2\n      mstore\n      0x04\n      add\n      tag_17\n      swap1\n      tag_18\n      jump\t// in\n    tag_17:\n      mload(0x40)\n      dup1\n      swap2\n      sub\n      swap1\n      revert\n    tag_16:\n        /* \"contracts/Distribution.sol\":677:702  TaskCompleted(msg.sender) */\n      0xc67e2ae474f7ddf78b2e9d5b6d45422b30f52a0efbb5600f9a723c515d385f93\n        /* \"contracts/Distribution.sol\":691:701  msg.sender */\n      caller\n        /* \"contracts/Distribution.sol\":677:702  TaskCompleted(msg.sender) */\n      mload(0x40)\n      tag_19\n      swap2\n      swap1\n      tag_20\n      jump\t// in\n    tag_19:\n      mload(0x40)\n      dup1\n      swap2\n      sub\n      swap1\n      log1\n        /* \"contracts/Distribution.sol\":359:709  {... */\n      pop\n        /* \"contracts/Distribution.sol\":327:709  function PerformTask() external {... */\n      jump\t// out\n        /* \"contracts/Distribution.sol\":715:900  function performTask(address _user) internal view returns (bool) {... */\n    tag_15:\n        /* \"contracts/Distribution.sol\":774:778  bool */\n      0x00\n        /* \"contracts/Distribution.sol\":808:813  _user */\n      dup2\n        /* \"contracts/Distribution.sol\":794:813  msg.sender == _user */\n      0xffffffffffffffffffffffffffffffffffffffff\n      and\n        /* \"contracts/Distribution.sol\":794:804  msg.sender */\n      caller\n        /* \"contracts/Distribution.sol\":794:813  msg.sender == _user */\n      0xffffffffffffffffffffffffffffffffffffffff\n      and\n      sub\n        /* \"contracts/Distribution.sol\":790:894  if (msg.sender == _user) {... */\n      tag_22\n      jumpi\n        /* \"contracts/Distribution.sol\":836:840  true */\n      0x01\n        /* \"contracts/Distribution.sol\":829:840  return true */\n      swap1\n      pop\n      jump(tag_21)\n        /* \"contracts/Distribution.sol\":790:894  if (msg.sender == _user) {... */\n    tag_22:\n        /* \"contracts/Distribution.sol\":878:883  false */\n      0x00\n        /* \"contracts/Distribution.sol\":871:883  return false */\n      swap1\n      pop\n        /* \"contracts/Distribution.sol\":715:900  function performTask(address _user) internal view returns (bool) {... */\n    tag_21:\n      swap2\n      swap1\n      pop\n      jump\t// out\n        /* \"#utility.yul\":7:176   */\n    tag_24:\n        /* \"#utility.yul\":91:102   */\n      0x00\n        /* \"#utility.yul\":125:131   */\n      dup3\n        /* \"#utility.yul\":120:123   */\n      dup3\n        /* \"#utility.yul\":113:132   */\n      mstore\n        /* \"#utility.yul\":165:169   */\n      0x20\n        /* \"#utility.yul\":160:163   */\n      dup3\n        /* \"#utility.yul\":156:170   */\n      add\n        /* \"#utility.yul\":141:170   */\n      swap1\n      pop\n        /* \"#utility.yul\":7:176   */\n      swap3\n      swap2\n      pop\n      pop\n      jump\t// out\n        /* \"#utility.yul\":182:355   */\n    tag_25:\n        /* \"#utility.yul\":322:347   */\n      0x596f752068617665206e6f742072656769737465726564000000000000000000\n        /* \"#utility.yul\":318:319   */\n      0x00\n        /* \"#utility.yul\":310:316   */\n      dup3\n        /* \"#utility.yul\":306:320   */\n      add\n        /* \"#utility.yul\":299:348   */\n      mstore\n        /* \"#utility.yul\":182:355   */\n      pop\n      jump\t// out\n        /* \"#utility.yul\":361:727   */\n    tag_26:\n        /* \"#utility.yul\":503:506   */\n      0x00\n        /* \"#utility.yul\":524:591   */\n      tag_36\n        /* \"#utility.yul\":588:590   */\n      0x17\n        /* \"#utility.yul\":583:586   */\n      dup4\n        /* \"#utility.yul\":524:591   */\n      tag_24\n      jump\t// in\n    tag_36:\n        /* \"#utility.yul\":517:591   */\n      swap2\n      pop\n        /* \"#utility.yul\":600:693   */\n      tag_37\n        /* \"#utility.yul\":689:692   */\n      dup3\n        /* \"#utility.yul\":600:693   */\n      tag_25\n      jump\t// in\n    tag_37:\n        /* \"#utility.yul\":718:720   */\n      0x20\n        /* \"#utility.yul\":713:716   */\n      dup3\n        /* \"#utility.yul\":709:721   */\n      add\n        /* \"#utility.yul\":702:721   */\n      swap1\n      pop\n        /* \"#utility.yul\":361:727   */\n      swap2\n      swap1\n      pop\n      jump\t// out\n        /* \"#utility.yul\":733:1152   */\n    tag_13:\n        /* \"#utility.yul\":899:903   */\n      0x00\n        /* \"#utility.yul\":937:939   */\n      0x20\n        /* \"#utility.yul\":926:935   */\n      dup3\n        /* \"#utility.yul\":922:940   */\n      add\n        /* \"#utility.yul\":914:940   */\n      swap1\n      pop\n        /* \"#utility.yul\":986:995   */\n      dup2\n        /* \"#utility.yul\":980:984   */\n      dup2\n        /* \"#utility.yul\":976:996   */\n      sub\n        /* \"#utility.yul\":972:973   */\n      0x00\n        /* \"#utility.yul\":961:970   */\n      dup4\n        /* \"#utility.yul\":957:974   */\n      add\n        /* \"#utility.yul\":950:997   */\n      mstore\n        /* \"#utility.yul\":1014:1145   */\n      tag_39\n        /* \"#utility.yul\":1140:1144   */\n      dup2\n        /* \"#utility.yul\":1014:1145   */\n      tag_26\n      jump\t// in\n    tag_39:\n        /* \"#utility.yul\":1006:1145   */\n      swap1\n      pop\n        /* \"#utility.yul\":733:1152   */\n      swap2\n      swap1\n      pop\n      jump\t// out\n        /* \"#utility.yul\":1158:1327   */\n    tag_27:\n        /* \"#utility.yul\":1298:1319   */\n      0x566572696669636174696f6e204661696c656400000000000000000000000000\n        /* \"#utility.yul\":1294:1295   */\n      0x00\n        /* \"#utility.yul\":1286:1292   */\n      dup3\n        /* \"#utility.yul\":1282:1296   */\n      add\n        /* \"#utility.yul\":1275:1320   */\n      mstore\n        /* \"#utility.yul\":1158:1327   */\n      pop\n      jump\t// out\n        /* \"#utility.yul\":1333:1699   */\n    tag_28:\n        /* \"#utility.yul\":1475:1478   */\n      0x00\n        /* \"#utility.yul\":1496:1563   */\n      tag_42\n        /* \"#utility.yul\":1560:1562   */\n      0x13\n        /* \"#utility.yul\":1555:1558   */\n      dup4\n        /* \"#utility.yul\":1496:1563   */\n      tag_24\n      jump\t// in\n    tag_42:\n        /* \"#utility.yul\":1489:1563   */\n      swap2\n      pop\n        /* \"#utility.yul\":1572:1665   */\n      tag_43\n        /* \"#utility.yul\":1661:1664   */\n      dup3\n        /* \"#utility.yul\":1572:1665   */\n      tag_27\n      jump\t// in\n    tag_43:\n        /* \"#utility.yul\":1690:1692   */\n      0x20\n        /* \"#utility.yul\":1685:1688   */\n      dup3\n        /* \"#utility.yul\":1681:1693   */\n      add\n        /* \"#utility.yul\":1674:1693   */\n      swap1\n      pop\n        /* \"#utility.yul\":1333:1699   */\n      swap2\n      swap1\n      pop\n      jump\t// out\n        /* \"#utility.yul\":1705:2124   */\n    tag_18:\n        /* \"#utility.yul\":1871:1875   */\n      0x00\n        /* \"#utility.yul\":1909:1911   */\n      0x20\n        /* \"#utility.yul\":1898:1907   */\n      dup3\n        /* \"#utility.yul\":1894:1912   */\n      add\n        /* \"#utility.yul\":1886:1912   */\n      swap1\n      pop\n        /* \"#utility.yul\":1958:1967   */\n      dup2\n        /* \"#utility.yul\":1952:1956   */\n      dup2\n        /* \"#utility.yul\":1948:1968   */\n      sub\n        /* \"#utility.yul\":1944:1945   */\n      0x00\n        /* \"#utility.yul\":1933:1942   */\n      dup4\n        /* \"#utility.yul\":1929:1946   */\n      add\n        /* \"#utility.yul\":1922:1969   */\n      mstore\n        /* \"#utility.yul\":1986:2117   */\n      tag_45\n        /* \"#utility.yul\":2112:2116   */\n      dup2\n        /* \"#utility.yul\":1986:2117   */\n      tag_28\n      jump\t// in\n    tag_45:\n        /* \"#utility.yul\":1978:2117   */\n      swap1\n      pop\n        /* \"#utility.yul\":1705:2124   */\n      swap2\n      swap1\n      pop\n      jump\t// out\n        /* \"#utility.yul\":2130:2256   */\n    tag_29:\n        /* \"#utility.yul\":2167:2174   */\n      0x00\n        /* \"#utility.yul\":2207:2249   */\n      0xffffffffffffffffffffffffffffffffffffffff\n        /* \"#utility.yul\":2200:2205   */\n      dup3\n        /* \"#utility.yul\":2196:2250   */\n      and\n        /* \"#utility.yul\":2185:2250   */\n      swap1\n      pop\n        /* \"#utility.yul\":2130:2256   */\n      swap2\n      swap1\n      pop\n      jump\t// out\n        /* \"#utility.yul\":2262:2358   */\n    tag_30:\n        /* \"#utility.yul\":2299:2306   */\n      0x00\n        /* \"#utility.yul\":2328:2352   */\n      tag_48\n        /* \"#utility.yul\":2346:2351   */\n      dup3\n        /* \"#utility.yul\":2328:2352   */\n      tag_29\n      jump\t// in\n    tag_48:\n        /* \"#utility.yul\":2317:2352   */\n      swap1\n      pop\n        /* \"#utility.yul\":2262:2358   */\n      swap2\n      swap1\n      pop\n      jump\t// out\n        /* \"#utility.yul\":2364:2482   */\n    tag_31:\n        /* \"#utility.yul\":2451:2475   */\n      tag_50\n        /* \"#utility.yul\":2469:2474   */\n      dup2\n        /* \"#utility.yul\":2451:2475   */\n      tag_30\n      jump\t// in\n    tag_50:\n        /* \"#utility.yul\":2446:2449   */\n      dup3\n        /* \"#utility.yul\":2439:2476   */\n      mstore\n        /* \"#utility.yul\":2364:2482   */\n      pop\n      pop\n      jump\t// out\n        /* \"#utility.yul\":2488:2710   */\n    tag_20:\n        /* \"#utility.yul\":2581:2585   */\n      0x00\n        /* \"#utility.yul\":2619:2621   */\n      0x20\n        /* \"#utility.yul\":2608:2617   */\n      dup3\n        /* \"#utility.yul\":2604:2622   */\n      add\n        /* \"#utility.yul\":2596:2622   */\n      swap1\n      pop\n        /* \"#utility.yul\":2632:2703   */\n      tag_52\n        /* \"#utility.yul\":2700:2701   */\n      0x00\n        /* \"#utility.yul\":2689:2698   */\n      dup4\n        /* \"#utility.yul\":2685:2702   */\n      add\n        /* \"#utility.yul\":2676:2682   */\n      dup5\n        /* \"#utility.yul\":2632:2703   */\n      tag_31\n      jump\t// in\n    tag_52:\n        /* \"#utility.yul\":2488:2710   */\n      swap3\n      swap2\n      pop\n      pop\n      jump\t// out\n\n    auxdata: 0xa2646970667358221220810f25b431935d3bcf77c9507131ad09039eb5692e7c7bc984d54f04e8ba9eb564736f6c63430008180033\n}\n",
				"bytecode": {
					"linkReferences": {},
					"object": "608060405234801561000f575f80fd5b506103cb8061001d5f395ff3fe608060405234801561000f575f80fd5b5060043610610034575f3560e01c806319e5bf3a1461003857806378a3a6d514610042575b5f80fd5b61004061004c565b005b61004a6100c8565b005b335f803373ffffffffffffffffffffffffffffffffffffffff1673ffffffffffffffffffffffffffffffffffffffff1681526020019081526020015f205f6101000a81548173ffffffffffffffffffffffffffffffffffffffff021916908373ffffffffffffffffffffffffffffffffffffffff160217905550565b3373ffffffffffffffffffffffffffffffffffffffff165f803373ffffffffffffffffffffffffffffffffffffffff1673ffffffffffffffffffffffffffffffffffffffff1681526020019081526020015f205f9054906101000a900473ffffffffffffffffffffffffffffffffffffffff1673ffffffffffffffffffffffffffffffffffffffff1614610191576040517f08c379a0000000000000000000000000000000000000000000000000000000008152600401610188906102b7565b60405180910390fd5b5f61019b33610217565b9050806101dd576040517f08c379a00000000000000000000000000000000000000000000000000000000081526004016101d49061031f565b60405180910390fd5b7fc67e2ae474f7ddf78b2e9d5b6d45422b30f52a0efbb5600f9a723c515d385f933360405161020c919061037c565b60405180910390a150565b5f8173ffffffffffffffffffffffffffffffffffffffff163373ffffffffffffffffffffffffffffffffffffffff16036102545760019050610258565b5f90505b919050565b5f82825260208201905092915050565b7f596f752068617665206e6f7420726567697374657265640000000000000000005f82015250565b5f6102a160178361025d565b91506102ac8261026d565b602082019050919050565b5f6020820190508181035f8301526102ce81610295565b9050919050565b7f566572696669636174696f6e204661696c6564000000000000000000000000005f82015250565b5f61030960138361025d565b9150610314826102d5565b602082019050919050565b5f6020820190508181035f830152610336816102fd565b9050919050565b5f73ffffffffffffffffffffffffffffffffffffffff82169050919050565b5f6103668261033d565b9050919050565b6103768161035c565b82525050565b5f60208201905061038f5f83018461036d565b9291505056fea2646970667358221220810f25b431935d3bcf77c9507131ad09039eb5692e7c7bc984d54f04e8ba9eb564736f6c63430008180033",
					"opcodes": "PUSH1 0x80 PUSH1 0x40 MSTORE CALLVALUE DUP1 ISZERO PUSH2 0xF JUMPI PUSH0 DUP1 REVERT JUMPDEST POP PUSH2 0x3CB DUP1 PUSH2 0x1D PUSH0 CODECOPY PUSH0 RETURN INVALID PUSH1 0x80 PUSH1 0x40 MSTORE CALLVALUE DUP1 ISZERO PUSH2 0xF JUMPI PUSH0 DUP1 REVERT JUMPDEST POP PUSH1 0x4 CALLDATASIZE LT PUSH2 0x34 JUMPI PUSH0 CALLDATALOAD PUSH1 0xE0 SHR DUP1 PUSH4 0x19E5BF3A EQ PUSH2 0x38 JUMPI DUP1 PUSH4 0x78A3A6D5 EQ PUSH2 0x42 JUMPI JUMPDEST PUSH0 DUP1 REVERT JUMPDEST PUSH2 0x40 PUSH2 0x4C JUMP JUMPDEST STOP JUMPDEST PUSH2 0x4A PUSH2 0xC8 JUMP JUMPDEST STOP JUMPDEST CALLER PUSH0 DUP1 CALLER PUSH20 0xFFFFFFFFFFFFFFFFFFFFFFFFFFFFFFFFFFFFFFFF AND PUSH20 0xFFFFFFFFFFFFFFFFFFFFFFFFFFFFFFFFFFFFFFFF AND DUP2 MSTORE PUSH1 0x20 ADD SWAP1 DUP2 MSTORE PUSH1 0x20 ADD PUSH0 KECCAK256 PUSH0 PUSH2 0x100 EXP DUP2 SLOAD DUP2 PUSH20 0xFFFFFFFFFFFFFFFFFFFFFFFFFFFFFFFFFFFFFFFF MUL NOT AND SWAP1 DUP4 PUSH20 0xFFFFFFFFFFFFFFFFFFFFFFFFFFFFFFFFFFFFFFFF AND MUL OR SWAP1 SSTORE POP JUMP JUMPDEST CALLER PUSH20 0xFFFFFFFFFFFFFFFFFFFFFFFFFFFFFFFFFFFFFFFF AND PUSH0 DUP1 CALLER PUSH20 0xFFFFFFFFFFFFFFFFFFFFFFFFFFFFFFFFFFFFFFFF AND PUSH20 0xFFFFFFFFFFFFFFFFFFFFFFFFFFFFFFFFFFFFFFFF AND DUP2 MSTORE PUSH1 0x20 ADD SWAP1 DUP2 MSTORE PUSH1 0x20 ADD PUSH0 KECCAK256 PUSH0 SWAP1 SLOAD SWAP1 PUSH2 0x100 EXP SWAP1 DIV PUSH20 0xFFFFFFFFFFFFFFFFFFFFFFFFFFFFFFFFFFFFFFFF AND PUSH20 0xFFFFFFFFFFFFFFFFFFFFFFFFFFFFFFFFFFFFFFFF AND EQ PUSH2 0x191 JUMPI PUSH1 0x40 MLOAD PUSH32 0x8C379A000000000000000000000000000000000000000000000000000000000 DUP2 MSTORE PUSH1 0x4 ADD PUSH2 0x188 SWAP1 PUSH2 0x2B7 JUMP JUMPDEST PUSH1 0x40 MLOAD DUP1 SWAP2 SUB SWAP1 REVERT JUMPDEST PUSH0 PUSH2 0x19B CALLER PUSH2 0x217 JUMP JUMPDEST SWAP1 POP DUP1 PUSH2 0x1DD JUMPI PUSH1 0x40 MLOAD PUSH32 0x8C379A000000000000000000000000000000000000000000000000000000000 DUP2 MSTORE PUSH1 0x4 ADD PUSH2 0x1D4 SWAP1 PUSH2 0x31F JUMP JUMPDEST PUSH1 0x40 MLOAD DUP1 SWAP2 SUB SWAP1 REVERT JUMPDEST PUSH32 0xC67E2AE474F7DDF78B2E9D5B6D45422B30F52A0EFBB5600F9A723C515D385F93 CALLER PUSH1 0x40 MLOAD PUSH2 0x20C SWAP2 SWAP1 PUSH2 0x37C JUMP JUMPDEST PUSH1 0x40 MLOAD DUP1 SWAP2 SUB SWAP1 LOG1 POP JUMP JUMPDEST PUSH0 DUP2 PUSH20 0xFFFFFFFFFFFFFFFFFFFFFFFFFFFFFFFFFFFFFFFF AND CALLER PUSH20 0xFFFFFFFFFFFFFFFFFFFFFFFFFFFFFFFFFFFFFFFF AND SUB PUSH2 0x254 JUMPI PUSH1 0x1 SWAP1 POP PUSH2 0x258 JUMP JUMPDEST PUSH0 SWAP1 POP JUMPDEST SWAP2 SWAP1 POP JUMP JUMPDEST PUSH0 DUP3 DUP3 MSTORE PUSH1 0x20 DUP3 ADD SWAP1 POP SWAP3 SWAP2 POP POP JUMP JUMPDEST PUSH32 0x596F752068617665206E6F742072656769737465726564000000000000000000 PUSH0 DUP3 ADD MSTORE POP JUMP JUMPDEST PUSH0 PUSH2 0x2A1 PUSH1 0x17 DUP4 PUSH2 0x25D JUMP JUMPDEST SWAP2 POP PUSH2 0x2AC DUP3 PUSH2 0x26D JUMP JUMPDEST PUSH1 0x20 DUP3 ADD SWAP1 POP SWAP2 SWAP1 POP JUMP JUMPDEST PUSH0 PUSH1 0x20 DUP3 ADD SWAP1 POP DUP2 DUP2 SUB PUSH0 DUP4 ADD MSTORE PUSH2 0x2CE DUP2 PUSH2 0x295 JUMP JUMPDEST SWAP1 POP SWAP2 SWAP1 POP JUMP JUMPDEST PUSH32 0x566572696669636174696F6E204661696C656400000000000000000000000000 PUSH0 DUP3 ADD MSTORE POP JUMP JUMPDEST PUSH0 PUSH2 0x309 PUSH1 0x13 DUP4 PUSH2 0x25D JUMP JUMPDEST SWAP2 POP PUSH2 0x314 DUP3 PUSH2 0x2D5 JUMP JUMPDEST PUSH1 0x20 DUP3 ADD SWAP1 POP SWAP2 SWAP1 POP JUMP JUMPDEST PUSH0 PUSH1 0x20 DUP3 ADD SWAP1 POP DUP2 DUP2 SUB PUSH0 DUP4 ADD MSTORE PUSH2 0x336 DUP2 PUSH2 0x2FD JUMP JUMPDEST SWAP1 POP SWAP2 SWAP1 POP JUMP JUMPDEST PUSH0 PUSH20 0xFFFFFFFFFFFFFFFFFFFFFFFFFFFFFFFFFFFFFFFF DUP3 AND SWAP1 POP SWAP2 SWAP1 POP JUMP JUMPDEST PUSH0 PUSH2 0x366 DUP3 PUSH2 0x33D JUMP JUMPDEST SWAP1 POP SWAP2 SWAP1 POP JUMP JUMPDEST PUSH2 0x376 DUP2 PUSH2 0x35C JUMP JUMPDEST DUP3 MSTORE POP POP JUMP JUMPDEST PUSH0 PUSH1 0x20 DUP3 ADD SWAP1 POP PUSH2 0x38F PUSH0 DUP4 ADD DUP5 PUSH2 0x36D JUMP JUMPDEST SWAP3 SWAP2 POP POP JUMP INVALID LOG2 PUSH5 0x6970667358 0x22 SLT KECCAK256 DUP2 0xF 0x25 0xB4 BALANCE SWAP4 TSTORE EXTCODESIZE 0xCF PUSH24 0xC9507131AD09039EB5692E7C7BC984D54F04E8BA9EB56473 PUSH16 0x6C634300081800330000000000000000 "
				},
				"gasEstimates": {
					"creation": {
						"codeDepositCost": "194200",
						"executionCost": "236",
						"totalCost": "194436"
					},
					"external": {
						"PerformTask()": "3749",
						"Register()": "24473"
					},
					"internal": {
						"performTask(address)": "72"
					}
				},
				"methodIdentifiers": {
					"PerformTask()": "78a3a6d5",
					"Register()": "19e5bf3a"
				}
			},
			"storageLayout": {
				"storage": [
					{
						"astId": 5,
						"contract": "contracts/Distribution.sol:Distribution",
						"label": "Participants",
						"offset": 0,
						"slot": "0",
						"type": "t_mapping(t_address,t_address)"
					},
					{
						"astId": 9,
						"contract": "contracts/Distribution.sol:Distribution",
						"label": "HasPerformedTask",
						"offset": 0,
						"slot": "1",
						"type": "t_mapping(t_address,t_bool)"
					}
				],
				"types": {
					"t_address": {
						"encoding": "inplace",
						"label": "address",
						"numberOfBytes": "20"
					},
					"t_bool": {
						"encoding": "inplace",
						"label": "bool",
						"numberOfBytes": "1"
					},
					"t_mapping(t_address,t_address)": {
						"encoding": "mapping",
						"key": "t_address",
						"label": "mapping(address => address)",
						"numberOfBytes": "32",
						"value": "t_address"
					},
					"t_mapping(t_address,t_bool)": {
						"encoding": "mapping",
						"key": "t_address",
						"label": "mapping(address => bool)",
						"numberOfBytes": "32",
						"value": "t_bool"
					}
				}
			},
			"userdoc": {
				"kind": "user",
				"methods": {},
				"version": 1
			}
		}
	}
}